{
  "address": "0x6d6aFa2C67BE77d440f5cabce62a9AB093B6085A",
  "abi": [
    {
      "inputs": [
        {
          "internalType": "address",
          "name": "factoryAddress_",
          "type": "address"
        }
      ],
      "stateMutability": "nonpayable",
      "type": "constructor"
    },
    {
      "anonymous": false,
      "inputs": [
        {
          "indexed": true,
          "internalType": "uint256",
          "name": "airdropId",
          "type": "uint256"
        },
        {
          "indexed": false,
          "internalType": "uint256",
          "name": "index",
          "type": "uint256"
        },
        {
          "indexed": false,
          "internalType": "address",
          "name": "account",
          "type": "address"
        },
        {
          "indexed": false,
          "internalType": "uint256",
          "name": "amount",
          "type": "uint256"
        }
      ],
      "name": "Claimed",
      "type": "event"
    },
    {
      "anonymous": false,
      "inputs": [
        {
          "indexed": true,
          "internalType": "address",
          "name": "creator",
          "type": "address"
        },
        {
          "indexed": true,
          "internalType": "uint256",
          "name": "airdropId",
          "type": "uint256"
        },
        {
          "indexed": false,
          "internalType": "address",
          "name": "token",
          "type": "address"
        },
        {
          "indexed": false,
          "internalType": "uint256",
          "name": "amount",
          "type": "uint256"
        },
        {
          "indexed": false,
          "internalType": "uint256",
          "name": "startTime",
          "type": "uint256"
        },
        {
          "indexed": false,
          "internalType": "uint256",
          "name": "endTime",
          "type": "uint256"
        }
      ],
      "name": "CreateAirdrop",
      "type": "event"
    },
    {
      "anonymous": false,
      "inputs": [
        {
          "indexed": true,
          "internalType": "uint256",
          "name": "airdropId",
          "type": "uint256"
        },
        {
          "indexed": false,
          "internalType": "uint256",
          "name": "amount",
          "type": "uint256"
        },
        {
          "indexed": false,
          "internalType": "bytes32",
          "name": "merkleTreeRoot",
          "type": "bytes32"
        }
      ],
      "name": "SettleAirdrop",
      "type": "event"
    },
    {
      "inputs": [
        {
          "internalType": "uint256",
          "name": "",
          "type": "uint256"
        }
      ],
      "name": "airdrops",
      "outputs": [
        {
          "internalType": "address",
          "name": "token",
          "type": "address"
        },
        {
          "internalType": "uint256",
          "name": "tokenStaked",
          "type": "uint256"
        },
        {
          "internalType": "uint256",
          "name": "tokenClaimed",
          "type": "uint256"
        },
        {
          "internalType": "bytes32",
          "name": "merkleRoot",
          "type": "bytes32"
        },
        {
          "internalType": "uint256",
          "name": "startTime",
          "type": "uint256"
        },
        {
          "internalType": "uint256",
          "name": "endTime",
          "type": "uint256"
        },
        {
          "internalType": "address",
          "name": "creator",
          "type": "address"
        }
      ],
      "stateMutability": "view",
      "type": "function"
    },
    {
      "inputs": [
        {
          "internalType": "uint256",
          "name": "airdropId_",
          "type": "uint256"
        },
        {
          "internalType": "uint256",
          "name": "index_",
          "type": "uint256"
        },
        {
          "internalType": "address",
          "name": "account_",
          "type": "address"
        },
        {
          "internalType": "uint256",
          "name": "amount_",
          "type": "uint256"
        },
        {
          "internalType": "bytes32[]",
          "name": "merkleProof_",
          "type": "bytes32[]"
        }
      ],
      "name": "claimAirdrop",
      "outputs": [],
      "stateMutability": "nonpayable",
      "type": "function"
    },
    {
      "inputs": [
        {
          "internalType": "uint256",
          "name": "airdropId_",
          "type": "uint256"
        },
        {
          "internalType": "address",
          "name": "token_",
          "type": "address"
        },
        {
          "internalType": "uint256",
          "name": "amount_",
          "type": "uint256"
        },
        {
          "internalType": "uint256",
          "name": "startTime_",
          "type": "uint256"
        },
        {
          "internalType": "uint256",
          "name": "endTime_",
          "type": "uint256"
        },
        {
          "internalType": "bytes",
          "name": "signature_",
          "type": "bytes"
        }
      ],
      "name": "createAirdrop",
      "outputs": [],
      "stateMutability": "payable",
      "type": "function"
    },
    {
      "inputs": [],
      "name": "factoryAddress",
      "outputs": [
        {
          "internalType": "address",
          "name": "",
          "type": "address"
        }
      ],
      "stateMutability": "view",
      "type": "function"
    },
    {
      "inputs": [
        {
          "internalType": "uint256",
          "name": "airdropId_",
          "type": "uint256"
        },
        {
          "internalType": "address",
          "name": "account_",
          "type": "address"
        }
      ],
      "name": "isClaimed",
      "outputs": [
        {
          "internalType": "bool",
          "name": "",
          "type": "bool"
        }
      ],
      "stateMutability": "view",
      "type": "function"
    },
    {
      "inputs": [
        {
          "internalType": "uint256",
          "name": "airdropId_",
          "type": "uint256"
        }
      ],
      "name": "recycleAirdrop",
      "outputs": [],
      "stateMutability": "nonpayable",
      "type": "function"
    },
    {
      "inputs": [
        {
          "internalType": "uint256",
          "name": "airdropId_",
          "type": "uint256"
        },
        {
          "internalType": "uint256",
          "name": "amount_",
          "type": "uint256"
        },
        {
          "internalType": "bytes32",
          "name": "merkleRoot_",
          "type": "bytes32"
        }
      ],
      "name": "settleAirdrop",
      "outputs": [],
      "stateMutability": "payable",
      "type": "function"
    }
  ],
  "transactionHash": "0x2fe6702de0b41288d85c4543ddf1450dccaac52ac960c5e1e3d8ffb60775a56c",
  "args": [
    "0x626f936D28D758c9566d3EBC3A79491C23EB1015"
  ],
  "solcInputHash": "8d3229e8d10c438c63aead2f56b1c616",
  "bytecode": "0x60a060405234801561001057600080fd5b50604051611a13380380611a1383398101604081905261002f91610040565b6001600160a01b0316608052610070565b60006020828403121561005257600080fd5b81516001600160a01b038116811461006957600080fd5b9392505050565b60805161198161009260003960008181610165015261099101526119816000f3fe6080604052600436106100705760003560e01c8063966dae0e1161004e578063966dae0e14610153578063d2ef07951461019f578063e2ee1f2d146101f5578063ea9e23201461020857600080fd5b80632084a833146100755780633ddbe3e01461008a57806360db5082146100aa575b600080fd5b610088610083366004611649565b610228565b005b34801561009657600080fd5b506100886100a5366004611691565b610436565b3480156100b657600080fd5b5061010d6100c5366004611733565b60006020819052908152604090208054600182015460028301546003840154600485015460058601546006909601546001600160a01b03958616969495939492939192911687565b604080516001600160a01b03988916815260208101979097528601949094526060850192909252608084015260a083015290911660c082015260e0015b60405180910390f35b34801561015f57600080fd5b506101877f000000000000000000000000000000000000000000000000000000000000000081565b6040516001600160a01b03909116815260200161014a565b3480156101ab57600080fd5b506101e56101ba36600461174c565b60009182526001602090815260408084206001600160a01b0393909316845291905290205460ff1690565b604051901515815260200161014a565b610088610203366004611778565b610845565b34801561021457600080fd5b50610088610223366004611733565b610cad565b60008381526020818152604091829020825160e08101845281546001600160a01b0390811682526001830154938201939093526002820154938101939093526003810154606084015260048101546080840152600581015460a0840152600601541660c0820181905233146102e45760405162461bcd60e51b815260206004820152601c60248201527f44414f41697264726f703a206e6f74207468652063726561746f722e0000000060448201526064015b60405180910390fd5b6060810151156103365760405162461bcd60e51b815260206004820152601b60248201527f44414f41697264726f703a20616c726561647920736574746c652e000000000060448201526064016102db565b80602001518311156103db5780516001600160a01b03166103b35760208101516103609084611838565b34146103ae5760405162461bcd60e51b815260206004820152601b60248201527f44414f41697264726f703a20696e76616c696420616d6f756e742e000000000060448201526064016102db565b6103db565b6103db33308360200151866103c89190611838565b84516001600160a01b0316929190610e7a565b6000848152602081815260409182902060018101869055600301849055815185815290810184905285917f8d960ab480519875ff0ffb0a3c192c707e69f7b1cc21e1955522e226fcfde05b910160405180910390a250505050565b60008681526020818152604091829020825160e08101845281546001600160a01b0390811682526001830154938201939093526002820154938101939093526003810154606084015260048101546080840152600581015460a0840152600601541660c082018190526104f75760405162461bcd60e51b815260206004820152602360248201527f44414f41697264726f703a206e6f7420612076616c69642061697264726f702060448201526234b21760e91b60648201526084016102db565b8060800151421161054a5760405162461bcd60e51b815260206004820152601d60248201527f44414f41697264726f703a2063616e6e6f7420636c61696d207965742e00000060448201526064016102db565b8060a001514211156105a85760405162461bcd60e51b815260206004820152602160248201527f44414f41697264726f703a2061697264726f7020616c726561647920646f6e656044820152601760f91b60648201526084016102db565b60008781526001602090815260408083206001600160a01b038916845290915290205460ff16156106255760405162461bcd60e51b815260206004820152602160248201527f44414f41697264726f703a2064726f7020616c726561647920636c61696d65646044820152601760f91b60648201526084016102db565b60608101516106765760405162461bcd60e51b815260206004820152601760248201527f44414f41697264726f703a206e6f7420736574746c652e00000000000000000060448201526064016102db565b806020015184826040015161068b919061184f565b11156106d95760405162461bcd60e51b815260206004820152601f60248201527f44414f41697264726f703a20696e73756666696369656e742066756e64732e0060448201526064016102db565b60408051602081018890526bffffffffffffffffffffffff19606088901b169181019190915260548101859052600090607401604051602081830303815290604052805190602001209050610765848480806020026020016040519081016040528093929190818152602001838360200280828437600092019190915250505050606084015183610f18565b6107b15760405162461bcd60e51b815260206004820152601a60248201527f44414f41697264726f703a20696e76616c69642070726f6f662e00000000000060448201526064016102db565b6107bc888787610f2e565b81516001600160a01b03166107da576107d58686610f81565b6107f0565b81516107f0906001600160a01b0316878761109a565b604080518881526001600160a01b038816602082015290810186905288907fb94bf7f9302edf52a596286915a69b4b0685574cffdedd0712e3c62f2550f0ba9060600160405180910390a25050505050505050565b6000878152602081905260409020600601546001600160a01b0316156108b75760405162461bcd60e51b815260206004820152602160248201527f44414f41697264726f703a206475706c69636174652061697264726f702069646044820152601760f91b60648201526084016102db565b8383116109065760405162461bcd60e51b815260206004820152601960248201527f44414f41697264726f703a20696e76616c69642074696d652e0000000000000060448201526064016102db565b60408051466020808301919091523360601b6bffffffffffffffffffffffff19168284015260548083018b9052835180840390910181526074830184528051908201207f19457468657265756d205369676e6564204d6573736167653a0a333200000000609484015260b0808401919091528351808403909101815260d090920190925280519101207f00000000000000000000000000000000000000000000000000000000000000006001600160a01b0316637df73e276109fe8386868080601f0160208091040260200160405190810160405280939291908181526020018383808284376000920191909152506110ca92505050565b6040517fffffffff0000000000000000000000000000000000000000000000000000000060e084901b1681526001600160a01b03909116600482015260240160206040518083038186803b158015610a5557600080fd5b505afa158015610a69573d6000803e3d6000fd5b505050506040513d601f19601f82011682018060405250810190610a8d9190611867565b610ad95760405162461bcd60e51b815260206004820152601b60248201527f44414f41697264726f703a20696e76616c6964207369676e65722e000000000060448201526064016102db565b6001600160a01b038716610b3b57853414610b365760405162461bcd60e51b815260206004820152601b60248201527f44414f41697264726f703a20696e76616c696420616d6f756e742e000000000060448201526064016102db565b610b50565b610b506001600160a01b038816333089610e7a565b6040518060e00160405280886001600160a01b03168152602001878152602001600081526020016000801b8152602001868152602001858152602001336001600160a01b03168152506000808a815260200190815260200160002060008201518160000160006101000a8154816001600160a01b0302191690836001600160a01b031602179055506020820151816001015560408201518160020155606082015181600301556080820151816004015560a0820151816005015560c08201518160060160006101000a8154816001600160a01b0302191690836001600160a01b0316021790555090505087336001600160a01b03167f2e1bf721ffa923c1fa20b2910f1a8664cd59b7347a9b702b2b9cac39ccc382d689898989604051610c9b94939291906001600160a01b0394909416845260208401929092526040830152606082015260800190565b60405180910390a35050505050505050565b60008181526020818152604091829020825160e08101845281546001600160a01b0390811682526001830154938201939093526002820154938101939093526003810154606084015260048101546080840152600581015460a0840152600601541660c082018190523314610d645760405162461bcd60e51b815260206004820152601c60248201527f44414f41697264726f703a206e6f74207468652063726561746f722e0000000060448201526064016102db565b8060a001514211610db75760405162461bcd60e51b815260206004820152601f60248201527f44414f41697264726f703a2063616e6e6f742072656379636c65207965742e0060448201526064016102db565b8060400151816020015111610e0e5760405162461bcd60e51b815260206004820152601860248201527f44414f41697264726f703a20636c61696d6564206f75742e000000000000000060448201526064016102db565b600081604001518260200151610e249190611838565b60208084015160008681529182905260409091206002015582519091506001600160a01b0316610e5d57610e583382610f81565b505050565b60c08201518251610e58916001600160a01b03909116908361109a565b6040516001600160a01b0380851660248301528316604482015260648101829052610f129085906323b872dd60e01b906084015b60408051601f198184030181529190526020810180517bffffffffffffffffffffffffffffffffffffffffffffffffffffffff167fffffffff00000000000000000000000000000000000000000000000000000000909316929092179091526110ee565b50505050565b600082610f2585846111d3565b14949350505050565b60008381526001602081815260408084206001600160a01b03871685528252808420805460ff191690931790925585835282905281206002018054839290610f7790849061184f565b9091555050505050565b80471015610fd15760405162461bcd60e51b815260206004820152601d60248201527f416464726573733a20696e73756666696369656e742062616c616e636500000060448201526064016102db565b6000826001600160a01b03168260405160006040518083038185875af1925050503d806000811461101e576040519150601f19603f3d011682016040523d82523d6000602084013e611023565b606091505b5050905080610e585760405162461bcd60e51b815260206004820152603a60248201527f416464726573733a20756e61626c6520746f2073656e642076616c75652c207260448201527f6563697069656e74206d6179206861766520726576657274656400000000000060648201526084016102db565b6040516001600160a01b038316602482015260448101829052610e5890849063a9059cbb60e01b90606401610eae565b60008060006110d98585611218565b915091506110e68161125e565b509392505050565b6000611143826040518060400160405280602081526020017f5361666545524332303a206c6f772d6c6576656c2063616c6c206661696c6564815250856001600160a01b03166113af9092919063ffffffff16565b805190915015610e5857808060200190518101906111619190611867565b610e585760405162461bcd60e51b815260206004820152602a60248201527f5361666545524332303a204552433230206f7065726174696f6e20646964206e60448201527f6f7420737563636565640000000000000000000000000000000000000000000060648201526084016102db565b600081815b84518110156110e657611204828683815181106111f7576111f7611889565b60200260200101516113c6565b9150806112108161189f565b9150506111d8565b60008082516041141561124f5760208301516040840151606085015160001a611243878285856113f8565b94509450505050611257565b506000905060025b9250929050565b6000816004811115611272576112726118ba565b141561127b5750565b600181600481111561128f5761128f6118ba565b14156112dd5760405162461bcd60e51b815260206004820152601860248201527f45434453413a20696e76616c6964207369676e6174757265000000000000000060448201526064016102db565b60028160048111156112f1576112f16118ba565b141561133f5760405162461bcd60e51b815260206004820152601f60248201527f45434453413a20696e76616c6964207369676e6174757265206c656e6774680060448201526064016102db565b6003816004811115611353576113536118ba565b14156113ac5760405162461bcd60e51b815260206004820152602260248201527f45434453413a20696e76616c6964207369676e6174757265202773272076616c604482015261756560f01b60648201526084016102db565b50565b60606113be84846000856114bc565b949350505050565b60008183106113e25760008281526020849052604090206113f1565b60008381526020839052604090205b9392505050565b6000807f7fffffffffffffffffffffffffffffff5d576e7357a4501ddfe92f46681b20a083111561142f57506000905060036114b3565b6040805160008082526020820180845289905260ff881692820192909252606081018690526080810185905260019060a0016020604051602081039080840390855afa158015611483573d6000803e3d6000fd5b5050604051601f1901519150506001600160a01b0381166114ac576000600192509250506114b3565b9150600090505b94509492505050565b6060824710156115345760405162461bcd60e51b815260206004820152602660248201527f416464726573733a20696e73756666696369656e742062616c616e636520666f60448201527f722063616c6c000000000000000000000000000000000000000000000000000060648201526084016102db565b600080866001600160a01b0316858760405161155091906118fc565b60006040518083038185875af1925050503d806000811461158d576040519150601f19603f3d011682016040523d82523d6000602084013e611592565b606091505b50915091506115a3878383876115ae565b979650505050505050565b6060831561161a578251611613576001600160a01b0385163b6116135760405162461bcd60e51b815260206004820152601d60248201527f416464726573733a2063616c6c20746f206e6f6e2d636f6e747261637400000060448201526064016102db565b50816113be565b6113be838381511561162f5781518083602001fd5b8060405162461bcd60e51b81526004016102db9190611918565b60008060006060848603121561165e57600080fd5b505081359360208301359350604090920135919050565b80356001600160a01b038116811461168c57600080fd5b919050565b60008060008060008060a087890312156116aa57600080fd5b86359550602087013594506116c160408801611675565b935060608701359250608087013567ffffffffffffffff808211156116e557600080fd5b818901915089601f8301126116f957600080fd5b81358181111561170857600080fd5b8a60208260051b850101111561171d57600080fd5b6020830194508093505050509295509295509295565b60006020828403121561174557600080fd5b5035919050565b6000806040838503121561175f57600080fd5b8235915061176f60208401611675565b90509250929050565b600080600080600080600060c0888a03121561179357600080fd5b873596506117a360208901611675565b955060408801359450606088013593506080880135925060a088013567ffffffffffffffff808211156117d557600080fd5b818a0191508a601f8301126117e957600080fd5b8135818111156117f857600080fd5b8b602082850101111561180a57600080fd5b60208301945080935050505092959891949750929550565b634e487b7160e01b600052601160045260246000fd5b60008282101561184a5761184a611822565b500390565b6000821982111561186257611862611822565b500190565b60006020828403121561187957600080fd5b815180151581146113f157600080fd5b634e487b7160e01b600052603260045260246000fd5b60006000198214156118b3576118b3611822565b5060010190565b634e487b7160e01b600052602160045260246000fd5b60005b838110156118eb5781810151838201526020016118d3565b83811115610f125750506000910152565b6000825161190e8184602087016118d0565b9190910192915050565b60208152600082518060208401526119378160408501602087016118d0565b601f01601f1916919091016040019291505056fea26469706673582212203b5d2051c029cdc16cba62432dcea23270ddb991ef423f5160f5d0eeb2c158fa64736f6c63430008090033",
  "devdoc": {
    "kind": "dev",
    "methods": {},
    "version": 1
  },
  "userdoc": {
    "kind": "user",
    "methods": {},
    "version": 1
  },
  "storageLayout": {
    "storage": [
      {
        "astId": 4350,
        "contract": "contracts/DAOAirdrop.sol:DAOAirdrop",
        "label": "airdrops",
        "offset": 0,
        "slot": "0",
        "type": "t_mapping(t_uint256,t_struct(Airdrop)4381_storage)"
      },
      {
        "astId": 4356,
        "contract": "contracts/DAOAirdrop.sol:DAOAirdrop",
        "label": "claimedMap",
        "offset": 0,
        "slot": "1",
        "type": "t_mapping(t_uint256,t_mapping(t_address,t_bool))"
      }
    ],
    "types": {
      "t_address": {
        "encoding": "inplace",
        "label": "address",
        "numberOfBytes": "20"
      },
      "t_bool": {
        "encoding": "inplace",
        "label": "bool",
        "numberOfBytes": "1"
      },
      "t_bytes32": {
        "encoding": "inplace",
        "label": "bytes32",
        "numberOfBytes": "32"
      },
      "t_mapping(t_address,t_bool)": {
        "encoding": "mapping",
        "key": "t_address",
        "label": "mapping(address => bool)",
        "numberOfBytes": "32",
        "value": "t_bool"
      },
      "t_mapping(t_uint256,t_mapping(t_address,t_bool))": {
        "encoding": "mapping",
        "key": "t_uint256",
        "label": "mapping(uint256 => mapping(address => bool))",
        "numberOfBytes": "32",
        "value": "t_mapping(t_address,t_bool)"
      },
      "t_mapping(t_uint256,t_struct(Airdrop)4381_storage)": {
        "encoding": "mapping",
        "key": "t_uint256",
        "label": "mapping(uint256 => struct DAOAirdrop.Airdrop)",
        "numberOfBytes": "32",
        "value": "t_struct(Airdrop)4381_storage"
      },
      "t_struct(Airdrop)4381_storage": {
        "encoding": "inplace",
        "label": "struct DAOAirdrop.Airdrop",
        "members": [
          {
            "astId": 4368,
            "contract": "contracts/DAOAirdrop.sol:DAOAirdrop",
            "label": "token",
            "offset": 0,
            "slot": "0",
            "type": "t_address"
          },
          {
            "astId": 4370,
            "contract": "contracts/DAOAirdrop.sol:DAOAirdrop",
            "label": "tokenStaked",
            "offset": 0,
            "slot": "1",
            "type": "t_uint256"
          },
          {
            "astId": 4372,
            "contract": "contracts/DAOAirdrop.sol:DAOAirdrop",
            "label": "tokenClaimed",
            "offset": 0,
            "slot": "2",
            "type": "t_uint256"
          },
          {
            "astId": 4374,
            "contract": "contracts/DAOAirdrop.sol:DAOAirdrop",
            "label": "merkleRoot",
            "offset": 0,
            "slot": "3",
            "type": "t_bytes32"
          },
          {
            "astId": 4376,
            "contract": "contracts/DAOAirdrop.sol:DAOAirdrop",
            "label": "startTime",
            "offset": 0,
            "slot": "4",
            "type": "t_uint256"
          },
          {
            "astId": 4378,
            "contract": "contracts/DAOAirdrop.sol:DAOAirdrop",
            "label": "endTime",
            "offset": 0,
            "slot": "5",
            "type": "t_uint256"
          },
          {
            "astId": 4380,
            "contract": "contracts/DAOAirdrop.sol:DAOAirdrop",
            "label": "creator",
            "offset": 0,
            "slot": "6",
            "type": "t_address"
          }
        ],
        "numberOfBytes": "224"
      },
      "t_uint256": {
        "encoding": "inplace",
        "label": "uint256",
        "numberOfBytes": "32"
      }
    }
  }
}