{
  "address": "0x6c97E74fE79C7e325761110f29261d0b75Ed37CA",
  "abi": [
    {
      "inputs": [
        {
          "internalType": "address",
          "name": "_daoFactory",
          "type": "address"
        }
      ],
      "stateMutability": "nonpayable",
      "type": "constructor"
    },
    {
      "anonymous": false,
      "inputs": [
        {
          "indexed": true,
          "internalType": "uint256",
          "name": "id",
          "type": "uint256"
        },
        {
          "indexed": false,
          "internalType": "address",
          "name": "sbtAddress",
          "type": "address"
        }
      ],
      "name": "Deployed",
      "type": "event"
    },
    {
      "anonymous": false,
      "inputs": [
        {
          "indexed": false,
          "internalType": "uint8",
          "name": "version",
          "type": "uint8"
        }
      ],
      "name": "Initialized",
      "type": "event"
    },
    {
      "anonymous": false,
      "inputs": [
        {
          "indexed": true,
          "internalType": "uint256",
          "name": "id",
          "type": "uint256"
        },
        {
          "indexed": true,
          "internalType": "address",
          "name": "account",
          "type": "address"
        },
        {
          "indexed": false,
          "internalType": "uint256",
          "name": "tokenId",
          "type": "uint256"
        }
      ],
      "name": "Minted",
      "type": "event"
    },
    {
      "anonymous": false,
      "inputs": [
        {
          "indexed": true,
          "internalType": "address",
          "name": "previousOwner",
          "type": "address"
        },
        {
          "indexed": true,
          "internalType": "address",
          "name": "newOwner",
          "type": "address"
        }
      ],
      "name": "OwnershipTransferred",
      "type": "event"
    },
    {
      "inputs": [
        {
          "internalType": "uint256",
          "name": "_id",
          "type": "uint256"
        },
        {
          "internalType": "string",
          "name": "_name",
          "type": "string"
        },
        {
          "internalType": "string",
          "name": "_symbol",
          "type": "string"
        },
        {
          "internalType": "string",
          "name": "_baseTokenURI",
          "type": "string"
        },
        {
          "internalType": "bytes",
          "name": "_signature",
          "type": "bytes"
        }
      ],
      "name": "createSBT",
      "outputs": [],
      "stateMutability": "nonpayable",
      "type": "function"
    },
    {
      "inputs": [],
      "name": "daoFactory",
      "outputs": [
        {
          "internalType": "address",
          "name": "",
          "type": "address"
        }
      ],
      "stateMutability": "view",
      "type": "function"
    },
    {
      "inputs": [
        {
          "internalType": "uint256",
          "name": "",
          "type": "uint256"
        }
      ],
      "name": "deployedAddress",
      "outputs": [
        {
          "internalType": "address",
          "name": "",
          "type": "address"
        }
      ],
      "stateMutability": "view",
      "type": "function"
    },
    {
      "inputs": [],
      "name": "initialize",
      "outputs": [],
      "stateMutability": "nonpayable",
      "type": "function"
    },
    {
      "inputs": [
        {
          "internalType": "uint256",
          "name": "_id",
          "type": "uint256"
        },
        {
          "internalType": "bytes",
          "name": "_signature",
          "type": "bytes"
        }
      ],
      "name": "mintSBT",
      "outputs": [],
      "stateMutability": "nonpayable",
      "type": "function"
    },
    {
      "inputs": [
        {
          "internalType": "address",
          "name": "",
          "type": "address"
        },
        {
          "internalType": "uint256",
          "name": "",
          "type": "uint256"
        }
      ],
      "name": "minted",
      "outputs": [
        {
          "internalType": "bool",
          "name": "",
          "type": "bool"
        }
      ],
      "stateMutability": "view",
      "type": "function"
    },
    {
      "inputs": [],
      "name": "owner",
      "outputs": [
        {
          "internalType": "address",
          "name": "",
          "type": "address"
        }
      ],
      "stateMutability": "view",
      "type": "function"
    },
    {
      "inputs": [],
      "name": "renounceOwnership",
      "outputs": [],
      "stateMutability": "nonpayable",
      "type": "function"
    },
    {
      "inputs": [
        {
          "internalType": "address",
          "name": "newOwner",
          "type": "address"
        }
      ],
      "name": "transferOwnership",
      "outputs": [],
      "stateMutability": "nonpayable",
      "type": "function"
    }
  ],
  "transactionHash": "0x40e437102d3c96798a3f39b9020531663a149a19a661a3ca7b39670b36b33575",
  "args": [
    "0x626f936D28D758c9566d3EBC3A79491C23EB1015"
  ],
  "solcInputHash": "d4dbbdf3d7055d52683b8f268550c5ad",
  "bytecode": "0x60a060405234801561001057600080fd5b5060405161313238038061313283398101604081905261002f91610040565b6001600160a01b0316608052610070565b60006020828403121561005257600080fd5b81516001600160a01b038116811461006957600080fd5b9392505050565b60805161309961009960003960008181610104015281816104f701526107a601526130996000f3fe60806040523480156200001157600080fd5b5060043610620000b05760003560e01c80638da5cb5b116200007f578063a8ee24d81162000062578063a8ee24d81462000165578063b7656808146200017c578063f2fde38b14620001be57600080fd5b80638da5cb5b146200013c5780639215792c146200014e57600080fd5b80631908bc9a14620000b557806348f7f2a314620000fe578063715018a614620001265780638129fc1c1462000132575b600080fd5b620000e1620000c636600462000e09565b6066602052600090815260409020546001600160a01b031681565b6040516001600160a01b0390911681526020015b60405180910390f35b620000e17f000000000000000000000000000000000000000000000000000000000000000081565b62000130620001d5565b005b62000130620001ed565b6033546001600160a01b0316620000e1565b620001306200015f36600462000e68565b6200031a565b620001306200017636600462000f63565b620006b2565b620001ad6200018d3660046200104a565b606560209081526000928352604080842090915290825290205460ff1681565b6040519015158152602001620000f5565b62000130620001cf36600462001077565b62000922565b620001df620009b5565b620001eb600062000a11565b565b600054610100900460ff16158080156200020e5750600054600160ff909116105b806200022a5750303b1580156200022a575060005460ff166001145b620002a25760405162461bcd60e51b815260206004820152602e60248201527f496e697469616c697a61626c653a20636f6e747261637420697320616c72656160448201527f647920696e697469616c697a656400000000000000000000000000000000000060648201526084015b60405180910390fd5b6000805460ff191660011790558015620002c6576000805461ff0019166101001790555b620002d062000a70565b801562000317576000805461ff0019169055604051600181527f7f26b83ff96e1f2b6a682f133852f6798a09c465da95921460cefb38474024989060200160405180910390a15b50565b6000838152606660205260409020546001600160a01b0316620003805760405162461bcd60e51b815260206004820152600b60248201527f696e76616c69642069642e000000000000000000000000000000000000000000604482015260640162000299565b33600090815260656020908152604080832086845290915290205460ff1615620003ed5760405162461bcd60e51b815260206004820152600f60248201527f616c7265616479206d696e7465642e0000000000000000000000000000000000604482015260640162000299565b604080516020810185905246918101919091526bffffffffffffffffffffffff1930606090811b82168184015233901b1660748201526000906200048f906088015b60408051601f1981840301815282825280516020918201207f19457468657265756d205369676e6564204d6573736167653a0a33320000000084830152603c8085019190915282518085039091018152605c909301909152815191012090565b90506000620004d58285858080601f01602080910402602001604051908101604052809392919081815260200183838082843760009201919091525062000ae792505050565b604051637df73e2760e01b81526001600160a01b0380831660048301529192507f000000000000000000000000000000000000000000000000000000000000000090911690637df73e279060240160206040518083038186803b1580156200053c57600080fd5b505afa15801562000551573d6000803e3d6000fd5b505050506040513d601f19601f820116820180604052508101906200057791906200109c565b620005b75760405162461bcd60e51b815260206004820152600f60248201526e34b73b30b634b21039b4b3b732b91760891b604482015260640162000299565b6000858152606660205260408082205490516335313c2160e11b81523360048201526001600160a01b0390911690636a62784290602401602060405180830381600087803b1580156200060957600080fd5b505af11580156200061e573d6000803e3d6000fd5b505050506040513d601f19601f82011682018060405250810190620006449190620010c0565b3360008181526065602090815260408083208b845290915290819020805460ff19166001179055519192509087907fc9d0543a84d3510329c0783b91576878ceb484e8699944cb5610c3436b3b8e3990620006a29085815260200190565b60405180910390a3505050505050565b6000868152606660205260409020546001600160a01b031615620007195760405162461bcd60e51b815260206004820152601160248201527f616c7265646179206465706c6f7965642e000000000000000000000000000000604482015260640162000299565b60006200073e3346308a8a8a8a6040516020016200042f97969594939291906200110d565b90506000620007848285858080601f01602080910402602001604051908101604052809392919081815260200183838082843760009201919091525062000ae792505050565b604051637df73e2760e01b81526001600160a01b0380831660048301529192507f000000000000000000000000000000000000000000000000000000000000000090911690637df73e279060240160206040518083038186803b158015620007eb57600080fd5b505afa15801562000800573d6000803e3d6000fd5b505050506040513d601f19601f820116820180604052508101906200082691906200109c565b620008665760405162461bcd60e51b815260206004820152600f60248201526e34b73b30b634b21039b4b3b732b91760891b604482015260640162000299565b6000878787306040516200087a9062000dfb565b620008899493929190620011c2565b604051809103906000f080158015620008a6573d6000803e3d6000fd5b5060008a815260666020908152604091829020805473ffffffffffffffffffffffffffffffffffffffff19166001600160a01b03851690811790915591519182529192508a917f3305d4d3ab19e5db9b298d307fd2ed70aa0b3a8cc77814f50b75998296755595910160405180910390a2505050505050505050565b6200092c620009b5565b6001600160a01b038116620009aa5760405162461bcd60e51b815260206004820152602660248201527f4f776e61626c653a206e6577206f776e657220697320746865207a65726f206160448201527f6464726573730000000000000000000000000000000000000000000000000000606482015260840162000299565b620003178162000a11565b6033546001600160a01b03163314620001eb5760405162461bcd60e51b815260206004820181905260248201527f4f776e61626c653a2063616c6c6572206973206e6f7420746865206f776e6572604482015260640162000299565b603380546001600160a01b0383811673ffffffffffffffffffffffffffffffffffffffff19831681179093556040519116919082907f8be0079c531659141344cd1fd0a4f28419497f9722a3daafe3b4186f6b6457e090600090a35050565b600054610100900460ff1662000add5760405162461bcd60e51b815260206004820152602b60248201527f496e697469616c697a61626c653a20636f6e7472616374206973206e6f74206960448201526a6e697469616c697a696e6760a81b606482015260840162000299565b620001eb62000b0f565b600080600062000af8858562000b87565b9150915062000b078162000bd1565b509392505050565b600054610100900460ff1662000b7c5760405162461bcd60e51b815260206004820152602b60248201527f496e697469616c697a61626c653a20636f6e7472616374206973206e6f74206960448201526a6e697469616c697a696e6760a81b606482015260840162000299565b620001eb3362000a11565b60008082516041141562000bc25760208301516040840151606085015160001a62000bb58782858562000d32565b9450945050505062000bca565b506000905060025b9250929050565b600081600481111562000be85762000be86200121c565b141562000bf25750565b600181600481111562000c095762000c096200121c565b141562000c595760405162461bcd60e51b815260206004820152601860248201527f45434453413a20696e76616c6964207369676e61747572650000000000000000604482015260640162000299565b600281600481111562000c705762000c706200121c565b141562000cc05760405162461bcd60e51b815260206004820152601f60248201527f45434453413a20696e76616c6964207369676e6174757265206c656e67746800604482015260640162000299565b600381600481111562000cd75762000cd76200121c565b1415620003175760405162461bcd60e51b815260206004820152602260248201527f45434453413a20696e76616c6964207369676e6174757265202773272076616c604482015261756560f01b606482015260840162000299565b6000807f7fffffffffffffffffffffffffffffff5d576e7357a4501ddfe92f46681b20a083111562000d6b575060009050600362000df2565b6040805160008082526020820180845289905260ff881692820192909252606081018690526080810185905260019060a0016020604051602081039080840390855afa15801562000dc0573d6000803e3d6000fd5b5050604051601f1901519150506001600160a01b03811662000deb5760006001925092505062000df2565b9150600090505b94509492505050565b611e31806200123383390190565b60006020828403121562000e1c57600080fd5b5035919050565b60008083601f84011262000e3657600080fd5b50813567ffffffffffffffff81111562000e4f57600080fd5b60208301915083602082850101111562000bca57600080fd5b60008060006040848603121562000e7e57600080fd5b83359250602084013567ffffffffffffffff81111562000e9d57600080fd5b62000eab8682870162000e23565b9497909650939450505050565b634e487b7160e01b600052604160045260246000fd5b600082601f83011262000ee057600080fd5b813567ffffffffffffffff8082111562000efe5762000efe62000eb8565b604051601f8301601f19908116603f0116810190828211818310171562000f295762000f2962000eb8565b8160405283815286602085880101111562000f4357600080fd5b836020870160208301376000602085830101528094505050505092915050565b60008060008060008060a0878903121562000f7d57600080fd5b86359550602087013567ffffffffffffffff8082111562000f9d57600080fd5b62000fab8a838b0162000ece565b9650604089013591508082111562000fc257600080fd5b62000fd08a838b0162000ece565b9550606089013591508082111562000fe757600080fd5b62000ff58a838b0162000ece565b945060808901359150808211156200100c57600080fd5b506200101b89828a0162000e23565b979a9699509497509295939492505050565b80356001600160a01b03811681146200104557600080fd5b919050565b600080604083850312156200105e57600080fd5b62001069836200102d565b946020939093013593505050565b6000602082840312156200108a57600080fd5b62001095826200102d565b9392505050565b600060208284031215620010af57600080fd5b815180151581146200109557600080fd5b600060208284031215620010d357600080fd5b5051919050565b60005b83811015620010f7578181015183820152602001620010dd565b8381111562001107576000848401525b50505050565b60006bffffffffffffffffffffffff19808a60601b168352886014840152808860601b16603484015250856048830152845162001152816068850160208901620010da565b8451908301906200116b816068840160208901620010da565b845191019062001183816068840160208801620010da565b016068019998505050505050505050565b60008151808452620011ae816020860160208601620010da565b601f01601f19169290920160200192915050565b608081526000620011d7608083018762001194565b8281036020840152620011eb818762001194565b9050828103604084015262001201818662001194565b9150506001600160a01b038316606083015295945050505050565b634e487b7160e01b600052602160045260246000fdfe60a06040523480156200001157600080fd5b5060405162001e3138038062001e31833981016040819052620000349162000205565b8351849084906200004d90600090602085019062000092565b5080516200006390600190602084019062000092565b505082516200007b9150600a90602085019062000092565b506001600160a01b031660805250620002f5915050565b828054620000a090620002b8565b90600052602060002090601f016020900481019282620000c457600085556200010f565b82601f10620000df57805160ff19168380011785556200010f565b828001600101855582156200010f579182015b828111156200010f578251825591602001919060010190620000f2565b506200011d92915062000121565b5090565b5b808211156200011d576000815560010162000122565b634e487b7160e01b600052604160045260246000fd5b600082601f8301126200016057600080fd5b81516001600160401b03808211156200017d576200017d62000138565b604051601f8301601f19908116603f01168101908282118183101715620001a857620001a862000138565b81604052838152602092508683858801011115620001c557600080fd5b600091505b83821015620001e95785820183015181830184015290820190620001ca565b83821115620001fb5760008385830101525b9695505050505050565b600080600080608085870312156200021c57600080fd5b84516001600160401b03808211156200023457600080fd5b62000242888389016200014e565b955060208701519150808211156200025957600080fd5b62000267888389016200014e565b945060408701519150808211156200027e57600080fd5b506200028d878288016200014e565b606087015190935090506001600160a01b0381168114620002ad57600080fd5b939692955090935050565b600181811c90821680620002cd57607f821691505b60208210811415620002ef57634e487b7160e01b600052602260045260246000fd5b50919050565b608051611b19620003186000396000818161029e015261078c0152611b196000f3fe608060405234801561001057600080fd5b506004361061016b5760003560e01c80636352211e116100cd578063a22cb46511610081578063c87b56dd11610066578063c87b56dd146102e6578063d547cfb7146102f9578063e985e9c51461030157600080fd5b8063a22cb465146102c0578063b88d4fde146102d357600080fd5b806370a08231116100b257806370a082311461027e57806395d89b411461029157806397fb22541461029957600080fd5b80636352211e146102585780636a6278421461026b57600080fd5b806318160ddd116101245780632f745c59116101095780632f745c591461021f57806342842e0e146102325780634f6ccce71461024557600080fd5b806318160ddd1461020457806323b872dd1461020c57600080fd5b806306fdde031161015557806306fdde03146101af578063081812fc146101c4578063095ea7b3146101ef57600080fd5b80629a9b7b1461017057806301ffc9a71461018c575b600080fd5b610179600b5481565b6040519081526020015b60405180910390f35b61019f61019a36600461170d565b61033d565b6040519015158152602001610183565b6101b7610368565b6040516101839190611782565b6101d76101d2366004611795565b6103fa565b6040516001600160a01b039091168152602001610183565b6102026101fd3660046117ca565b610421565b005b600854610179565b61020261021a3660046117f4565b61053c565b61017961022d3660046117ca565b6105b3565b6102026102403660046117f4565b61065b565b610179610253366004611795565b610676565b6101d7610266366004611795565b61071a565b610179610279366004611830565b61077f565b61017961028c366004611830565b6107d7565b6101b7610871565b6101d77f000000000000000000000000000000000000000000000000000000000000000081565b6102026102ce36600461184b565b610880565b6102026102e136600461189d565b61088f565b6101b76102f4366004611795565b61090d565b6101b7610974565b61019f61030f366004611979565b6001600160a01b03918216600090815260056020908152604080832093909416825291909152205460ff1690565b60006001600160e01b0319821663780e9d6360e01b1480610362575061036282610a02565b92915050565b606060008054610377906119ac565b80601f01602080910402602001604051908101604052809291908181526020018280546103a3906119ac565b80156103f05780601f106103c5576101008083540402835291602001916103f0565b820191906000526020600020905b8154815290600101906020018083116103d357829003601f168201915b5050505050905090565b600061040582610a52565b506000908152600460205260409020546001600160a01b031690565b600061042c8261071a565b9050806001600160a01b0316836001600160a01b0316141561049f5760405162461bcd60e51b815260206004820152602160248201527f4552433732313a20617070726f76616c20746f2063757272656e74206f776e656044820152603960f91b60648201526084015b60405180910390fd5b336001600160a01b03821614806104bb57506104bb813361030f565b61052d5760405162461bcd60e51b815260206004820152603d60248201527f4552433732313a20617070726f76652063616c6c6572206973206e6f7420746f60448201527f6b656e206f776e6572206f7220617070726f76656420666f7220616c6c0000006064820152608401610496565b6105378383610ab9565b505050565b6105463382610b34565b6105a85760405162461bcd60e51b815260206004820152602d60248201527f4552433732313a2063616c6c6572206973206e6f7420746f6b656e206f776e6560448201526c1c881bdc88185c1c1c9bdd9959609a1b6064820152608401610496565b610537838383610bb3565b60006105be836107d7565b82106106325760405162461bcd60e51b815260206004820152602b60248201527f455243373231456e756d657261626c653a206f776e657220696e646578206f7560448201527f74206f6620626f756e64730000000000000000000000000000000000000000006064820152608401610496565b506001600160a01b03919091166000908152600660209081526040808320938352929052205490565b6105378383836040518060200160405280600081525061088f565b600061068160085490565b82106106f55760405162461bcd60e51b815260206004820152602c60248201527f455243373231456e756d657261626c653a20676c6f62616c20696e646578206f60448201527f7574206f6620626f756e647300000000000000000000000000000000000000006064820152608401610496565b60088281548110610708576107086119e7565b90600052602060002001549050919050565b6000818152600260205260408120546001600160a01b0316806103625760405162461bcd60e51b815260206004820152601860248201527f4552433732313a20696e76616c696420746f6b656e20494400000000000000006044820152606401610496565b6000336001600160a01b037f000000000000000000000000000000000000000000000000000000000000000016146107b657600080fd5b600b8054600091826107c783611a13565b9190505590506103628382610dad565b60006001600160a01b0382166108555760405162461bcd60e51b815260206004820152602960248201527f4552433732313a2061646472657373207a65726f206973206e6f74206120766160448201527f6c6964206f776e657200000000000000000000000000000000000000000000006064820152608401610496565b506001600160a01b031660009081526003602052604090205490565b606060018054610377906119ac565b61088b338383610dc7565b5050565b6108993383610b34565b6108fb5760405162461bcd60e51b815260206004820152602d60248201527f4552433732313a2063616c6c6572206973206e6f7420746f6b656e206f776e6560448201526c1c881bdc88185c1c1c9bdd9959609a1b6064820152608401610496565b61090784848484610e96565b50505050565b606061091882610a52565b6000610922610f14565b90506000815111610942576040518060200160405280600081525061096d565b8061094c84610f23565b60405160200161095d929190611a2e565b6040516020818303038152906040525b9392505050565b600a8054610981906119ac565b80601f01602080910402602001604051908101604052809291908181526020018280546109ad906119ac565b80156109fa5780601f106109cf576101008083540402835291602001916109fa565b820191906000526020600020905b8154815290600101906020018083116109dd57829003601f168201915b505050505081565b60006001600160e01b031982166380ac58cd60e01b1480610a3357506001600160e01b03198216635b5e139f60e01b145b8061036257506301ffc9a760e01b6001600160e01b0319831614610362565b6000818152600260205260409020546001600160a01b0316610ab65760405162461bcd60e51b815260206004820152601860248201527f4552433732313a20696e76616c696420746f6b656e20494400000000000000006044820152606401610496565b50565b6000818152600460205260409020805473ffffffffffffffffffffffffffffffffffffffff19166001600160a01b0384169081179091558190610afb8261071a565b6001600160a01b03167f8c5be1e5ebec7d5bd14f71427d1e84f3dd0314c0f7b2291e5b200ac8c7c3b92560405160405180910390a45050565b600080610b408361071a565b9050806001600160a01b0316846001600160a01b03161480610b8757506001600160a01b0380821660009081526005602090815260408083209388168352929052205460ff165b80610bab5750836001600160a01b0316610ba0846103fa565b6001600160a01b0316145b949350505050565b826001600160a01b0316610bc68261071a565b6001600160a01b031614610c2a5760405162461bcd60e51b815260206004820152602560248201527f4552433732313a207472616e736665722066726f6d20696e636f72726563742060448201526437bbb732b960d91b6064820152608401610496565b6001600160a01b038216610c8c5760405162461bcd60e51b8152602060048201526024808201527f4552433732313a207472616e7366657220746f20746865207a65726f206164646044820152637265737360e01b6064820152608401610496565b610c998383836001610fcd565b826001600160a01b0316610cac8261071a565b6001600160a01b031614610d105760405162461bcd60e51b815260206004820152602560248201527f4552433732313a207472616e736665722066726f6d20696e636f72726563742060448201526437bbb732b960d91b6064820152608401610496565b6000818152600460209081526040808320805473ffffffffffffffffffffffffffffffffffffffff199081169091556001600160a01b0387811680865260038552838620805460001901905590871680865283862080546001019055868652600290945282852080549092168417909155905184937fddf252ad1be2c89b69c2b068fc378daa952ba7f163c4a11628f55a4df523b3ef91a4505050565b61088b828260405180602001604052806000815250611109565b816001600160a01b0316836001600160a01b03161415610e295760405162461bcd60e51b815260206004820152601960248201527f4552433732313a20617070726f766520746f2063616c6c6572000000000000006044820152606401610496565b6001600160a01b03838116600081815260056020908152604080832094871680845294825291829020805460ff191686151590811790915591519182527f17307eab39ab6107e8899845ad3d59bd9653f200f220920489ca2b5937696c31910160405180910390a3505050565b610ea1848484610bb3565b610ead84848484611187565b6109075760405162461bcd60e51b815260206004820152603260248201527f4552433732313a207472616e7366657220746f206e6f6e20455243373231526560448201527131b2b4bb32b91034b6b83632b6b2b73a32b960711b6064820152608401610496565b6060600a8054610377906119ac565b60606000610f30836112df565b600101905060008167ffffffffffffffff811115610f5057610f50611887565b6040519080825280601f01601f191660200182016040528015610f7a576020820181803683370190505b5090508181016020015b600019017f3031323334353637383961626364656600000000000000000000000000000000600a86061a8153600a8504945084610fc057610fc5565b610f84565b509392505050565b60018111156110445760405162461bcd60e51b815260206004820152603560248201527f455243373231456e756d657261626c653a20636f6e736563757469766520747260448201527f616e7366657273206e6f7420737570706f7274656400000000000000000000006064820152608401610496565b816001600160a01b0385166110a05761109b81600880546000838152600960205260408120829055600182018355919091527ff3f7a9fe364faab93b216da50a3214154f22a0a2b415b23a84c8169e8b636ee30155565b6110c3565b836001600160a01b0316856001600160a01b0316146110c3576110c385826113c1565b6001600160a01b0384166110df576110da8161145e565b611102565b846001600160a01b0316846001600160a01b03161461110257611102848261150d565b5050505050565b6111138383611551565b6111206000848484611187565b6105375760405162461bcd60e51b815260206004820152603260248201527f4552433732313a207472616e7366657220746f206e6f6e20455243373231526560448201527131b2b4bb32b91034b6b83632b6b2b73a32b960711b6064820152608401610496565b60006001600160a01b0384163b156112d457604051630a85bd0160e11b81526001600160a01b0385169063150b7a02906111cb903390899088908890600401611a5d565b602060405180830381600087803b1580156111e557600080fd5b505af1925050508015611215575060408051601f3d908101601f1916820190925261121291810190611a99565b60015b6112ba573d808015611243576040519150601f19603f3d011682016040523d82523d6000602084013e611248565b606091505b5080516112b25760405162461bcd60e51b815260206004820152603260248201527f4552433732313a207472616e7366657220746f206e6f6e20455243373231526560448201527131b2b4bb32b91034b6b83632b6b2b73a32b960711b6064820152608401610496565b805181602001fd5b6001600160e01b031916630a85bd0160e11b149050610bab565b506001949350505050565b6000807a184f03e93ff9f4daa797ed6e38ed64bf6a1f0100000000000000008310611328577a184f03e93ff9f4daa797ed6e38ed64bf6a1f010000000000000000830492506040015b6d04ee2d6d415b85acef81000000008310611354576d04ee2d6d415b85acef8100000000830492506020015b662386f26fc10000831061137257662386f26fc10000830492506010015b6305f5e100831061138a576305f5e100830492506008015b612710831061139e57612710830492506004015b606483106113b0576064830492506002015b600a83106103625760010192915050565b600060016113ce846107d7565b6113d89190611ab6565b60008381526007602052604090205490915080821461142b576001600160a01b03841660009081526006602090815260408083208584528252808320548484528184208190558352600790915290208190555b5060009182526007602090815260408084208490556001600160a01b039094168352600681528383209183525290812055565b60085460009061147090600190611ab6565b60008381526009602052604081205460088054939450909284908110611498576114986119e7565b9060005260206000200154905080600883815481106114b9576114b96119e7565b60009182526020808320909101929092558281526009909152604080822084905585825281205560088054806114f1576114f1611acd565b6001900381819060005260206000200160009055905550505050565b6000611518836107d7565b6001600160a01b039093166000908152600660209081526040808320868452825280832085905593825260079052919091209190915550565b6001600160a01b0382166115a75760405162461bcd60e51b815260206004820181905260248201527f4552433732313a206d696e7420746f20746865207a65726f20616464726573736044820152606401610496565b6000818152600260205260409020546001600160a01b03161561160c5760405162461bcd60e51b815260206004820152601c60248201527f4552433732313a20746f6b656e20616c7265616479206d696e746564000000006044820152606401610496565b61161a600083836001610fcd565b6000818152600260205260409020546001600160a01b03161561167f5760405162461bcd60e51b815260206004820152601c60248201527f4552433732313a20746f6b656e20616c7265616479206d696e746564000000006044820152606401610496565b6001600160a01b0382166000818152600360209081526040808320805460010190558483526002909152808220805473ffffffffffffffffffffffffffffffffffffffff19168417905551839291907fddf252ad1be2c89b69c2b068fc378daa952ba7f163c4a11628f55a4df523b3ef908290a45050565b6001600160e01b031981168114610ab657600080fd5b60006020828403121561171f57600080fd5b813561096d816116f7565b60005b8381101561174557818101518382015260200161172d565b838111156109075750506000910152565b6000815180845261176e81602086016020860161172a565b601f01601f19169290920160200192915050565b60208152600061096d6020830184611756565b6000602082840312156117a757600080fd5b5035919050565b80356001600160a01b03811681146117c557600080fd5b919050565b600080604083850312156117dd57600080fd5b6117e6836117ae565b946020939093013593505050565b60008060006060848603121561180957600080fd5b611812846117ae565b9250611820602085016117ae565b9150604084013590509250925092565b60006020828403121561184257600080fd5b61096d826117ae565b6000806040838503121561185e57600080fd5b611867836117ae565b91506020830135801515811461187c57600080fd5b809150509250929050565b634e487b7160e01b600052604160045260246000fd5b600080600080608085870312156118b357600080fd5b6118bc856117ae565b93506118ca602086016117ae565b925060408501359150606085013567ffffffffffffffff808211156118ee57600080fd5b818701915087601f83011261190257600080fd5b81358181111561191457611914611887565b604051601f8201601f19908116603f0116810190838211818310171561193c5761193c611887565b816040528281528a602084870101111561195557600080fd5b82602086016020830137600060208483010152809550505050505092959194509250565b6000806040838503121561198c57600080fd5b611995836117ae565b91506119a3602084016117ae565b90509250929050565b600181811c908216806119c057607f821691505b602082108114156119e157634e487b7160e01b600052602260045260246000fd5b50919050565b634e487b7160e01b600052603260045260246000fd5b634e487b7160e01b600052601160045260246000fd5b6000600019821415611a2757611a276119fd565b5060010190565b60008351611a4081846020880161172a565b835190830190611a5481836020880161172a565b01949350505050565b60006001600160a01b03808716835280861660208401525083604083015260806060830152611a8f6080830184611756565b9695505050505050565b600060208284031215611aab57600080fd5b815161096d816116f7565b600082821015611ac857611ac86119fd565b500390565b634e487b7160e01b600052603160045260246000fdfea2646970667358221220be95405be153f3e5fdc3f71afbd0e471dea7b6713f537e3d0f608d472f99f20364736f6c63430008090033a26469706673582212209af9beae85f44291a4a7b97a2beafaf59d0e422e7dc561a24fe9e8057b24188864736f6c63430008090033",
  "devdoc": {
    "kind": "dev",
    "methods": {
      "owner()": {
        "details": "Returns the address of the current owner."
      },
      "renounceOwnership()": {
        "details": "Leaves the contract without owner. It will not be possible to call `onlyOwner` functions anymore. Can only be called by the current owner. NOTE: Renouncing ownership will leave the contract without an owner, thereby removing any functionality that is only available to the owner."
      },
      "transferOwnership(address)": {
        "details": "Transfers ownership of the contract to a new account (`newOwner`). Can only be called by the current owner."
      }
    },
    "version": 1
  },
  "userdoc": {
    "kind": "user",
    "methods": {},
    "version": 1
  },
  "storageLayout": {
    "storage": [
      {
        "astId": 324,
        "contract": "contracts/SBTFactory.sol:SBTFactory",
        "label": "_initialized",
        "offset": 0,
        "slot": "0",
        "type": "t_uint8"
      },
      {
        "astId": 327,
        "contract": "contracts/SBTFactory.sol:SBTFactory",
        "label": "_initializing",
        "offset": 1,
        "slot": "0",
        "type": "t_bool"
      },
      {
        "astId": 1304,
        "contract": "contracts/SBTFactory.sol:SBTFactory",
        "label": "__gap",
        "offset": 0,
        "slot": "1",
        "type": "t_array(t_uint256)50_storage"
      },
      {
        "astId": 116,
        "contract": "contracts/SBTFactory.sol:SBTFactory",
        "label": "_owner",
        "offset": 0,
        "slot": "51",
        "type": "t_address"
      },
      {
        "astId": 236,
        "contract": "contracts/SBTFactory.sol:SBTFactory",
        "label": "__gap",
        "offset": 0,
        "slot": "52",
        "type": "t_array(t_uint256)49_storage"
      },
      {
        "astId": 13287,
        "contract": "contracts/SBTFactory.sol:SBTFactory",
        "label": "minted",
        "offset": 0,
        "slot": "101",
        "type": "t_mapping(t_address,t_mapping(t_uint256,t_bool))"
      },
      {
        "astId": 13291,
        "contract": "contracts/SBTFactory.sol:SBTFactory",
        "label": "deployedAddress",
        "offset": 0,
        "slot": "102",
        "type": "t_mapping(t_uint256,t_address)"
      }
    ],
    "types": {
      "t_address": {
        "encoding": "inplace",
        "label": "address",
        "numberOfBytes": "20"
      },
      "t_array(t_uint256)49_storage": {
        "base": "t_uint256",
        "encoding": "inplace",
        "label": "uint256[49]",
        "numberOfBytes": "1568"
      },
      "t_array(t_uint256)50_storage": {
        "base": "t_uint256",
        "encoding": "inplace",
        "label": "uint256[50]",
        "numberOfBytes": "1600"
      },
      "t_bool": {
        "encoding": "inplace",
        "label": "bool",
        "numberOfBytes": "1"
      },
      "t_mapping(t_address,t_mapping(t_uint256,t_bool))": {
        "encoding": "mapping",
        "key": "t_address",
        "label": "mapping(address => mapping(uint256 => bool))",
        "numberOfBytes": "32",
        "value": "t_mapping(t_uint256,t_bool)"
      },
      "t_mapping(t_uint256,t_address)": {
        "encoding": "mapping",
        "key": "t_uint256",
        "label": "mapping(uint256 => address)",
        "numberOfBytes": "32",
        "value": "t_address"
      },
      "t_mapping(t_uint256,t_bool)": {
        "encoding": "mapping",
        "key": "t_uint256",
        "label": "mapping(uint256 => bool)",
        "numberOfBytes": "32",
        "value": "t_bool"
      },
      "t_uint256": {
        "encoding": "inplace",
        "label": "uint256",
        "numberOfBytes": "32"
      },
      "t_uint8": {
        "encoding": "inplace",
        "label": "uint8",
        "numberOfBytes": "1"
      }
    }
  }
}