{
  "address": "0x21AD787Fb35d30293F6F9F83Ebf61Ab50f800275",
  "abi": [
    {
      "anonymous": false,
      "inputs": [
        {
          "indexed": true,
          "internalType": "uint256",
          "name": "proposalId",
          "type": "uint256"
        },
        {
          "indexed": false,
          "internalType": "uint256[]",
          "name": "optionId",
          "type": "uint256[]"
        },
        {
          "indexed": false,
          "internalType": "uint256[]",
          "name": "amount",
          "type": "uint256[]"
        }
      ],
      "name": "Voted",
      "type": "event"
    },
    {
      "inputs": [
        {
          "internalType": "uint256",
          "name": "proposalId",
          "type": "uint256"
        },
        {
          "internalType": "uint256[]",
          "name": "optionIds",
          "type": "uint256[]"
        },
        {
          "internalType": "uint256[]",
          "name": "amounts",
          "type": "uint256[]"
        }
      ],
      "name": "voting",
      "outputs": [],
      "stateMutability": "nonpayable",
      "type": "function"
    }
  ],
  "transactionHash": "0x18207f5bf60f69b573a00c261ddd615c5d1785de492b57fdd625727a0186c559",
  "args": [],
  "solcInputHash": "55a9cef71727918e93b7972fe49e0352",
  "bytecode": "0x608060405234801561001057600080fd5b50610207806100206000396000f3fe608060405234801561001057600080fd5b506004361061002b5760003560e01c80630adb68bd14610030575b600080fd5b61004361003e3660046100d6565b610045565b005b847f214d819b17f6553b7b3118fb66c8b57d1d0e27b9189a527a2f44a88c52798ce18585858560405161007b949392919061019f565b60405180910390a25050505050565b60008083601f84011261009c57600080fd5b50813567ffffffffffffffff8111156100b457600080fd5b6020830191508360208260051b85010111156100cf57600080fd5b9250929050565b6000806000806000606086880312156100ee57600080fd5b85359450602086013567ffffffffffffffff8082111561010d57600080fd5b61011989838a0161008a565b9096509450604088013591508082111561013257600080fd5b5061013f8882890161008a565b969995985093965092949392505050565b81835260007f07ffffffffffffffffffffffffffffffffffffffffffffffffffffffffffffff83111561018257600080fd5b8260051b8083602087013760009401602001938452509192915050565b6040815260006101b3604083018688610150565b82810360208401526101c6818587610150565b97965050505050505056fea26469706673582212205461d8c30a5d20f74bfa3aaad87ccc4f749e7aba43c9d269e23d4028343f680864736f6c63430008090033",
  "devdoc": {
    "kind": "dev",
    "methods": {},
    "version": 1
  },
  "userdoc": {
    "kind": "user",
    "methods": {},
    "version": 1
  },
  "storageLayout": {
    "storage": [],
    "types": null
  }
}