{
  "address": "0xAB88D0727fADEc689fc13e93971Cdcd9aF4Ef43c",
  "abi": [
    {
      "anonymous": false,
      "inputs": [
        {
          "indexed": true,
          "internalType": "address",
          "name": "admin",
          "type": "address"
        },
        {
          "indexed": false,
          "internalType": "bool",
          "name": "enable",
          "type": "bool"
        }
      ],
      "name": "Admin",
      "type": "event"
    },
    {
      "anonymous": false,
      "inputs": [
        {
          "indexed": true,
          "internalType": "uint256",
          "name": "proposalId",
          "type": "uint256"
        }
      ],
      "name": "CancelProposal",
      "type": "event"
    },
    {
      "anonymous": false,
      "inputs": [
        {
          "indexed": true,
          "internalType": "uint256",
          "name": "proposalId",
          "type": "uint256"
        },
        {
          "indexed": true,
          "internalType": "address",
          "name": "proposer",
          "type": "address"
        },
        {
          "indexed": false,
          "internalType": "uint256",
          "name": "startTime",
          "type": "uint256"
        },
        {
          "indexed": false,
          "internalType": "uint256",
          "name": "endTime",
          "type": "uint256"
        }
      ],
      "name": "CreateProposal",
      "type": "event"
    },
    {
      "anonymous": false,
      "inputs": [
        {
          "indexed": false,
          "internalType": "uint8",
          "name": "version",
          "type": "uint8"
        }
      ],
      "name": "Initialized",
      "type": "event"
    },
    {
      "anonymous": false,
      "inputs": [
        {
          "indexed": true,
          "internalType": "address",
          "name": "previousOwner",
          "type": "address"
        },
        {
          "indexed": true,
          "internalType": "address",
          "name": "newOwner",
          "type": "address"
        }
      ],
      "name": "OwnershipTransferred",
      "type": "event"
    },
    {
      "anonymous": false,
      "inputs": [
        {
          "indexed": true,
          "internalType": "uint256",
          "name": "settingType",
          "type": "uint256"
        }
      ],
      "name": "Setting",
      "type": "event"
    },
    {
      "anonymous": false,
      "inputs": [
        {
          "indexed": true,
          "internalType": "uint256",
          "name": "proposalId",
          "type": "uint256"
        },
        {
          "indexed": true,
          "internalType": "address",
          "name": "voter",
          "type": "address"
        },
        {
          "indexed": true,
          "internalType": "uint256",
          "name": "optionIndex",
          "type": "uint256"
        },
        {
          "indexed": false,
          "internalType": "uint256",
          "name": "amount",
          "type": "uint256"
        }
      ],
      "name": "Vote",
      "type": "event"
    },
    {
      "inputs": [],
      "name": "SETTING_TYPE_GENERAL",
      "outputs": [
        {
          "internalType": "uint256",
          "name": "",
          "type": "uint256"
        }
      ],
      "stateMutability": "view",
      "type": "function"
    },
    {
      "inputs": [],
      "name": "SETTING_TYPE_GOVERNANCE",
      "outputs": [
        {
          "internalType": "uint256",
          "name": "",
          "type": "uint256"
        }
      ],
      "stateMutability": "view",
      "type": "function"
    },
    {
      "inputs": [],
      "name": "SETTING_TYPE_TOKEN",
      "outputs": [
        {
          "internalType": "uint256",
          "name": "",
          "type": "uint256"
        }
      ],
      "stateMutability": "view",
      "type": "function"
    },
    {
      "inputs": [
        {
          "internalType": "address",
          "name": "",
          "type": "address"
        }
      ],
      "name": "admins",
      "outputs": [
        {
          "internalType": "bool",
          "name": "",
          "type": "bool"
        }
      ],
      "stateMutability": "view",
      "type": "function"
    },
    {
      "inputs": [
        {
          "internalType": "uint256",
          "name": "proposalId_",
          "type": "uint256"
        }
      ],
      "name": "cancelProposal",
      "outputs": [],
      "stateMutability": "nonpayable",
      "type": "function"
    },
    {
      "inputs": [
        {
          "components": [
            {
              "internalType": "string",
              "name": "title",
              "type": "string"
            },
            {
              "internalType": "string",
              "name": "introduction",
              "type": "string"
            },
            {
              "internalType": "string",
              "name": "content",
              "type": "string"
            },
            {
              "internalType": "uint256",
              "name": "startTime",
              "type": "uint256"
            },
            {
              "internalType": "uint256",
              "name": "endTime",
              "type": "uint256"
            },
            {
              "internalType": "enum IDAOBase.VotingType",
              "name": "votingType",
              "type": "uint8"
            }
          ],
          "internalType": "struct DAOBase.ProposalInput",
          "name": "input_",
          "type": "tuple"
        },
        {
          "internalType": "string[]",
          "name": "options_",
          "type": "string[]"
        },
        {
          "components": [
            {
              "internalType": "uint256",
              "name": "chainId",
              "type": "uint256"
            },
            {
              "internalType": "address",
              "name": "tokenAddress",
              "type": "address"
            },
            {
              "internalType": "uint256",
              "name": "balance",
              "type": "uint256"
            },
            {
              "internalType": "enum DAOBase.SignType",
              "name": "signType",
              "type": "uint8"
            },
            {
              "internalType": "uint256",
              "name": "proposalIdOrDeadline",
              "type": "uint256"
            }
          ],
          "internalType": "struct DAOBase.SignInfo",
          "name": "signInfo_",
          "type": "tuple"
        },
        {
          "internalType": "bytes",
          "name": "signature_",
          "type": "bytes"
        }
      ],
      "name": "createProposal",
      "outputs": [],
      "stateMutability": "nonpayable",
      "type": "function"
    },
    {
      "inputs": [],
      "name": "daoGovernance",
      "outputs": [
        {
          "internalType": "uint256",
          "name": "proposalThreshold",
          "type": "uint256"
        },
        {
          "internalType": "uint256",
          "name": "votingThreshold",
          "type": "uint256"
        },
        {
          "internalType": "uint256",
          "name": "votingPeriod",
          "type": "uint256"
        },
        {
          "internalType": "enum IDAOBase.VotingType",
          "name": "votingType",
          "type": "uint8"
        }
      ],
      "stateMutability": "view",
      "type": "function"
    },
    {
      "inputs": [],
      "name": "daoInfo",
      "outputs": [
        {
          "internalType": "string",
          "name": "name",
          "type": "string"
        },
        {
          "internalType": "string",
          "name": "handle",
          "type": "string"
        },
        {
          "internalType": "string",
          "name": "category",
          "type": "string"
        },
        {
          "internalType": "string",
          "name": "description",
          "type": "string"
        },
        {
          "internalType": "string",
          "name": "twitter",
          "type": "string"
        },
        {
          "internalType": "string",
          "name": "github",
          "type": "string"
        },
        {
          "internalType": "string",
          "name": "discord",
          "type": "string"
        },
        {
          "internalType": "string",
          "name": "daoLogo",
          "type": "string"
        },
        {
          "internalType": "string",
          "name": "website",
          "type": "string"
        }
      ],
      "stateMutability": "view",
      "type": "function"
    },
    {
      "inputs": [],
      "name": "daoToken",
      "outputs": [
        {
          "internalType": "uint256",
          "name": "chainId",
          "type": "uint256"
        },
        {
          "internalType": "address",
          "name": "tokenAddress",
          "type": "address"
        }
      ],
      "stateMutability": "view",
      "type": "function"
    },
    {
      "inputs": [],
      "name": "daoVersion",
      "outputs": [
        {
          "internalType": "string",
          "name": "",
          "type": "string"
        }
      ],
      "stateMutability": "pure",
      "type": "function"
    },
    {
      "inputs": [],
      "name": "factoryAddress",
      "outputs": [
        {
          "internalType": "address",
          "name": "",
          "type": "address"
        }
      ],
      "stateMutability": "view",
      "type": "function"
    },
    {
      "inputs": [
        {
          "internalType": "uint256",
          "name": "proposalId_",
          "type": "uint256"
        }
      ],
      "name": "getProposalOptionById",
      "outputs": [
        {
          "components": [
            {
              "internalType": "string",
              "name": "name",
              "type": "string"
            },
            {
              "internalType": "uint256",
              "name": "amount",
              "type": "uint256"
            }
          ],
          "internalType": "struct DAOBase.ProposalOption[]",
          "name": "",
          "type": "tuple[]"
        }
      ],
      "stateMutability": "view",
      "type": "function"
    },
    {
      "inputs": [
        {
          "internalType": "address",
          "name": "account_",
          "type": "address"
        },
        {
          "internalType": "uint256",
          "name": "proposalId_",
          "type": "uint256"
        }
      ],
      "name": "getVoteInfoByAccountAndProposalId",
      "outputs": [
        {
          "components": [
            {
              "internalType": "uint256",
              "name": "index",
              "type": "uint256"
            },
            {
              "internalType": "uint256",
              "name": "amount",
              "type": "uint256"
            }
          ],
          "internalType": "struct DAOBase.VoteInfo[]",
          "name": "",
          "type": "tuple[]"
        }
      ],
      "stateMutability": "view",
      "type": "function"
    },
    {
      "inputs": [
        {
          "components": [
            {
              "internalType": "string",
              "name": "name",
              "type": "string"
            },
            {
              "internalType": "string",
              "name": "handle",
              "type": "string"
            },
            {
              "internalType": "string",
              "name": "category",
              "type": "string"
            },
            {
              "internalType": "string",
              "name": "description",
              "type": "string"
            },
            {
              "internalType": "string",
              "name": "twitter",
              "type": "string"
            },
            {
              "internalType": "string",
              "name": "github",
              "type": "string"
            },
            {
              "internalType": "string",
              "name": "discord",
              "type": "string"
            },
            {
              "internalType": "string",
              "name": "daoLogo",
              "type": "string"
            },
            {
              "internalType": "string",
              "name": "website",
              "type": "string"
            }
          ],
          "internalType": "struct IDAOBase.General",
          "name": "general_",
          "type": "tuple"
        },
        {
          "components": [
            {
              "internalType": "uint256",
              "name": "chainId",
              "type": "uint256"
            },
            {
              "internalType": "address",
              "name": "tokenAddress",
              "type": "address"
            }
          ],
          "internalType": "struct IDAOBase.Token",
          "name": "token_",
          "type": "tuple"
        },
        {
          "components": [
            {
              "internalType": "uint256",
              "name": "proposalThreshold",
              "type": "uint256"
            },
            {
              "internalType": "uint256",
              "name": "votingThreshold",
              "type": "uint256"
            },
            {
              "internalType": "uint256",
              "name": "votingPeriod",
              "type": "uint256"
            },
            {
              "internalType": "enum IDAOBase.VotingType",
              "name": "votingType",
              "type": "uint8"
            }
          ],
          "internalType": "struct IDAOBase.Governance",
          "name": "governance_",
          "type": "tuple"
        }
      ],
      "name": "initialize",
      "outputs": [],
      "stateMutability": "nonpayable",
      "type": "function"
    },
    {
      "inputs": [],
      "name": "owner",
      "outputs": [
        {
          "internalType": "address",
          "name": "",
          "type": "address"
        }
      ],
      "stateMutability": "view",
      "type": "function"
    },
    {
      "inputs": [],
      "name": "proposalIndex",
      "outputs": [
        {
          "internalType": "uint256",
          "name": "",
          "type": "uint256"
        }
      ],
      "stateMutability": "view",
      "type": "function"
    },
    {
      "inputs": [
        {
          "internalType": "uint256",
          "name": "",
          "type": "uint256"
        }
      ],
      "name": "proposals",
      "outputs": [
        {
          "internalType": "bool",
          "name": "cancel",
          "type": "bool"
        },
        {
          "internalType": "address",
          "name": "creator",
          "type": "address"
        },
        {
          "internalType": "string",
          "name": "title",
          "type": "string"
        },
        {
          "internalType": "string",
          "name": "introduction",
          "type": "string"
        },
        {
          "internalType": "string",
          "name": "content",
          "type": "string"
        },
        {
          "internalType": "uint256",
          "name": "startTime",
          "type": "uint256"
        },
        {
          "internalType": "uint256",
          "name": "endTime",
          "type": "uint256"
        },
        {
          "internalType": "uint256",
          "name": "votingThresholdSnapshot",
          "type": "uint256"
        },
        {
          "internalType": "enum IDAOBase.VotingType",
          "name": "votingType",
          "type": "uint8"
        }
      ],
      "stateMutability": "view",
      "type": "function"
    },
    {
      "inputs": [],
      "name": "renounceOwnership",
      "outputs": [],
      "stateMutability": "nonpayable",
      "type": "function"
    },
    {
      "inputs": [
        {
          "internalType": "address",
          "name": "admin_",
          "type": "address"
        },
        {
          "internalType": "bool",
          "name": "enabled_",
          "type": "bool"
        }
      ],
      "name": "setAdmin",
      "outputs": [],
      "stateMutability": "nonpayable",
      "type": "function"
    },
    {
      "inputs": [
        {
          "components": [
            {
              "internalType": "uint256",
              "name": "proposalThreshold",
              "type": "uint256"
            },
            {
              "internalType": "uint256",
              "name": "votingThreshold",
              "type": "uint256"
            },
            {
              "internalType": "uint256",
              "name": "votingPeriod",
              "type": "uint256"
            },
            {
              "internalType": "enum IDAOBase.VotingType",
              "name": "votingType",
              "type": "uint8"
            }
          ],
          "internalType": "struct IDAOBase.Governance",
          "name": "governance_",
          "type": "tuple"
        }
      ],
      "name": "setGovernance",
      "outputs": [],
      "stateMutability": "nonpayable",
      "type": "function"
    },
    {
      "inputs": [
        {
          "internalType": "string[]",
          "name": "args",
          "type": "string[]"
        }
      ],
      "name": "setInfo",
      "outputs": [],
      "stateMutability": "nonpayable",
      "type": "function"
    },
    {
      "inputs": [
        {
          "internalType": "address",
          "name": "newOwner",
          "type": "address"
        }
      ],
      "name": "transferOwnership",
      "outputs": [],
      "stateMutability": "nonpayable",
      "type": "function"
    },
    {
      "inputs": [
        {
          "internalType": "uint256[]",
          "name": "optionIndexes_",
          "type": "uint256[]"
        },
        {
          "internalType": "uint256[]",
          "name": "amounts_",
          "type": "uint256[]"
        },
        {
          "components": [
            {
              "internalType": "uint256",
              "name": "chainId",
              "type": "uint256"
            },
            {
              "internalType": "address",
              "name": "tokenAddress",
              "type": "address"
            },
            {
              "internalType": "uint256",
              "name": "balance",
              "type": "uint256"
            },
            {
              "internalType": "enum DAOBase.SignType",
              "name": "signType",
              "type": "uint8"
            },
            {
              "internalType": "uint256",
              "name": "proposalIdOrDeadline",
              "type": "uint256"
            }
          ],
          "internalType": "struct DAOBase.SignInfo",
          "name": "signInfo_",
          "type": "tuple"
        },
        {
          "internalType": "bytes",
          "name": "signature_",
          "type": "bytes"
        }
      ],
      "name": "vote",
      "outputs": [],
      "stateMutability": "nonpayable",
      "type": "function"
    },
    {
      "inputs": [
        {
          "internalType": "address",
          "name": "",
          "type": "address"
        },
        {
          "internalType": "uint256",
          "name": "",
          "type": "uint256"
        },
        {
          "internalType": "uint256",
          "name": "",
          "type": "uint256"
        }
      ],
      "name": "voteInfos",
      "outputs": [
        {
          "internalType": "uint256",
          "name": "index",
          "type": "uint256"
        },
        {
          "internalType": "uint256",
          "name": "amount",
          "type": "uint256"
        }
      ],
      "stateMutability": "view",
      "type": "function"
    }
  ],
  "transactionHash": "0x23a403c3a193c693ba4b318b6f6a71d950e0baed5ec749e63ac8d2c0b6716e1c",
  "args": [],
  "solcInputHash": "13d6602dbbea1ef1c17bfd49d2c33d4f",
  "bytecode": "0x608060405234801561001057600080fd5b50613b11806100206000396000f3fe608060405234801561001057600080fd5b50600436106101985760003560e01c80636008de42116100e3578063a69312041161008c578063ccdde11d11610066578063ccdde11d146103f2578063e0a8f6f514610405578063f2fde38b1461041857600080fd5b8063a6931204146103ba578063afe926e8146103c2578063c318dd57146103df57600080fd5b80638a25211f116100bd5780638a25211f146103625780638da5cb5b14610382578063966dae0e146103a757600080fd5b80636008de421461034a5780636ae3388a14610352578063715018a61461035a57600080fd5b80633d4e5ddd116101455780634aee622d1161011f5780634aee622d146103005780634b0bddd2146103205780635977e0f21461033357600080fd5b80633d4e5ddd14610270578063429b62e5146102995780634914b030146102cc57600080fd5b80631d9e7a26116101765780631d9e7a261461020b5780632078566d1461021e57806336834b061461023157600080fd5b8063013cf08b1461019d57806312af9198146101ce5780631577d311146101e3575b600080fd5b6101b06101ab366004613010565b61042b565b6040516101c5999897969594939291906130ae565b60405180910390f35b6101e16101dc366004613177565b61061c565b005b6101f66101f13660046131ce565b610aa6565b604080519283526020830191909152016101c5565b6101e161021936600461321b565b610af0565b6101e161022c3660046132e0565b610c55565b604080518082018252600681527f76302e322e310000000000000000000000000000000000000000000000000000602082015290516101c59190613392565b6071546072546073546074546102899392919060ff1684565b6040516101c594939291906133a5565b6102bc6102a73660046133d0565b60756020526000908152604090205460ff1681565b60405190151581526020016101c5565b606f546070546102e391906001600160a01b031682565b604080519283526001600160a01b039091166020830152016101c5565b61031361030e3660046133ed565b61114d565b6040516101c59190613419565b6101e161032e366004613476565b6111df565b61033c60765481565b6040519081526020016101c5565b61033c600181565b61033c600281565b6101e16111f1565b610375610370366004613010565b611205565b6040516101c591906134af565b6033546001600160a01b03165b6040516001600160a01b0390911681526020016101c5565b60655461038f906001600160a01b031681565b61033c600081565b6103ca611316565b6040516101c599989796959493929190613525565b6101e16103ed3660046135ea565b611818565b6101e1610400366004613606565b6118ba565b6101e1610413366004613010565b61214d565b6101e16104263660046133d0565b612636565b6077602052600090815260409020805460018201805460ff8316936101009093046001600160a01b0316929190610461906136b6565b80601f016020809104026020016040519081016040528092919081815260200182805461048d906136b6565b80156104da5780601f106104af576101008083540402835291602001916104da565b820191906000526020600020905b8154815290600101906020018083116104bd57829003601f168201915b5050505050908060020180546104ef906136b6565b80601f016020809104026020016040519081016040528092919081815260200182805461051b906136b6565b80156105685780601f1061053d57610100808354040283529160200191610568565b820191906000526020600020905b81548152906001019060200180831161054b57829003601f168201915b50505050509080600301805461057d906136b6565b80601f01602080910402602001604051908101604052809291908181526020018280546105a9906136b6565b80156105f65780601f106105cb576101008083540402835291602001916105f6565b820191906000526020600020905b8154815290600101906020018083116105d957829003601f168201915b505050506004830154600584015460068501546007909501549394919390925060ff1689565b3361062f6033546001600160a01b031690565b6001600160a01b0316148061065357503360009081526075602052604090205460ff165b6106b75760405162461bcd60e51b815260206004820152602a60248201527f44414f426173653a2063616c6c6572206973206e6f7420746865206f776e65726044820152691037b91030b236b4b71760b11b60648201526084015b60405180910390fd5b600881146107075760405162461bcd60e51b815260206004820152601960248201527f44414f426173653a206c656e677468206d69736d617463682e0000000000000060448201526064016106ae565b610aa260405180610120016040528084846000818110610729576107296136eb565b905060200281019061073b9190613701565b8080601f01602080910402602001604051908101604052809392919081815260200183838082843760009201919091525050509082525060678054602090920191610785906136b6565b80601f01602080910402602001604051908101604052809291908181526020018280546107b1906136b6565b80156107fe5780601f106107d3576101008083540402835291602001916107fe565b820191906000526020600020905b8154815290600101906020018083116107e157829003601f168201915b505050505081526020018484600181811061081b5761081b6136eb565b905060200281019061082d9190613701565b8080601f0160208091040260200160405190810160405280939291908181526020018383808284376000920191909152505050908252506020018484600281811061087a5761087a6136eb565b905060200281019061088c9190613701565b8080601f016020809104026020016040519081016040528093929190818152602001838380828437600092019190915250505090825250602001848460038181106108d9576108d96136eb565b90506020028101906108eb9190613701565b8080601f01602080910402602001604051908101604052809392919081815260200183838082843760009201919091525050509082525060200184846004818110610938576109386136eb565b905060200281019061094a9190613701565b8080601f01602080910402602001604051908101604052809392919081815260200183838082843760009201919091525050509082525060200184846005818110610997576109976136eb565b90506020028101906109a99190613701565b8080601f016020809104026020016040519081016040528093929190818152602001838380828437600092019190915250505090825250602001848460068181106109f6576109f66136eb565b9050602002810190610a089190613701565b8080601f01602080910402602001604051908101604052809392919081815260200183838082843760009201919091525050509082525060200184846007818110610a5557610a556136eb565b9050602002810190610a679190613701565b8080601f01602080910402602001604051908101604052809392919081815260200183838082843760009201919091525050509152506126c3565b5050565b60786020528260005260406000206020528160005260406000208181548110610ace57600080fd5b6000918252602090912060029091020180546001909101549093509150839050565b600054610100900460ff1615808015610b105750600054600160ff909116105b80610b2a5750303b158015610b2a575060005460ff166001145b610b9c5760405162461bcd60e51b815260206004820152602e60248201527f496e697469616c697a61626c653a20636f6e747261637420697320616c72656160448201527f647920696e697469616c697a656400000000000000000000000000000000000060648201526084016106ae565b6000805460ff191660011790558015610bbf576000805461ff0019166101001790555b6065805473ffffffffffffffffffffffffffffffffffffffff191633179055610be66127ec565b610bf7610bf285613815565b6126c3565b610c008361285f565b610c098261289d565b8015610c4f576000805461ff0019169055604051600181527f7f26b83ff96e1f2b6a682f133852f6798a09c465da95921460cefb38474024989060200160405180910390a15b50505050565b6040805160808101825260718054825260725460208301526073549282019290925260745460009290606083019060ff166002811115610c9757610c97613076565b6002811115610ca857610ca8613076565b90525090506000610cbf60c0890160a08a01613998565b6002811115610cd057610cd0613076565b14158015610d315750600081606001516002811115610cf157610cf1613076565b1480610d315750610d0860c0880160a08901613998565b6002811115610d1957610d19613076565b81606001516002811115610d2f57610d2f613076565b145b610d7d5760405162461bcd60e51b815260206004820152601d60248201527f44414f426173653a20696e76616c696420766f74696e6720747970652e00000060448201526064016106ae565b4284608001351015610dd15760405162461bcd60e51b815260206004820152601160248201527f44414f426173653a20657870697265642e00000000000000000000000000000060448201526064016106ae565b610ddc8484846128db565b610e285760405162461bcd60e51b815260206004820152601860248201527f44414f426173653a20696e76616c6964207369676e65722e000000000000000060448201526064016106ae565b805160408501351015610e7d5760405162461bcd60e51b815260206004820152601e60248201527f44414f426173653a20696e73756666696369656e742062616c616e63652e000060448201526064016106ae565b604081015160808801359015610ea3576040820151610ea09060608a01356139cb565b90505b8760800135886060013510610efa5760405162461bcd60e51b815260206004820152601e60248201527f44414f426173653a20737461727454696d6520676520656e6454696d652e000060448201526064016106ae565b85610f525760405162461bcd60e51b815260206004820152602260248201527f44414f426173653a20646f6e74206861766520656e6f756768206f7074696f6e604482015261399760f11b60648201526084016106ae565b607654610f608160016139cb565b6076556000818152607760205260408120905b88811015611034578160080160405180604001604052808c8c85818110610f9c57610f9c6136eb565b9050602002810190610fae9190613701565b8080601f016020809104026020016040519081016040528093929190818152602001838380828437600092018290525093855250505060209182018190528354600181018555938152819020825180519394600202909101926110149284920190612f03565b50602082015181600101555050808061102c906139e3565b915050610f73565b5080547fffffffffffffffffffffff0000000000000000000000000000000000000000ff16336101000217815561106b8a80613701565b611079916001840191612f87565b5061108760208b018b613701565b611095916002840191612f87565b506110a360408b018b613701565b6110b1916003840191612f87565b5060608a0135600482015560058101839055602084015160068201556110dd60c08b0160a08c01613998565b60078201805460ff191660018360028111156110fb576110fb613076565b02179055506040805160608c0135815260208101859052339184917f5545569dacba1911f566fc269ba3d83677a5d71c2afd5bc6f4762253b98e9d58910160405180910390a350505050505050505050565b6001600160a01b03821660009081526078602090815260408083208484528252808320805482518185028101850190935280835260609492939192909184015b828210156111d35783829060005260206000209060020201604051806040016040529081600082015481526020016001820154815250508152602001906001019061118d565b50505050905092915050565b6111e7612afb565b610aa28282612b55565b6111f9612afb565b6112036000612bb4565b565b606060776000838152602001908152602001600020600801805480602002602001604051908101604052809291908181526020016000905b8282101561130b5783829060005260206000209060020201604051806040016040529081600082018054611270906136b6565b80601f016020809104026020016040519081016040528092919081815260200182805461129c906136b6565b80156112e95780601f106112be576101008083540402835291602001916112e9565b820191906000526020600020905b8154815290600101906020018083116112cc57829003601f168201915b505050505081526020016001820154815250508152602001906001019061123d565b505050509050919050565b606680548190611325906136b6565b80601f0160208091040260200160405190810160405280929190818152602001828054611351906136b6565b801561139e5780601f106113735761010080835404028352916020019161139e565b820191906000526020600020905b81548152906001019060200180831161138157829003601f168201915b5050505050908060010180546113b3906136b6565b80601f01602080910402602001604051908101604052809291908181526020018280546113df906136b6565b801561142c5780601f106114015761010080835404028352916020019161142c565b820191906000526020600020905b81548152906001019060200180831161140f57829003601f168201915b505050505090806002018054611441906136b6565b80601f016020809104026020016040519081016040528092919081815260200182805461146d906136b6565b80156114ba5780601f1061148f576101008083540402835291602001916114ba565b820191906000526020600020905b81548152906001019060200180831161149d57829003601f168201915b5050505050908060030180546114cf906136b6565b80601f01602080910402602001604051908101604052809291908181526020018280546114fb906136b6565b80156115485780601f1061151d57610100808354040283529160200191611548565b820191906000526020600020905b81548152906001019060200180831161152b57829003601f168201915b50505050509080600401805461155d906136b6565b80601f0160208091040260200160405190810160405280929190818152602001828054611589906136b6565b80156115d65780601f106115ab576101008083540402835291602001916115d6565b820191906000526020600020905b8154815290600101906020018083116115b957829003601f168201915b5050505050908060050180546115eb906136b6565b80601f0160208091040260200160405190810160405280929190818152602001828054611617906136b6565b80156116645780601f1061163957610100808354040283529160200191611664565b820191906000526020600020905b81548152906001019060200180831161164757829003601f168201915b505050505090806006018054611679906136b6565b80601f01602080910402602001604051908101604052809291908181526020018280546116a5906136b6565b80156116f25780601f106116c7576101008083540402835291602001916116f2565b820191906000526020600020905b8154815290600101906020018083116116d557829003601f168201915b505050505090806007018054611707906136b6565b80601f0160208091040260200160405190810160405280929190818152602001828054611733906136b6565b80156117805780601f1061175557610100808354040283529160200191611780565b820191906000526020600020905b81548152906001019060200180831161176357829003601f168201915b505050505090806008018054611795906136b6565b80601f01602080910402602001604051908101604052809291908181526020018280546117c1906136b6565b801561180e5780601f106117e35761010080835404028352916020019161180e565b820191906000526020600020905b8154815290600101906020018083116117f157829003601f168201915b5050505050905089565b3361182b6033546001600160a01b031690565b6001600160a01b0316148061184f57503360009081526075602052604090205460ff165b6118ae5760405162461bcd60e51b815260206004820152602a60248201527f44414f426173653a2063616c6c6572206973206e6f7420746865206f776e65726044820152691037b91030b236b4b71760b11b60648201526084016106ae565b6118b78161289d565b50565b60808301356000818152607760209081526040808320815161014081018352815460ff81161515825261010090046001600160a01b031693810193909352600181018054919284019161190c906136b6565b80601f0160208091040260200160405190810160405280929190818152602001828054611938906136b6565b80156119855780601f1061195a57610100808354040283529160200191611985565b820191906000526020600020905b81548152906001019060200180831161196857829003601f168201915b5050505050815260200160028201805461199e906136b6565b80601f01602080910402602001604051908101604052809291908181526020018280546119ca906136b6565b8015611a175780601f106119ec57610100808354040283529160200191611a17565b820191906000526020600020905b8154815290600101906020018083116119fa57829003601f168201915b50505050508152602001600382018054611a30906136b6565b80601f0160208091040260200160405190810160405280929190818152602001828054611a5c906136b6565b8015611aa95780601f10611a7e57610100808354040283529160200191611aa9565b820191906000526020600020905b815481529060010190602001808311611a8c57829003601f168201915b5050509183525050600482015460208201526005820154604082015260068201546060820152600782015460809091019060ff166002811115611aee57611aee613076565b6002811115611aff57611aff613076565b815260200160088201805480602002602001604051908101604052809291908181526020016000905b82821015611bf65783829060005260206000209060020201604051806040016040529081600082018054611b5b906136b6565b80601f0160208091040260200160405190810160405280929190818152602001828054611b87906136b6565b8015611bd45780601f10611ba957610100808354040283529160200191611bd4565b820191906000526020600020905b815481529060010190602001808311611bb757829003601f168201915b5050505050815260200160018201548152505081526020019060010190611b28565b505050508152505090508160765411611c515760405162461bcd60e51b815260206004820181905260248201527f44414f426173653a2070726f706f73616c206964206e6f74206578697374732e60448201526064016106ae565b878614611ca05760405162461bcd60e51b815260206004820152601860248201527f44414f426173653a20696e76616c6964206c656e6774682e000000000000000060448201526064016106ae565b33600090815260786020908152604080832085845290915290205415611d085760405162461bcd60e51b815260206004820152601760248201527f44414f426173653a20616c726561647920766f7465642e00000000000000000060448201526064016106ae565b611d138585856128db565b611d5f5760405162461bcd60e51b815260206004820152601860248201527f44414f426173653a20696e76616c6964207369676e65722e000000000000000060448201526064016106ae565b8060a001514210158015611d7657508060c0015142105b611dc25760405162461bcd60e51b815260206004820152601e60248201527f44414f426173653a20766f7465206f6e20612077726f6e672074696d652e000060448201526064016106ae565b805115611e115760405162461bcd60e51b815260206004820152601a60248201527f44414f426173653a20616c72656164792063616e63656c65642e00000000000060448201526064016106ae565b600160008381526077602052604090206007015460ff166002811115611e3957611e39613076565b1415611e8f5760018814611e8f5760405162461bcd60e51b815260206004820152601860248201527f44414f426173653a20696e76616c6964206c656e6774682e000000000000000060448201526064016106ae565b600082815260776020526040812060080154815b8a8110156120eb578b8b82818110611ebd57611ebd6136eb565b905060200201358211611f385760405162461bcd60e51b815260206004820152602a60248201527f44414f426173653a2070726f706f73616c206f7074696f6e20696e646578206e60448201527f6f74206578697374732e0000000000000000000000000000000000000000000060648201526084016106ae565b898982818110611f4a57611f4a6136eb565b9050602002013583611f5c91906139cb565b9250898982818110611f7057611f706136eb565b90506020020135607760008781526020019081526020016000206008018d8d84818110611f9f57611f9f6136eb565b9050602002013581548110611fb657611fb66136eb565b90600052602060002090600202016001016000828254611fd691906139cb565b909155505033600090815260786020908152604080832088845290915290819020815180830190925290808e8e85818110612013576120136136eb565b9050602002013581526020018c8c85818110612031576120316136eb565b6020908102929092013590925283546001818101865560009586529482902084516002909202019081559201519190920155508b8b82818110612076576120766136eb565b90506020020135336001600160a01b0316867f691caaa3fac07e755c9e46e4877cbd04f37fd1b9be1bfc9851f6a520aad29c138d8d868181106120bb576120bb6136eb565b905060200201356040516120d191815260200190565b60405180910390a4806120e3816139e3565b915050611ea3565b5081876040013510156121405760405162461bcd60e51b815260206004820152601e60248201527f44414f426173653a20696e73756666696369656e742062616c616e63652e000060448201526064016106ae565b5050505050505050505050565b6000818152607760209081526040808320815161014081018352815460ff81161515825261010090046001600160a01b031693810193909352600181018054919284019161219a906136b6565b80601f01602080910402602001604051908101604052809291908181526020018280546121c6906136b6565b80156122135780601f106121e857610100808354040283529160200191612213565b820191906000526020600020905b8154815290600101906020018083116121f657829003601f168201915b5050505050815260200160028201805461222c906136b6565b80601f0160208091040260200160405190810160405280929190818152602001828054612258906136b6565b80156122a55780601f1061227a576101008083540402835291602001916122a5565b820191906000526020600020905b81548152906001019060200180831161228857829003601f168201915b505050505081526020016003820180546122be906136b6565b80601f01602080910402602001604051908101604052809291908181526020018280546122ea906136b6565b80156123375780601f1061230c57610100808354040283529160200191612337565b820191906000526020600020905b81548152906001019060200180831161231a57829003601f168201915b5050509183525050600482015460208201526005820154604082015260068201546060820152600782015460809091019060ff16600281111561237c5761237c613076565b600281111561238d5761238d613076565b815260200160088201805480602002602001604051908101604052809291908181526020016000905b8282101561248457838290600052602060002090600202016040518060400160405290816000820180546123e9906136b6565b80601f0160208091040260200160405190810160405280929190818152602001828054612415906136b6565b80156124625780601f1061243757610100808354040283529160200191612462565b820191906000526020600020905b81548152906001019060200180831161244557829003601f168201915b50505050508152602001600182015481525050815260200190600101906123b6565b5050505081525050905081607654116124df5760405162461bcd60e51b815260206004820181905260248201527f44414f426173653a2070726f706f73616c206964206e6f74206578697374732e60448201526064016106ae565b8060a0015142106125325760405162461bcd60e51b815260206004820152601960248201527f44414f426173653a20616c726561647920737461727465642e0000000000000060448201526064016106ae565b80602001516001600160a01b0316336001600160a01b0316146125a35760405162461bcd60e51b815260206004820152602360248201527f44414f426173653a2073656e646572206973206e6f742074686520637265617460448201526237b91760e91b60648201526084016106ae565b8051156125f25760405162461bcd60e51b815260206004820152601a60248201527f44414f426173653a20616c72656164792063616e63656c65642e00000000000060448201526064016106ae565b600082815260776020526040808220805460ff191660011790555183917f8896f24cff41b54acf76c2560861f33cd20fd76c4df0b68a3515c354e4b6c81a91a25050565b61263e612afb565b6001600160a01b0381166126ba5760405162461bcd60e51b815260206004820152602660248201527f4f776e61626c653a206e6577206f776e657220697320746865207a65726f206160448201527f646472657373000000000000000000000000000000000000000000000000000060648201526084016106ae565b6118b781612bb4565b8051805182916066916126dd918391602090910190612f03565b5060208281015180516126f69260018501920190612f03565b5060408201518051612712916002840191602090910190612f03565b506060820151805161272e916003840191602090910190612f03565b506080820151805161274a916004840191602090910190612f03565b5060a08201518051612766916005840191602090910190612f03565b5060c08201518051612782916006840191602090910190612f03565b5060e0820151805161279e916007840191602090910190612f03565b5061010082015180516127bb916008840191602090910190612f03565b5050604051600091507f1f699cf30a85165a1f161e64b4b428f54e60dd974a70166b0816674c70d4f17b908290a250565b600054610100900460ff166128575760405162461bcd60e51b815260206004820152602b60248201527f496e697469616c697a61626c653a20636f6e7472616374206973206e6f74206960448201526a6e697469616c697a696e6760a81b60648201526084016106ae565b611203612c13565b80606f61286c82826139fe565b50506040516001907f1f699cf30a85165a1f161e64b4b428f54e60dd974a70166b0816674c70d4f17b90600090a250565b8060716128aa8282613a40565b50506040516002907f1f699cf30a85165a1f161e64b4b428f54e60dd974a70166b0816674c70d4f17b90600090a250565b606f54600090843514158061291357506070546001600160a01b031661290760408601602087016133d0565b6001600160a01b031614155b1561292057506000612af4565b6000612a2c334630883561293a60408b0160208c016133d0565b60808b0180359060408d0135906129549060608f01613a9d565b600181111561296557612965613076565b6040516bffffffffffffffffffffffff196060998a1b81166020830152603482019890985295881b8716605487015260688601949094529190951b9093166088830152609c82019390935260bc81019190915260dc81019190915260fc01604051602081830303815290604052805190602001206040517f19457468657265756d205369676e6564204d6573736167653a0a3332000000006020820152603c8101829052600090605c01604051602081830303815290604052805190602001209050919050565b90506000612a708286868080601f016020809104026020016040519081016040528093929190818152602001838380828437600092019190915250612c8792505050565b606554604051637df73e2760e01b81526001600160a01b038084166004830152929350911690637df73e279060240160206040518083038186803b158015612ab757600080fd5b505afa158015612acb573d6000803e3d6000fd5b505050506040513d601f19601f82011682018060405250810190612aef9190613abe565b925050505b9392505050565b6033546001600160a01b031633146112035760405162461bcd60e51b815260206004820181905260248201527f4f776e61626c653a2063616c6c6572206973206e6f7420746865206f776e657260448201526064016106ae565b6001600160a01b038216600081815260756020908152604091829020805460ff191685151590811790915591519182527f132a9997e52e2c9a263663f4e0d70844d7e683776839188028d514deea1fb13e910160405180910390a25050565b603380546001600160a01b0383811673ffffffffffffffffffffffffffffffffffffffff19831681179093556040519116919082907f8be0079c531659141344cd1fd0a4f28419497f9722a3daafe3b4186f6b6457e090600090a35050565b600054610100900460ff16612c7e5760405162461bcd60e51b815260206004820152602b60248201527f496e697469616c697a61626c653a20636f6e7472616374206973206e6f74206960448201526a6e697469616c697a696e6760a81b60648201526084016106ae565b61120333612bb4565b6000806000612c968585612cab565b91509150612ca381612cf1565b509392505050565b600080825160411415612ce25760208301516040840151606085015160001a612cd687828585612e3f565b94509450505050612cea565b506000905060025b9250929050565b6000816004811115612d0557612d05613076565b1415612d0e5750565b6001816004811115612d2257612d22613076565b1415612d705760405162461bcd60e51b815260206004820152601860248201527f45434453413a20696e76616c6964207369676e6174757265000000000000000060448201526064016106ae565b6002816004811115612d8457612d84613076565b1415612dd25760405162461bcd60e51b815260206004820152601f60248201527f45434453413a20696e76616c6964207369676e6174757265206c656e6774680060448201526064016106ae565b6003816004811115612de657612de6613076565b14156118b75760405162461bcd60e51b815260206004820152602260248201527f45434453413a20696e76616c6964207369676e6174757265202773272076616c604482015261756560f01b60648201526084016106ae565b6000807f7fffffffffffffffffffffffffffffff5d576e7357a4501ddfe92f46681b20a0831115612e765750600090506003612efa565b6040805160008082526020820180845289905260ff881692820192909252606081018690526080810185905260019060a0016020604051602081039080840390855afa158015612eca573d6000803e3d6000fd5b5050604051601f1901519150506001600160a01b038116612ef357600060019250925050612efa565b9150600090505b94509492505050565b828054612f0f906136b6565b90600052602060002090601f016020900481019282612f315760008555612f77565b82601f10612f4a57805160ff1916838001178555612f77565b82800160010185558215612f77579182015b82811115612f77578251825591602001919060010190612f5c565b50612f83929150612ffb565b5090565b828054612f93906136b6565b90600052602060002090601f016020900481019282612fb55760008555612f77565b82601f10612fce5782800160ff19823516178555612f77565b82800160010185558215612f77579182015b82811115612f77578235825591602001919060010190612fe0565b5b80821115612f835760008155600101612ffc565b60006020828403121561302257600080fd5b5035919050565b6000815180845260005b8181101561304f57602081850181015186830182015201613033565b81811115613061576000602083870101525b50601f01601f19169290920160200192915050565b634e487b7160e01b600052602160045260246000fd5b600381106130aa57634e487b7160e01b600052602160045260246000fd5b9052565b60006101208b151583526001600160a01b038b1660208401528060408401526130d98184018b613029565b905082810360608401526130ed818a613029565b905082810360808401526131018189613029565b9150508560a08301528460c08301528360e083015261312461010083018461308c565b9a9950505050505050505050565b60008083601f84011261314457600080fd5b50813567ffffffffffffffff81111561315c57600080fd5b6020830191508360208260051b8501011115612cea57600080fd5b6000806020838503121561318a57600080fd5b823567ffffffffffffffff8111156131a157600080fd5b6131ad85828601613132565b90969095509350505050565b6001600160a01b03811681146118b757600080fd5b6000806000606084860312156131e357600080fd5b83356131ee816131b9565b95602085013595506040909401359392505050565b60006080828403121561321557600080fd5b50919050565b600080600083850360e081121561323157600080fd5b843567ffffffffffffffff81111561324857600080fd5b8501610120818803121561325b57600080fd5b93506040601f198201121561326f57600080fd5b506020840191506132838560608601613203565b90509250925092565b600060a0828403121561321557600080fd5b60008083601f8401126132b057600080fd5b50813567ffffffffffffffff8111156132c857600080fd5b602083019150836020828501011115612cea57600080fd5b60008060008060008061010087890312156132fa57600080fd5b863567ffffffffffffffff8082111561331257600080fd5b9088019060c0828b03121561332657600080fd5b9096506020880135908082111561333c57600080fd5b6133488a838b01613132565b909750955085915061335d8a60408b0161328c565b945060e089013591508082111561337357600080fd5b5061338089828a0161329e565b979a9699509497509295939492505050565b602081526000612af46020830184613029565b8481526020810184905260408101839052608081016133c7606083018461308c565b95945050505050565b6000602082840312156133e257600080fd5b8135612af4816131b9565b6000806040838503121561340057600080fd5b823561340b816131b9565b946020939093013593505050565b602080825282518282018190526000919060409081850190868401855b8281101561345b57815180518552860151868501529284019290850190600101613436565b5091979650505050505050565b80151581146118b757600080fd5b6000806040838503121561348957600080fd5b8235613494816131b9565b915060208301356134a481613468565b809150509250929050565b60006020808301818452808551808352604092508286019150828160051b87010184880160005b8381101561351757888303603f19018552815180518785526134fa88860182613029565b9189015194890194909452948701949250908601906001016134d6565b509098975050505050505050565b60006101208083526135398184018d613029565b9050828103602084015261354d818c613029565b90508281036040840152613561818b613029565b90508281036060840152613575818a613029565b905082810360808401526135898189613029565b905082810360a084015261359d8188613029565b905082810360c08401526135b18187613029565b905082810360e08401526135c58186613029565b90508281036101008401526135da8185613029565b9c9b505050505050505050505050565b6000608082840312156135fc57600080fd5b612af48383613203565b6000806000806000806000610100888a03121561362257600080fd5b873567ffffffffffffffff8082111561363a57600080fd5b6136468b838c01613132565b909950975060208a013591508082111561365f57600080fd5b61366b8b838c01613132565b90975095508591506136808b60408c0161328c565b945060e08a013591508082111561369657600080fd5b506136a38a828b0161329e565b989b979a50959850939692959293505050565b600181811c908216806136ca57607f821691505b6020821081141561321557634e487b7160e01b600052602260045260246000fd5b634e487b7160e01b600052603260045260246000fd5b6000808335601e1984360301811261371857600080fd5b83018035915067ffffffffffffffff82111561373357600080fd5b602001915036819003821315612cea57600080fd5b634e487b7160e01b600052604160045260246000fd5b604051610120810167ffffffffffffffff8111828210171561378257613782613748565b60405290565b600082601f83011261379957600080fd5b813567ffffffffffffffff808211156137b4576137b4613748565b604051601f8301601f19908116603f011681019082821181831017156137dc576137dc613748565b816040528381528660208588010111156137f557600080fd5b836020870160208301376000602085830101528094505050505092915050565b6000610120823603121561382857600080fd5b61383061375e565b823567ffffffffffffffff8082111561384857600080fd5b61385436838701613788565b8352602085013591508082111561386a57600080fd5b61387636838701613788565b6020840152604085013591508082111561388f57600080fd5b61389b36838701613788565b604084015260608501359150808211156138b457600080fd5b6138c036838701613788565b606084015260808501359150808211156138d957600080fd5b6138e536838701613788565b608084015260a08501359150808211156138fe57600080fd5b61390a36838701613788565b60a084015260c085013591508082111561392357600080fd5b61392f36838701613788565b60c084015260e085013591508082111561394857600080fd5b61395436838701613788565b60e08401526101009150818501358181111561396f57600080fd5b61397b36828801613788565b8385015250505080915050919050565b600381106118b757600080fd5b6000602082840312156139aa57600080fd5b8135612af48161398b565b634e487b7160e01b600052601160045260246000fd5b600082198211156139de576139de6139b5565b500190565b60006000198214156139f7576139f76139b5565b5060010190565b81358155600181016020830135613a14816131b9565b6001600160a01b03811673ffffffffffffffffffffffffffffffffffffffff1983541617825550505050565b813581556020820135600182015560408201356002820155600381016060830135613a6a8161398b565b60038110613a8857634e487b7160e01b600052602160045260246000fd5b60ff1982541660ff8216811783555050505050565b600060208284031215613aaf57600080fd5b813560028110612af457600080fd5b600060208284031215613ad057600080fd5b8151612af48161346856fea2646970667358221220e75cd70131b5e558bd60454fc59503f9334167707e20e2858ca8060fab72718064736f6c63430008090033",
  "devdoc": {
    "kind": "dev",
    "methods": {
      "cancelProposal(uint256)": {
        "details": "Cancel an active proposal"
      },
      "createProposal((string,string,string,uint256,uint256,uint8),string[],(uint256,address,uint256,uint8,uint256),bytes)": {
        "details": "create proposal"
      },
      "initialize((string,string,string,string,string,string,string,string,string),(uint256,address),(uint256,uint256,uint256,uint8))": {
        "details": "Initializes the contract by simple way."
      },
      "owner()": {
        "details": "Returns the address of the current owner."
      },
      "renounceOwnership()": {
        "details": "Leaves the contract without owner. It will not be possible to call `onlyOwner` functions anymore. Can only be called by the current owner. NOTE: Renouncing ownership will leave the contract without an owner, thereby removing any functionality that is only available to the owner."
      },
      "setAdmin(address,bool)": {
        "details": "remove or add a admin."
      },
      "setInfo(string[])": {
        "details": "set dao info"
      },
      "transferOwnership(address)": {
        "details": "Transfers ownership of the contract to a new account (`newOwner`). Can only be called by the current owner."
      },
      "vote(uint256[],uint256[],(uint256,address,uint256,uint8,uint256),bytes)": {
        "details": "vote for proposal"
      }
    },
    "version": 1
  },
  "userdoc": {
    "kind": "user",
    "methods": {},
    "version": 1
  },
  "storageLayout": {
    "storage": [
      {
        "astId": 218,
        "contract": "contracts/DAOBase.sol:DAOBase",
        "label": "_initialized",
        "offset": 0,
        "slot": "0",
        "type": "t_uint8"
      },
      {
        "astId": 221,
        "contract": "contracts/DAOBase.sol:DAOBase",
        "label": "_initializing",
        "offset": 1,
        "slot": "0",
        "type": "t_bool"
      },
      {
        "astId": 1100,
        "contract": "contracts/DAOBase.sol:DAOBase",
        "label": "__gap",
        "offset": 0,
        "slot": "1",
        "type": "t_array(t_uint256)50_storage"
      },
      {
        "astId": 10,
        "contract": "contracts/DAOBase.sol:DAOBase",
        "label": "_owner",
        "offset": 0,
        "slot": "51",
        "type": "t_address"
      },
      {
        "astId": 130,
        "contract": "contracts/DAOBase.sol:DAOBase",
        "label": "__gap",
        "offset": 0,
        "slot": "52",
        "type": "t_array(t_uint256)49_storage"
      },
      {
        "astId": 6035,
        "contract": "contracts/DAOBase.sol:DAOBase",
        "label": "factoryAddress",
        "offset": 0,
        "slot": "101",
        "type": "t_address"
      },
      {
        "astId": 6038,
        "contract": "contracts/DAOBase.sol:DAOBase",
        "label": "daoInfo",
        "offset": 0,
        "slot": "102",
        "type": "t_struct(General)8464_storage"
      },
      {
        "astId": 6041,
        "contract": "contracts/DAOBase.sol:DAOBase",
        "label": "daoToken",
        "offset": 0,
        "slot": "111",
        "type": "t_struct(Token)8469_storage"
      },
      {
        "astId": 6044,
        "contract": "contracts/DAOBase.sol:DAOBase",
        "label": "daoGovernance",
        "offset": 0,
        "slot": "113",
        "type": "t_struct(Governance)8483_storage"
      },
      {
        "astId": 6048,
        "contract": "contracts/DAOBase.sol:DAOBase",
        "label": "admins",
        "offset": 0,
        "slot": "117",
        "type": "t_mapping(t_address,t_bool)"
      },
      {
        "astId": 6050,
        "contract": "contracts/DAOBase.sol:DAOBase",
        "label": "proposalIndex",
        "offset": 0,
        "slot": "118",
        "type": "t_uint256"
      },
      {
        "astId": 6055,
        "contract": "contracts/DAOBase.sol:DAOBase",
        "label": "proposals",
        "offset": 0,
        "slot": "119",
        "type": "t_mapping(t_uint256,t_struct(Proposal)6121_storage)"
      },
      {
        "astId": 6063,
        "contract": "contracts/DAOBase.sol:DAOBase",
        "label": "voteInfos",
        "offset": 0,
        "slot": "120",
        "type": "t_mapping(t_address,t_mapping(t_uint256,t_array(t_struct(VoteInfo)6131_storage)dyn_storage))"
      }
    ],
    "types": {
      "t_address": {
        "encoding": "inplace",
        "label": "address",
        "numberOfBytes": "20"
      },
      "t_array(t_struct(ProposalOption)6126_storage)dyn_storage": {
        "base": "t_struct(ProposalOption)6126_storage",
        "encoding": "dynamic_array",
        "label": "struct DAOBase.ProposalOption[]",
        "numberOfBytes": "32"
      },
      "t_array(t_struct(VoteInfo)6131_storage)dyn_storage": {
        "base": "t_struct(VoteInfo)6131_storage",
        "encoding": "dynamic_array",
        "label": "struct DAOBase.VoteInfo[]",
        "numberOfBytes": "32"
      },
      "t_array(t_uint256)49_storage": {
        "base": "t_uint256",
        "encoding": "inplace",
        "label": "uint256[49]",
        "numberOfBytes": "1568"
      },
      "t_array(t_uint256)50_storage": {
        "base": "t_uint256",
        "encoding": "inplace",
        "label": "uint256[50]",
        "numberOfBytes": "1600"
      },
      "t_bool": {
        "encoding": "inplace",
        "label": "bool",
        "numberOfBytes": "1"
      },
      "t_enum(VotingType)8473": {
        "encoding": "inplace",
        "label": "enum IDAOBase.VotingType",
        "numberOfBytes": "1"
      },
      "t_mapping(t_address,t_bool)": {
        "encoding": "mapping",
        "key": "t_address",
        "label": "mapping(address => bool)",
        "numberOfBytes": "32",
        "value": "t_bool"
      },
      "t_mapping(t_address,t_mapping(t_uint256,t_array(t_struct(VoteInfo)6131_storage)dyn_storage))": {
        "encoding": "mapping",
        "key": "t_address",
        "label": "mapping(address => mapping(uint256 => struct DAOBase.VoteInfo[]))",
        "numberOfBytes": "32",
        "value": "t_mapping(t_uint256,t_array(t_struct(VoteInfo)6131_storage)dyn_storage)"
      },
      "t_mapping(t_uint256,t_array(t_struct(VoteInfo)6131_storage)dyn_storage)": {
        "encoding": "mapping",
        "key": "t_uint256",
        "label": "mapping(uint256 => struct DAOBase.VoteInfo[])",
        "numberOfBytes": "32",
        "value": "t_array(t_struct(VoteInfo)6131_storage)dyn_storage"
      },
      "t_mapping(t_uint256,t_struct(Proposal)6121_storage)": {
        "encoding": "mapping",
        "key": "t_uint256",
        "label": "mapping(uint256 => struct DAOBase.Proposal)",
        "numberOfBytes": "32",
        "value": "t_struct(Proposal)6121_storage"
      },
      "t_string_storage": {
        "encoding": "bytes",
        "label": "string",
        "numberOfBytes": "32"
      },
      "t_struct(General)8464_storage": {
        "encoding": "inplace",
        "label": "struct IDAOBase.General",
        "members": [
          {
            "astId": 8447,
            "contract": "contracts/DAOBase.sol:DAOBase",
            "label": "name",
            "offset": 0,
            "slot": "0",
            "type": "t_string_storage"
          },
          {
            "astId": 8449,
            "contract": "contracts/DAOBase.sol:DAOBase",
            "label": "handle",
            "offset": 0,
            "slot": "1",
            "type": "t_string_storage"
          },
          {
            "astId": 8451,
            "contract": "contracts/DAOBase.sol:DAOBase",
            "label": "category",
            "offset": 0,
            "slot": "2",
            "type": "t_string_storage"
          },
          {
            "astId": 8453,
            "contract": "contracts/DAOBase.sol:DAOBase",
            "label": "description",
            "offset": 0,
            "slot": "3",
            "type": "t_string_storage"
          },
          {
            "astId": 8455,
            "contract": "contracts/DAOBase.sol:DAOBase",
            "label": "twitter",
            "offset": 0,
            "slot": "4",
            "type": "t_string_storage"
          },
          {
            "astId": 8457,
            "contract": "contracts/DAOBase.sol:DAOBase",
            "label": "github",
            "offset": 0,
            "slot": "5",
            "type": "t_string_storage"
          },
          {
            "astId": 8459,
            "contract": "contracts/DAOBase.sol:DAOBase",
            "label": "discord",
            "offset": 0,
            "slot": "6",
            "type": "t_string_storage"
          },
          {
            "astId": 8461,
            "contract": "contracts/DAOBase.sol:DAOBase",
            "label": "daoLogo",
            "offset": 0,
            "slot": "7",
            "type": "t_string_storage"
          },
          {
            "astId": 8463,
            "contract": "contracts/DAOBase.sol:DAOBase",
            "label": "website",
            "offset": 0,
            "slot": "8",
            "type": "t_string_storage"
          }
        ],
        "numberOfBytes": "288"
      },
      "t_struct(Governance)8483_storage": {
        "encoding": "inplace",
        "label": "struct IDAOBase.Governance",
        "members": [
          {
            "astId": 8475,
            "contract": "contracts/DAOBase.sol:DAOBase",
            "label": "proposalThreshold",
            "offset": 0,
            "slot": "0",
            "type": "t_uint256"
          },
          {
            "astId": 8477,
            "contract": "contracts/DAOBase.sol:DAOBase",
            "label": "votingThreshold",
            "offset": 0,
            "slot": "1",
            "type": "t_uint256"
          },
          {
            "astId": 8479,
            "contract": "contracts/DAOBase.sol:DAOBase",
            "label": "votingPeriod",
            "offset": 0,
            "slot": "2",
            "type": "t_uint256"
          },
          {
            "astId": 8482,
            "contract": "contracts/DAOBase.sol:DAOBase",
            "label": "votingType",
            "offset": 0,
            "slot": "3",
            "type": "t_enum(VotingType)8473"
          }
        ],
        "numberOfBytes": "128"
      },
      "t_struct(Proposal)6121_storage": {
        "encoding": "inplace",
        "label": "struct DAOBase.Proposal",
        "members": [
          {
            "astId": 6099,
            "contract": "contracts/DAOBase.sol:DAOBase",
            "label": "cancel",
            "offset": 0,
            "slot": "0",
            "type": "t_bool"
          },
          {
            "astId": 6101,
            "contract": "contracts/DAOBase.sol:DAOBase",
            "label": "creator",
            "offset": 1,
            "slot": "0",
            "type": "t_address"
          },
          {
            "astId": 6103,
            "contract": "contracts/DAOBase.sol:DAOBase",
            "label": "title",
            "offset": 0,
            "slot": "1",
            "type": "t_string_storage"
          },
          {
            "astId": 6105,
            "contract": "contracts/DAOBase.sol:DAOBase",
            "label": "introduction",
            "offset": 0,
            "slot": "2",
            "type": "t_string_storage"
          },
          {
            "astId": 6107,
            "contract": "contracts/DAOBase.sol:DAOBase",
            "label": "content",
            "offset": 0,
            "slot": "3",
            "type": "t_string_storage"
          },
          {
            "astId": 6109,
            "contract": "contracts/DAOBase.sol:DAOBase",
            "label": "startTime",
            "offset": 0,
            "slot": "4",
            "type": "t_uint256"
          },
          {
            "astId": 6111,
            "contract": "contracts/DAOBase.sol:DAOBase",
            "label": "endTime",
            "offset": 0,
            "slot": "5",
            "type": "t_uint256"
          },
          {
            "astId": 6113,
            "contract": "contracts/DAOBase.sol:DAOBase",
            "label": "votingThresholdSnapshot",
            "offset": 0,
            "slot": "6",
            "type": "t_uint256"
          },
          {
            "astId": 6116,
            "contract": "contracts/DAOBase.sol:DAOBase",
            "label": "votingType",
            "offset": 0,
            "slot": "7",
            "type": "t_enum(VotingType)8473"
          },
          {
            "astId": 6120,
            "contract": "contracts/DAOBase.sol:DAOBase",
            "label": "options",
            "offset": 0,
            "slot": "8",
            "type": "t_array(t_struct(ProposalOption)6126_storage)dyn_storage"
          }
        ],
        "numberOfBytes": "288"
      },
      "t_struct(ProposalOption)6126_storage": {
        "encoding": "inplace",
        "label": "struct DAOBase.ProposalOption",
        "members": [
          {
            "astId": 6123,
            "contract": "contracts/DAOBase.sol:DAOBase",
            "label": "name",
            "offset": 0,
            "slot": "0",
            "type": "t_string_storage"
          },
          {
            "astId": 6125,
            "contract": "contracts/DAOBase.sol:DAOBase",
            "label": "amount",
            "offset": 0,
            "slot": "1",
            "type": "t_uint256"
          }
        ],
        "numberOfBytes": "64"
      },
      "t_struct(Token)8469_storage": {
        "encoding": "inplace",
        "label": "struct IDAOBase.Token",
        "members": [
          {
            "astId": 8466,
            "contract": "contracts/DAOBase.sol:DAOBase",
            "label": "chainId",
            "offset": 0,
            "slot": "0",
            "type": "t_uint256"
          },
          {
            "astId": 8468,
            "contract": "contracts/DAOBase.sol:DAOBase",
            "label": "tokenAddress",
            "offset": 0,
            "slot": "1",
            "type": "t_address"
          }
        ],
        "numberOfBytes": "64"
      },
      "t_struct(VoteInfo)6131_storage": {
        "encoding": "inplace",
        "label": "struct DAOBase.VoteInfo",
        "members": [
          {
            "astId": 6128,
            "contract": "contracts/DAOBase.sol:DAOBase",
            "label": "index",
            "offset": 0,
            "slot": "0",
            "type": "t_uint256"
          },
          {
            "astId": 6130,
            "contract": "contracts/DAOBase.sol:DAOBase",
            "label": "amount",
            "offset": 0,
            "slot": "1",
            "type": "t_uint256"
          }
        ],
        "numberOfBytes": "64"
      },
      "t_uint256": {
        "encoding": "inplace",
        "label": "uint256",
        "numberOfBytes": "32"
      },
      "t_uint8": {
        "encoding": "inplace",
        "label": "uint8",
        "numberOfBytes": "1"
      }
    }
  }
}