{
  "address": "0xf1188e93e3bF9C2c436173bc4C466fa4d0683CEF",
  "abi": [
    {
      "inputs": [
        {
          "internalType": "address",
          "name": "_daoFactory",
          "type": "address"
        }
      ],
      "stateMutability": "nonpayable",
      "type": "constructor"
    },
    {
      "anonymous": false,
      "inputs": [
        {
          "indexed": true,
          "internalType": "uint256",
          "name": "id",
          "type": "uint256"
        },
        {
          "indexed": false,
          "internalType": "address",
          "name": "sbtAddress",
          "type": "address"
        }
      ],
      "name": "Deployed",
      "type": "event"
    },
    {
      "anonymous": false,
      "inputs": [
        {
          "indexed": true,
          "internalType": "uint256",
          "name": "id",
          "type": "uint256"
        },
        {
          "indexed": true,
          "internalType": "address",
          "name": "account",
          "type": "address"
        },
        {
          "indexed": false,
          "internalType": "uint256",
          "name": "tokenId",
          "type": "uint256"
        }
      ],
      "name": "Minted",
      "type": "event"
    },
    {
      "inputs": [
        {
          "internalType": "uint256",
          "name": "_id",
          "type": "uint256"
        },
        {
          "internalType": "uint256",
          "name": "_totalSupply",
          "type": "uint256"
        },
        {
          "internalType": "string",
          "name": "_name",
          "type": "string"
        },
        {
          "internalType": "string",
          "name": "_symbol",
          "type": "string"
        },
        {
          "internalType": "string",
          "name": "_baseTokenURI",
          "type": "string"
        },
        {
          "internalType": "bytes",
          "name": "_signature",
          "type": "bytes"
        }
      ],
      "name": "createSBT",
      "outputs": [],
      "stateMutability": "nonpayable",
      "type": "function"
    },
    {
      "inputs": [],
      "name": "daoFactory",
      "outputs": [
        {
          "internalType": "address",
          "name": "",
          "type": "address"
        }
      ],
      "stateMutability": "view",
      "type": "function"
    },
    {
      "inputs": [
        {
          "internalType": "uint256",
          "name": "",
          "type": "uint256"
        }
      ],
      "name": "deployedAddress",
      "outputs": [
        {
          "internalType": "address",
          "name": "",
          "type": "address"
        }
      ],
      "stateMutability": "view",
      "type": "function"
    },
    {
      "inputs": [
        {
          "internalType": "uint256",
          "name": "_id",
          "type": "uint256"
        },
        {
          "internalType": "bytes",
          "name": "_signature",
          "type": "bytes"
        }
      ],
      "name": "mintSBT",
      "outputs": [],
      "stateMutability": "nonpayable",
      "type": "function"
    },
    {
      "inputs": [
        {
          "internalType": "address",
          "name": "",
          "type": "address"
        },
        {
          "internalType": "uint256",
          "name": "",
          "type": "uint256"
        }
      ],
      "name": "minted",
      "outputs": [
        {
          "internalType": "bool",
          "name": "",
          "type": "bool"
        }
      ],
      "stateMutability": "view",
      "type": "function"
    }
  ],
  "transactionHash": "0x6a9c302cd2fcc11a826f1ab063a089320db2ab3f1cb3475454349c5900eaefaa",
  "args": [
    "0xD7a52a2Fe72A588351600Fa2feDD6132381f065d"
  ],
  "numDeployments": 1,
  "solcInputHash": "c219a343fb4a5726103add74f140a729",
  "bytecode": "0x60a060405234801561001057600080fd5b50604051612e1e380380612e1e83398101604081905261002f91610040565b6001600160a01b0316608052610070565b60006020828403121561005257600080fd5b81516001600160a01b038116811461006957600080fd5b9392505050565b608051612d866100986000396000818160dc015281816102ae01526105b80152612d866000f3fe60806040523480156200001157600080fd5b50600436106200006f5760003560e01c806348f7f2a3116200005657806348f7f2a314620000d65780639215792c14620000fe578063b7656808146200011557600080fd5b806315e8183514620000745780631908bc9a146200008d575b600080fd5b6200008b6200008536600462000b0e565b62000154565b005b620000b96200009e36600462000be2565b6001602052600090815260409020546001600160a01b031681565b6040516001600160a01b0390911681526020015b60405180910390f35b620000b97f000000000000000000000000000000000000000000000000000000000000000081565b6200008b6200010f36600462000bfc565b62000438565b620001436200012636600462000c4c565b600060208181529281526040808220909352908152205460ff1681565b6040519015158152602001620000cd565b6000878152600160205260409020546001600160a01b031615620001bf5760405162461bcd60e51b815260206004820152601160248201527f616c7265646179206465706c6f7965642e00000000000000000000000000000060448201526064015b60405180910390fd5b6000620002463346308b8b8b8b8b604051602001620001e698979695949392919062000cb9565b60408051601f1981840301815282825280516020918201207f19457468657265756d205369676e6564204d6573736167653a0a33320000000084830152603c8085019190915282518085039091018152605c909301909152815191012090565b905060006200028c8285858080601f0160208091040260200160405190810160405280939291908181526020018383808284376000920191909152506200077192505050565b604051637df73e2760e01b81526001600160a01b0380831660048301529192507f000000000000000000000000000000000000000000000000000000000000000090911690637df73e279060240160206040518083038186803b158015620002f357600080fd5b505afa15801562000308573d6000803e3d6000fd5b505050506040513d601f19601f820116820180604052508101906200032e919062000d47565b6200036e5760405162461bcd60e51b815260206004820152600f60248201526e34b73b30b634b21039b4b3b732b91760891b6044820152606401620001b6565b60008888888830604051620003839062000a10565b6200039395949392919062000da0565b604051809103906000f080158015620003b0573d6000803e3d6000fd5b5060008b81526001602090815260409182902080547fffffffffffffffffffffffff0000000000000000000000000000000000000000166001600160a01b03851690811790915591519182529192508b917f3305d4d3ab19e5db9b298d307fd2ed70aa0b3a8cc77814f50b75998296755595910160405180910390a250505050505050505050565b6000838152600160205260409020546001600160a01b03166200049e5760405162461bcd60e51b815260206004820152600b60248201527f696e76616c69642069642e0000000000000000000000000000000000000000006044820152606401620001b6565b3360009081526020818152604080832086845290915290205460ff1615620005095760405162461bcd60e51b815260206004820152600f60248201527f616c7265616479206d696e7465642e00000000000000000000000000000000006044820152606401620001b6565b604080516020810185905246918101919091526bffffffffffffffffffffffff1930606090811b82168184015233901b1660748201526000906200055090608801620001e6565b90506000620005968285858080601f0160208091040260200160405190810160405280939291908181526020018383808284376000920191909152506200077192505050565b604051637df73e2760e01b81526001600160a01b0380831660048301529192507f000000000000000000000000000000000000000000000000000000000000000090911690637df73e279060240160206040518083038186803b158015620005fd57600080fd5b505afa15801562000612573d6000803e3d6000fd5b505050506040513d601f19601f8201168201806040525081019062000638919062000d47565b620006785760405162461bcd60e51b815260206004820152600f60248201526e34b73b30b634b21039b4b3b732b91760891b6044820152606401620001b6565b6000858152600160205260408082205490516335313c2160e11b81523360048201526001600160a01b0390911690636a62784290602401602060405180830381600087803b158015620006ca57600080fd5b505af1158015620006df573d6000803e3d6000fd5b505050506040513d601f19601f8201168201806040525081019062000705919062000e01565b336000818152602081815260408083208b845290915290819020805460ff19166001179055519192509087907fc9d0543a84d3510329c0783b91576878ceb484e8699944cb5610c3436b3b8e3990620007619085815260200190565b60405180910390a3505050505050565b600080600062000782858562000799565b915091506200079181620007e3565b509392505050565b600080825160411415620007d45760208301516040840151606085015160001a620007c78782858562000947565b94509450505050620007dc565b506000905060025b9250929050565b6000816004811115620007fa57620007fa62000e1b565b1415620008045750565b60018160048111156200081b576200081b62000e1b565b14156200086b5760405162461bcd60e51b815260206004820152601860248201527f45434453413a20696e76616c6964207369676e617475726500000000000000006044820152606401620001b6565b600281600481111562000882576200088262000e1b565b1415620008d25760405162461bcd60e51b815260206004820152601f60248201527f45434453413a20696e76616c6964207369676e6174757265206c656e677468006044820152606401620001b6565b6003816004811115620008e957620008e962000e1b565b1415620009445760405162461bcd60e51b815260206004820152602260248201527f45434453413a20696e76616c6964207369676e6174757265202773272076616c604482015261756560f01b6064820152608401620001b6565b50565b6000807f7fffffffffffffffffffffffffffffff5d576e7357a4501ddfe92f46681b20a083111562000980575060009050600362000a07565b6040805160008082526020820180845289905260ff881692820192909252606081018690526080810185905260019060a0016020604051602081039080840390855afa158015620009d5573d6000803e3d6000fd5b5050604051601f1901519150506001600160a01b03811662000a005760006001925092505062000a07565b9150600090505b94509492505050565b611f1f8062000e3283390190565b634e487b7160e01b600052604160045260246000fd5b600082601f83011262000a4657600080fd5b813567ffffffffffffffff8082111562000a645762000a6462000a1e565b604051601f8301601f19908116603f0116810190828211818310171562000a8f5762000a8f62000a1e565b8160405283815286602085880101111562000aa957600080fd5b836020870160208301376000602085830101528094505050505092915050565b60008083601f84011262000adc57600080fd5b50813567ffffffffffffffff81111562000af557600080fd5b602083019150836020828501011115620007dc57600080fd5b600080600080600080600060c0888a03121562000b2a57600080fd5b8735965060208801359550604088013567ffffffffffffffff8082111562000b5157600080fd5b62000b5f8b838c0162000a34565b965060608a013591508082111562000b7657600080fd5b62000b848b838c0162000a34565b955060808a013591508082111562000b9b57600080fd5b62000ba98b838c0162000a34565b945060a08a013591508082111562000bc057600080fd5b5062000bcf8a828b0162000ac9565b989b979a50959850939692959293505050565b60006020828403121562000bf557600080fd5b5035919050565b60008060006040848603121562000c1257600080fd5b83359250602084013567ffffffffffffffff81111562000c3157600080fd5b62000c3f8682870162000ac9565b9497909650939450505050565b6000806040838503121562000c6057600080fd5b82356001600160a01b038116811462000c7857600080fd5b946020939093013593505050565b60005b8381101562000ca357818101518382015260200162000c89565b8381111562000cb3576000848401525b50505050565b60006bffffffffffffffffffffffff19808b60601b168352896014840152808960601b16603484015250866048830152856068830152845162000d0481608885016020890162000c86565b84519083019062000d1d81608884016020890162000c86565b845191019062000d3581608884016020880162000c86565b016088019a9950505050505050505050565b60006020828403121562000d5a57600080fd5b8151801515811462000d6b57600080fd5b9392505050565b6000815180845262000d8c81602086016020860162000c86565b601f01601f19169290920160200192915050565b85815260a06020820152600062000dbb60a083018762000d72565b828103604084015262000dcf818762000d72565b9050828103606084015262000de5818662000d72565b9150506001600160a01b03831660808301529695505050505050565b60006020828403121562000e1457600080fd5b5051919050565b634e487b7160e01b600052602160045260246000fdfe60c06040523480156200001157600080fd5b5060405162001f1f38038062001f1f83398101604081905262000034916200020b565b8351849084906200004d90600090602085019062000098565b5080516200006390600190602084019062000098565b505050608085905281516200008090600a90602085019062000098565b506001600160a01b031660a052506200030892505050565b828054620000a690620002cb565b90600052602060002090601f016020900481019282620000ca576000855562000115565b82601f10620000e557805160ff191683800117855562000115565b8280016001018555821562000115579182015b8281111562000115578251825591602001919060010190620000f8565b506200012392915062000127565b5090565b5b8082111562000123576000815560010162000128565b634e487b7160e01b600052604160045260246000fd5b600082601f8301126200016657600080fd5b81516001600160401b03808211156200018357620001836200013e565b604051601f8301601f19908116603f01168101908282118183101715620001ae57620001ae6200013e565b81604052838152602092508683858801011115620001cb57600080fd5b600091505b83821015620001ef5785820183015181830184015290820190620001d0565b83821115620002015760008385830101525b9695505050505050565b600080600080600060a086880312156200022457600080fd5b855160208701519095506001600160401b03808211156200024457600080fd5b6200025289838a0162000154565b955060408801519150808211156200026957600080fd5b6200027789838a0162000154565b945060608801519150808211156200028e57600080fd5b506200029d8882890162000154565b608088015190935090506001600160a01b0381168114620002bd57600080fd5b809150509295509295909350565b600181811c90821680620002e057607f821691505b602082108114156200030257634e487b7160e01b600052602260045260246000fd5b50919050565b60805160a051611be36200033c600039600081816102d001526107be015260008181610242015261080b0152611be36000f3fe608060405234801561001057600080fd5b50600436106101765760003560e01c80634f6ccce7116100d857806397fb22541161008c578063c87b56dd11610066578063c87b56dd14610318578063d547cfb71461032b578063e985e9c51461033357600080fd5b806397fb2254146102cb578063a22cb465146102f2578063b88d4fde1461030557600080fd5b80636a627842116100bd5780636a6278421461029d57806370a08231146102b057806395d89b41146102c357600080fd5b80634f6ccce7146102775780636352211e1461028a57600080fd5b806318160ddd1161012f5780632f745c59116101145780632f745c591461022a578063355274ea1461023d57806342842e0e1461026457600080fd5b806318160ddd1461020f57806323b872dd1461021757600080fd5b806306fdde031161016057806306fdde03146101ba578063081812fc146101cf578063095ea7b3146101fa57600080fd5b80629a9b7b1461017b57806301ffc9a714610197575b600080fd5b610184600b5481565b6040519081526020015b60405180910390f35b6101aa6101a53660046117d7565b61036f565b604051901515815260200161018e565b6101c261039a565b60405161018e919061184c565b6101e26101dd36600461185f565b61042c565b6040516001600160a01b03909116815260200161018e565b61020d610208366004611894565b610453565b005b600854610184565b61020d6102253660046118be565b61056e565b610184610238366004611894565b6105e5565b6101847f000000000000000000000000000000000000000000000000000000000000000081565b61020d6102723660046118be565b61068d565b61018461028536600461185f565b6106a8565b6101e261029836600461185f565b61074c565b6101846102ab3660046118fa565b6107b1565b6101846102be3660046118fa565b61083e565b6101c26108d8565b6101e27f000000000000000000000000000000000000000000000000000000000000000081565b61020d610300366004611915565b6108e7565b61020d610313366004611967565b6108f6565b6101c261032636600461185f565b610974565b6101c26109db565b6101aa610341366004611a43565b6001600160a01b03918216600090815260056020908152604080832093909416825291909152205460ff1690565b60006001600160e01b0319821663780e9d6360e01b1480610394575061039482610a69565b92915050565b6060600080546103a990611a76565b80601f01602080910402602001604051908101604052809291908181526020018280546103d590611a76565b80156104225780601f106103f757610100808354040283529160200191610422565b820191906000526020600020905b81548152906001019060200180831161040557829003601f168201915b5050505050905090565b600061043782610ab9565b506000908152600460205260409020546001600160a01b031690565b600061045e8261074c565b9050806001600160a01b0316836001600160a01b031614156104d15760405162461bcd60e51b815260206004820152602160248201527f4552433732313a20617070726f76616c20746f2063757272656e74206f776e656044820152603960f91b60648201526084015b60405180910390fd5b336001600160a01b03821614806104ed57506104ed8133610341565b61055f5760405162461bcd60e51b815260206004820152603d60248201527f4552433732313a20617070726f76652063616c6c6572206973206e6f7420746f60448201527f6b656e206f776e6572206f7220617070726f76656420666f7220616c6c00000060648201526084016104c8565b6105698383610b20565b505050565b6105783382610b9b565b6105da5760405162461bcd60e51b815260206004820152602d60248201527f4552433732313a2063616c6c6572206973206e6f7420746f6b656e206f776e6560448201526c1c881bdc88185c1c1c9bdd9959609a1b60648201526084016104c8565b610569838383610c1a565b60006105f08361083e565b82106106645760405162461bcd60e51b815260206004820152602b60248201527f455243373231456e756d657261626c653a206f776e657220696e646578206f7560448201527f74206f6620626f756e647300000000000000000000000000000000000000000060648201526084016104c8565b506001600160a01b03919091166000908152600660209081526040808320938352929052205490565b610569838383604051806020016040528060008152506108f6565b60006106b360085490565b82106107275760405162461bcd60e51b815260206004820152602c60248201527f455243373231456e756d657261626c653a20676c6f62616c20696e646578206f60448201527f7574206f6620626f756e6473000000000000000000000000000000000000000060648201526084016104c8565b6008828154811061073a5761073a611ab1565b90600052602060002001549050919050565b6000818152600260205260408120546001600160a01b0316806103945760405162461bcd60e51b815260206004820152601860248201527f4552433732313a20696e76616c696420746f6b656e204944000000000000000060448201526064016104c8565b6000336001600160a01b037f000000000000000000000000000000000000000000000000000000000000000016146107e857600080fd5b600b8054600091826107f983611add565b9190505590506108098382610e14565b7f000000000000000000000000000000000000000000000000000000000000000061083360085490565b111561039457600080fd5b60006001600160a01b0382166108bc5760405162461bcd60e51b815260206004820152602960248201527f4552433732313a2061646472657373207a65726f206973206e6f74206120766160448201527f6c6964206f776e6572000000000000000000000000000000000000000000000060648201526084016104c8565b506001600160a01b031660009081526003602052604090205490565b6060600180546103a990611a76565b6108f2338383610e2e565b5050565b6109003383610b9b565b6109625760405162461bcd60e51b815260206004820152602d60248201527f4552433732313a2063616c6c6572206973206e6f7420746f6b656e206f776e6560448201526c1c881bdc88185c1c1c9bdd9959609a1b60648201526084016104c8565b61096e84848484610efd565b50505050565b606061097f82610ab9565b6000610989610f7b565b905060008151116109a957604051806020016040528060008152506109d4565b806109b384610f8a565b6040516020016109c4929190611af8565b6040516020818303038152906040525b9392505050565b600a80546109e890611a76565b80601f0160208091040260200160405190810160405280929190818152602001828054610a1490611a76565b8015610a615780601f10610a3657610100808354040283529160200191610a61565b820191906000526020600020905b815481529060010190602001808311610a4457829003601f168201915b505050505081565b60006001600160e01b031982166380ac58cd60e01b1480610a9a57506001600160e01b03198216635b5e139f60e01b145b8061039457506301ffc9a760e01b6001600160e01b0319831614610394565b6000818152600260205260409020546001600160a01b0316610b1d5760405162461bcd60e51b815260206004820152601860248201527f4552433732313a20696e76616c696420746f6b656e204944000000000000000060448201526064016104c8565b50565b6000818152600460205260409020805473ffffffffffffffffffffffffffffffffffffffff19166001600160a01b0384169081179091558190610b628261074c565b6001600160a01b03167f8c5be1e5ebec7d5bd14f71427d1e84f3dd0314c0f7b2291e5b200ac8c7c3b92560405160405180910390a45050565b600080610ba78361074c565b9050806001600160a01b0316846001600160a01b03161480610bee57506001600160a01b0380821660009081526005602090815260408083209388168352929052205460ff165b80610c125750836001600160a01b0316610c078461042c565b6001600160a01b0316145b949350505050565b826001600160a01b0316610c2d8261074c565b6001600160a01b031614610c915760405162461bcd60e51b815260206004820152602560248201527f4552433732313a207472616e736665722066726f6d20696e636f72726563742060448201526437bbb732b960d91b60648201526084016104c8565b6001600160a01b038216610cf35760405162461bcd60e51b8152602060048201526024808201527f4552433732313a207472616e7366657220746f20746865207a65726f206164646044820152637265737360e01b60648201526084016104c8565b610d008383836001611034565b826001600160a01b0316610d138261074c565b6001600160a01b031614610d775760405162461bcd60e51b815260206004820152602560248201527f4552433732313a207472616e736665722066726f6d20696e636f72726563742060448201526437bbb732b960d91b60648201526084016104c8565b6000818152600460209081526040808320805473ffffffffffffffffffffffffffffffffffffffff199081169091556001600160a01b0387811680865260038552838620805460001901905590871680865283862080546001019055868652600290945282852080549092168417909155905184937fddf252ad1be2c89b69c2b068fc378daa952ba7f163c4a11628f55a4df523b3ef91a4505050565b6108f2828260405180602001604052806000815250611097565b816001600160a01b0316836001600160a01b03161415610e905760405162461bcd60e51b815260206004820152601960248201527f4552433732313a20617070726f766520746f2063616c6c65720000000000000060448201526064016104c8565b6001600160a01b03838116600081815260056020908152604080832094871680845294825291829020805460ff191686151590811790915591519182527f17307eab39ab6107e8899845ad3d59bd9653f200f220920489ca2b5937696c31910160405180910390a3505050565b610f08848484610c1a565b610f1484848484611115565b61096e5760405162461bcd60e51b815260206004820152603260248201527f4552433732313a207472616e7366657220746f206e6f6e20455243373231526560448201527131b2b4bb32b91034b6b83632b6b2b73a32b960711b60648201526084016104c8565b6060600a80546103a990611a76565b60606000610f978361126d565b600101905060008167ffffffffffffffff811115610fb757610fb7611951565b6040519080825280601f01601f191660200182016040528015610fe1576020820181803683370190505b5090508181016020015b600019017f3031323334353637383961626364656600000000000000000000000000000000600a86061a8153600a85049450846110275761102c565b610feb565b509392505050565b6001600160a01b0384161561108b5760405162461bcd60e51b815260206004820152600960248201527f666f7262696464656e000000000000000000000000000000000000000000000060448201526064016104c8565b61096e8484848461134f565b6110a1838361148b565b6110ae6000848484611115565b6105695760405162461bcd60e51b815260206004820152603260248201527f4552433732313a207472616e7366657220746f206e6f6e20455243373231526560448201527131b2b4bb32b91034b6b83632b6b2b73a32b960711b60648201526084016104c8565b60006001600160a01b0384163b1561126257604051630a85bd0160e11b81526001600160a01b0385169063150b7a0290611159903390899088908890600401611b27565b602060405180830381600087803b15801561117357600080fd5b505af19250505080156111a3575060408051601f3d908101601f191682019092526111a091810190611b63565b60015b611248573d8080156111d1576040519150601f19603f3d011682016040523d82523d6000602084013e6111d6565b606091505b5080516112405760405162461bcd60e51b815260206004820152603260248201527f4552433732313a207472616e7366657220746f206e6f6e20455243373231526560448201527131b2b4bb32b91034b6b83632b6b2b73a32b960711b60648201526084016104c8565b805181602001fd5b6001600160e01b031916630a85bd0160e11b149050610c12565b506001949350505050565b6000807a184f03e93ff9f4daa797ed6e38ed64bf6a1f01000000000000000083106112b6577a184f03e93ff9f4daa797ed6e38ed64bf6a1f010000000000000000830492506040015b6d04ee2d6d415b85acef810000000083106112e2576d04ee2d6d415b85acef8100000000830492506020015b662386f26fc10000831061130057662386f26fc10000830492506010015b6305f5e1008310611318576305f5e100830492506008015b612710831061132c57612710830492506004015b6064831061133e576064830492506002015b600a83106103945760010192915050565b60018111156113c65760405162461bcd60e51b815260206004820152603560248201527f455243373231456e756d657261626c653a20636f6e736563757469766520747260448201527f616e7366657273206e6f7420737570706f72746564000000000000000000000060648201526084016104c8565b816001600160a01b0385166114225761141d81600880546000838152600960205260408120829055600182018355919091527ff3f7a9fe364faab93b216da50a3214154f22a0a2b415b23a84c8169e8b636ee30155565b611445565b836001600160a01b0316856001600160a01b031614611445576114458582611631565b6001600160a01b0384166114615761145c816116ce565b611484565b846001600160a01b0316846001600160a01b03161461148457611484848261177d565b5050505050565b6001600160a01b0382166114e15760405162461bcd60e51b815260206004820181905260248201527f4552433732313a206d696e7420746f20746865207a65726f206164647265737360448201526064016104c8565b6000818152600260205260409020546001600160a01b0316156115465760405162461bcd60e51b815260206004820152601c60248201527f4552433732313a20746f6b656e20616c7265616479206d696e7465640000000060448201526064016104c8565b611554600083836001611034565b6000818152600260205260409020546001600160a01b0316156115b95760405162461bcd60e51b815260206004820152601c60248201527f4552433732313a20746f6b656e20616c7265616479206d696e7465640000000060448201526064016104c8565b6001600160a01b0382166000818152600360209081526040808320805460010190558483526002909152808220805473ffffffffffffffffffffffffffffffffffffffff19168417905551839291907fddf252ad1be2c89b69c2b068fc378daa952ba7f163c4a11628f55a4df523b3ef908290a45050565b6000600161163e8461083e565b6116489190611b80565b60008381526007602052604090205490915080821461169b576001600160a01b03841660009081526006602090815260408083208584528252808320548484528184208190558352600790915290208190555b5060009182526007602090815260408084208490556001600160a01b039094168352600681528383209183525290812055565b6008546000906116e090600190611b80565b6000838152600960205260408120546008805493945090928490811061170857611708611ab1565b90600052602060002001549050806008838154811061172957611729611ab1565b600091825260208083209091019290925582815260099091526040808220849055858252812055600880548061176157611761611b97565b6001900381819060005260206000200160009055905550505050565b60006117888361083e565b6001600160a01b039093166000908152600660209081526040808320868452825280832085905593825260079052919091209190915550565b6001600160e01b031981168114610b1d57600080fd5b6000602082840312156117e957600080fd5b81356109d4816117c1565b60005b8381101561180f5781810151838201526020016117f7565b8381111561096e5750506000910152565b600081518084526118388160208601602086016117f4565b601f01601f19169290920160200192915050565b6020815260006109d46020830184611820565b60006020828403121561187157600080fd5b5035919050565b80356001600160a01b038116811461188f57600080fd5b919050565b600080604083850312156118a757600080fd5b6118b083611878565b946020939093013593505050565b6000806000606084860312156118d357600080fd5b6118dc84611878565b92506118ea60208501611878565b9150604084013590509250925092565b60006020828403121561190c57600080fd5b6109d482611878565b6000806040838503121561192857600080fd5b61193183611878565b91506020830135801515811461194657600080fd5b809150509250929050565b634e487b7160e01b600052604160045260246000fd5b6000806000806080858703121561197d57600080fd5b61198685611878565b935061199460208601611878565b925060408501359150606085013567ffffffffffffffff808211156119b857600080fd5b818701915087601f8301126119cc57600080fd5b8135818111156119de576119de611951565b604051601f8201601f19908116603f01168101908382118183101715611a0657611a06611951565b816040528281528a6020848701011115611a1f57600080fd5b82602086016020830137600060208483010152809550505050505092959194509250565b60008060408385031215611a5657600080fd5b611a5f83611878565b9150611a6d60208401611878565b90509250929050565b600181811c90821680611a8a57607f821691505b60208210811415611aab57634e487b7160e01b600052602260045260246000fd5b50919050565b634e487b7160e01b600052603260045260246000fd5b634e487b7160e01b600052601160045260246000fd5b6000600019821415611af157611af1611ac7565b5060010190565b60008351611b0a8184602088016117f4565b835190830190611b1e8183602088016117f4565b01949350505050565b60006001600160a01b03808716835280861660208401525083604083015260806060830152611b596080830184611820565b9695505050505050565b600060208284031215611b7557600080fd5b81516109d4816117c1565b600082821015611b9257611b92611ac7565b500390565b634e487b7160e01b600052603160045260246000fdfea26469706673582212208e94eb8f8625a5f1732e5c01db23292e42161edc105494a80fd13bdb49485b7564736f6c63430008090033a264697066735822122061aa3a0cc9a0f5819a1abc8007158288c1420085f35cba8f542be65ec047b1a464736f6c63430008090033",
  "devdoc": {
    "kind": "dev",
    "methods": {},
    "version": 1
  },
  "userdoc": {
    "kind": "user",
    "methods": {},
    "version": 1
  },
  "storageLayout": {
    "storage": [
      {
        "astId": 11922,
        "contract": "contracts/SBTFactory.sol:SBTFactory",
        "label": "minted",
        "offset": 0,
        "slot": "0",
        "type": "t_mapping(t_address,t_mapping(t_uint256,t_bool))"
      },
      {
        "astId": 11926,
        "contract": "contracts/SBTFactory.sol:SBTFactory",
        "label": "deployedAddress",
        "offset": 0,
        "slot": "1",
        "type": "t_mapping(t_uint256,t_address)"
      }
    ],
    "types": {
      "t_address": {
        "encoding": "inplace",
        "label": "address",
        "numberOfBytes": "20"
      },
      "t_bool": {
        "encoding": "inplace",
        "label": "bool",
        "numberOfBytes": "1"
      },
      "t_mapping(t_address,t_mapping(t_uint256,t_bool))": {
        "encoding": "mapping",
        "key": "t_address",
        "label": "mapping(address => mapping(uint256 => bool))",
        "numberOfBytes": "32",
        "value": "t_mapping(t_uint256,t_bool)"
      },
      "t_mapping(t_uint256,t_address)": {
        "encoding": "mapping",
        "key": "t_uint256",
        "label": "mapping(uint256 => address)",
        "numberOfBytes": "32",
        "value": "t_address"
      },
      "t_mapping(t_uint256,t_bool)": {
        "encoding": "mapping",
        "key": "t_uint256",
        "label": "mapping(uint256 => bool)",
        "numberOfBytes": "32",
        "value": "t_bool"
      },
      "t_uint256": {
        "encoding": "inplace",
        "label": "uint256",
        "numberOfBytes": "32"
      }
    }
  }
}