{
  "address": "0x58f73eE4a94079D6C2058e971fFdc5cE8Cd9bD57",
  "abi": [
    {
      "inputs": [],
      "stateMutability": "nonpayable",
      "type": "constructor"
    },
    {
      "anonymous": false,
      "inputs": [
        {
          "indexed": true,
          "internalType": "address",
          "name": "account",
          "type": "address"
        },
        {
          "indexed": true,
          "internalType": "address",
          "name": "token",
          "type": "address"
        },
        {
          "indexed": false,
          "internalType": "uint256",
          "name": "amount",
          "type": "uint256"
        }
      ],
      "name": "ClaimReserve",
      "type": "event"
    },
    {
      "anonymous": false,
      "inputs": [
        {
          "indexed": true,
          "internalType": "uint256",
          "name": "handler",
          "type": "uint256"
        },
        {
          "indexed": true,
          "internalType": "address",
          "name": "creator",
          "type": "address"
        },
        {
          "indexed": true,
          "internalType": "address",
          "name": "daoAddress",
          "type": "address"
        },
        {
          "indexed": false,
          "internalType": "uint256",
          "name": "chainId",
          "type": "uint256"
        },
        {
          "indexed": false,
          "internalType": "address",
          "name": "tokenAddress",
          "type": "address"
        }
      ],
      "name": "CreateDAO",
      "type": "event"
    },
    {
      "anonymous": false,
      "inputs": [
        {
          "indexed": true,
          "internalType": "address",
          "name": "creator",
          "type": "address"
        },
        {
          "indexed": false,
          "internalType": "address",
          "name": "token",
          "type": "address"
        }
      ],
      "name": "CreateERC20",
      "type": "event"
    },
    {
      "anonymous": false,
      "inputs": [
        {
          "indexed": false,
          "internalType": "uint8",
          "name": "version",
          "type": "uint8"
        }
      ],
      "name": "Initialized",
      "type": "event"
    },
    {
      "anonymous": false,
      "inputs": [
        {
          "indexed": true,
          "internalType": "address",
          "name": "previousOwner",
          "type": "address"
        },
        {
          "indexed": true,
          "internalType": "address",
          "name": "newOwner",
          "type": "address"
        }
      ],
      "name": "OwnershipTransferred",
      "type": "event"
    },
    {
      "anonymous": false,
      "inputs": [
        {
          "indexed": true,
          "internalType": "address",
          "name": "account",
          "type": "address"
        },
        {
          "indexed": false,
          "internalType": "bool",
          "name": "enable",
          "type": "bool"
        }
      ],
      "name": "SignerSet",
      "type": "event"
    },
    {
      "inputs": [
        {
          "internalType": "uint256",
          "name": "index_",
          "type": "uint256"
        }
      ],
      "name": "claimReserve",
      "outputs": [],
      "stateMutability": "nonpayable",
      "type": "function"
    },
    {
      "inputs": [
        {
          "components": [
            {
              "internalType": "string",
              "name": "name",
              "type": "string"
            },
            {
              "internalType": "string",
              "name": "handle",
              "type": "string"
            },
            {
              "internalType": "string",
              "name": "category",
              "type": "string"
            },
            {
              "internalType": "string",
              "name": "description",
              "type": "string"
            },
            {
              "internalType": "string",
              "name": "twitter",
              "type": "string"
            },
            {
              "internalType": "string",
              "name": "github",
              "type": "string"
            },
            {
              "internalType": "string",
              "name": "discord",
              "type": "string"
            },
            {
              "internalType": "string",
              "name": "daoLogo",
              "type": "string"
            },
            {
              "internalType": "string",
              "name": "website",
              "type": "string"
            }
          ],
          "internalType": "struct IDAOBase.General",
          "name": "general_",
          "type": "tuple"
        },
        {
          "components": [
            {
              "internalType": "uint256",
              "name": "chainId",
              "type": "uint256"
            },
            {
              "internalType": "address",
              "name": "tokenAddress",
              "type": "address"
            }
          ],
          "internalType": "struct IDAOBase.Token",
          "name": "token_",
          "type": "tuple"
        },
        {
          "components": [
            {
              "internalType": "uint256",
              "name": "proposalThreshold",
              "type": "uint256"
            },
            {
              "internalType": "uint256",
              "name": "votingThreshold",
              "type": "uint256"
            },
            {
              "internalType": "uint256",
              "name": "votingPeriod",
              "type": "uint256"
            },
            {
              "internalType": "enum IDAOBase.VotingType",
              "name": "votingType",
              "type": "uint8"
            }
          ],
          "internalType": "struct IDAOBase.Governance",
          "name": "governance_",
          "type": "tuple"
        },
        {
          "internalType": "uint256",
          "name": "deadline_",
          "type": "uint256"
        },
        {
          "internalType": "bytes",
          "name": "signature_",
          "type": "bytes"
        }
      ],
      "name": "createDAO",
      "outputs": [],
      "stateMutability": "nonpayable",
      "type": "function"
    },
    {
      "inputs": [
        {
          "internalType": "string",
          "name": "name_",
          "type": "string"
        },
        {
          "internalType": "string",
          "name": "symbol_",
          "type": "string"
        },
        {
          "internalType": "string",
          "name": "logoUrl_",
          "type": "string"
        },
        {
          "internalType": "uint8",
          "name": "decimal_",
          "type": "uint8"
        },
        {
          "internalType": "uint256",
          "name": "totalSupply_",
          "type": "uint256"
        },
        {
          "components": [
            {
              "internalType": "address",
              "name": "recipient",
              "type": "address"
            },
            {
              "internalType": "uint256",
              "name": "amount",
              "type": "uint256"
            },
            {
              "internalType": "uint256",
              "name": "lockDate",
              "type": "uint256"
            }
          ],
          "internalType": "struct IDAOFactory.DistributionParam[]",
          "name": "distributions_",
          "type": "tuple[]"
        }
      ],
      "name": "createERC20",
      "outputs": [],
      "stateMutability": "nonpayable",
      "type": "function"
    },
    {
      "inputs": [],
      "name": "daoImpl",
      "outputs": [
        {
          "internalType": "address",
          "name": "",
          "type": "address"
        }
      ],
      "stateMutability": "view",
      "type": "function"
    },
    {
      "inputs": [
        {
          "internalType": "address",
          "name": "account_",
          "type": "address"
        }
      ],
      "name": "getReserved",
      "outputs": [
        {
          "components": [
            {
              "internalType": "address",
              "name": "token",
              "type": "address"
            },
            {
              "internalType": "uint256",
              "name": "amount",
              "type": "uint256"
            },
            {
              "internalType": "uint256",
              "name": "lockDate",
              "type": "uint256"
            }
          ],
          "internalType": "struct IDAOFactory.Reserve[]",
          "name": "",
          "type": "tuple[]"
        }
      ],
      "stateMutability": "view",
      "type": "function"
    },
    {
      "inputs": [
        {
          "internalType": "string",
          "name": "",
          "type": "string"
        }
      ],
      "name": "handles",
      "outputs": [
        {
          "internalType": "bool",
          "name": "",
          "type": "bool"
        }
      ],
      "stateMutability": "view",
      "type": "function"
    },
    {
      "inputs": [
        {
          "internalType": "address",
          "name": "account_",
          "type": "address"
        }
      ],
      "name": "increaseNonce",
      "outputs": [
        {
          "internalType": "uint256",
          "name": "_nonce",
          "type": "uint256"
        }
      ],
      "stateMutability": "nonpayable",
      "type": "function"
    },
    {
      "inputs": [
        {
          "internalType": "address",
          "name": "daoImpl_",
          "type": "address"
        },
        {
          "internalType": "address",
          "name": "tokenImpl_",
          "type": "address"
        }
      ],
      "name": "initialize",
      "outputs": [],
      "stateMutability": "nonpayable",
      "type": "function"
    },
    {
      "inputs": [
        {
          "internalType": "address",
          "name": "signer_",
          "type": "address"
        }
      ],
      "name": "isSigner",
      "outputs": [
        {
          "internalType": "bool",
          "name": "",
          "type": "bool"
        }
      ],
      "stateMutability": "view",
      "type": "function"
    },
    {
      "inputs": [
        {
          "internalType": "address",
          "name": "",
          "type": "address"
        }
      ],
      "name": "logoURLs",
      "outputs": [
        {
          "internalType": "string",
          "name": "",
          "type": "string"
        }
      ],
      "stateMutability": "view",
      "type": "function"
    },
    {
      "inputs": [
        {
          "internalType": "address",
          "name": "",
          "type": "address"
        }
      ],
      "name": "nonces",
      "outputs": [
        {
          "internalType": "uint256",
          "name": "",
          "type": "uint256"
        }
      ],
      "stateMutability": "view",
      "type": "function"
    },
    {
      "inputs": [],
      "name": "owner",
      "outputs": [
        {
          "internalType": "address",
          "name": "",
          "type": "address"
        }
      ],
      "stateMutability": "view",
      "type": "function"
    },
    {
      "inputs": [],
      "name": "proxyAdminAddress",
      "outputs": [
        {
          "internalType": "address",
          "name": "",
          "type": "address"
        }
      ],
      "stateMutability": "view",
      "type": "function"
    },
    {
      "inputs": [],
      "name": "renounceOwnership",
      "outputs": [],
      "stateMutability": "nonpayable",
      "type": "function"
    },
    {
      "inputs": [
        {
          "internalType": "address",
          "name": "",
          "type": "address"
        },
        {
          "internalType": "uint256",
          "name": "",
          "type": "uint256"
        }
      ],
      "name": "reserves",
      "outputs": [
        {
          "internalType": "address",
          "name": "token",
          "type": "address"
        },
        {
          "internalType": "uint256",
          "name": "amount",
          "type": "uint256"
        },
        {
          "internalType": "uint256",
          "name": "lockDate",
          "type": "uint256"
        }
      ],
      "stateMutability": "view",
      "type": "function"
    },
    {
      "inputs": [
        {
          "internalType": "address",
          "name": "daoImpl_",
          "type": "address"
        }
      ],
      "name": "setDaoImpl",
      "outputs": [],
      "stateMutability": "nonpayable",
      "type": "function"
    },
    {
      "inputs": [
        {
          "internalType": "address",
          "name": "signer_",
          "type": "address"
        },
        {
          "internalType": "bool",
          "name": "enable_",
          "type": "bool"
        }
      ],
      "name": "setSigner",
      "outputs": [],
      "stateMutability": "nonpayable",
      "type": "function"
    },
    {
      "inputs": [
        {
          "internalType": "address",
          "name": "tokenImpl_",
          "type": "address"
        }
      ],
      "name": "setTokenImpl",
      "outputs": [],
      "stateMutability": "nonpayable",
      "type": "function"
    },
    {
      "inputs": [],
      "name": "tokenImpl",
      "outputs": [
        {
          "internalType": "address",
          "name": "",
          "type": "address"
        }
      ],
      "stateMutability": "view",
      "type": "function"
    },
    {
      "inputs": [
        {
          "internalType": "address",
          "name": "",
          "type": "address"
        },
        {
          "internalType": "uint256",
          "name": "",
          "type": "uint256"
        }
      ],
      "name": "tokensByAccount",
      "outputs": [
        {
          "internalType": "address",
          "name": "",
          "type": "address"
        }
      ],
      "stateMutability": "view",
      "type": "function"
    },
    {
      "inputs": [
        {
          "internalType": "address",
          "name": "newOwner",
          "type": "address"
        }
      ],
      "name": "transferOwnership",
      "outputs": [],
      "stateMutability": "nonpayable",
      "type": "function"
    },
    {
      "inputs": [
        {
          "internalType": "address payable",
          "name": "daoAddress_",
          "type": "address"
        }
      ],
      "name": "upgradeProxy",
      "outputs": [],
      "stateMutability": "nonpayable",
      "type": "function"
    }
  ],
  "transactionHash": "0x2916ffb8b6297e7d4450ee0740a82ae4e49380a9c58c0f1e7e4d0a70317a6b04",
  "args": [],
  "solcInputHash": "490a83286bd2273b596aa9a5f2d45765",
  "bytecode": "0x608060405234801561001057600080fd5b50613f45806100206000396000f3fe60806040523480156200001157600080fd5b5060043610620001a15760003560e01c80638da5cb5b11620000e9578063c2a284231162000097578063f2fde38b116200006e578063f2fde38b14620003ea578063f4347dd91462000401578063ffc4992f146200043257600080fd5b8063c2a28423146200037f578063de25de501462000396578063e48070b314620003d357600080fd5b80639a39728f11620000cc5780639a39728f146200032b578063acdd39b61462000351578063c22726d8146200036857600080fd5b80638da5cb5b146200030257806393222aed146200031457600080fd5b80636c6589af11620001535780637df73e27116200012a5780637df73e2714620002795780637ecebe0014620002b95780638247a97c14620002eb57600080fd5b80636c6589af1462000241578063715018a6146200025857806374474d28146200026257600080fd5b8063485cc9551162000188578063485cc95514620001f05780635979e75514620002075780636b672613146200021b57600080fd5b806314530eb714620001a657806331cb610514620001d7575b600080fd5b606654620001ba906001600160a01b031681565b6040516001600160a01b0390911681526020015b60405180910390f35b620001ee620001e836600462001f9c565b62000446565b005b620001ee6200020136600462001fda565b620004af565b606554620001ba906001600160a01b031681565b620002326200022c3660046200200d565b6200065d565b604051620001ce919062002034565b620001ee6200025236600462002098565b620006f7565b620001ee620009ae565b620001ee620002733660046200200d565b620009c6565b620002a86200028a3660046200200d565b6001600160a01b031660009081526068602052604090205460ff1690565b6040519015158152602001620001ce565b620002dc620002ca3660046200200d565b606a6020526000908152604090205481565b604051908152602001620001ce565b620002dc620002fc3660046200200d565b62000cf8565b6033546001600160a01b0316620001ba565b620001ee620003253660046200200d565b62000db3565b620003426200033c3660046200200d565b62000ddf565b604051620001ce919062002113565b620001ee620003623660046200222d565b62000e81565b620001ba620003793660046200230a565b62001141565b620001ee620003903660046200237e565b6200117a565b620003ad620003a73660046200230a565b620015be565b604080516001600160a01b039094168452602084019290925290820152606001620001ce565b620001ee620003e43660046200200d565b6200160b565b620001ee620003fb3660046200200d565b62001637565b620002a8620004123660046200243e565b805160208183018101805160678252928201919093012091525460ff1681565b606b54620001ba906001600160a01b031681565b62000450620016cd565b6001600160a01b038216600081815260686020908152604091829020805460ff191685151590811790915591519182527ffc4acb499491cd850a8a21ab98c7f128850c0f0e5f1a875a62b7fa055c2ecf19910160405180910390a25050565b600054610100900460ff1615808015620004d05750600054600160ff909116105b80620004ec5750303b158015620004ec575060005460ff166001145b620005645760405162461bcd60e51b815260206004820152602e60248201527f496e697469616c697a61626c653a20636f6e747261637420697320616c72656160448201527f647920696e697469616c697a656400000000000000000000000000000000000060648201526084015b60405180910390fd5b6000805460ff19166001179055801562000588576000805461ff0019166101001790555b606680546001600160a01b038086166001600160a01b031992831617909255606b805492851692909116919091179055620005c262001729565b6000604051620005d29062001eb5565b604051809103906000f080158015620005ef573d6000803e3d6000fd5b50606580546001600160a01b0319166001600160a01b039290921691909117905550801562000658576000805461ff0019169055604051600181527f7f26b83ff96e1f2b6a682f133852f6798a09c465da95921460cefb38474024989060200160405180910390a15b505050565b6001600160a01b0381166000908152606d60209081526040808320805482518185028101850190935280835260609492939192909184015b82821015620006ec576000848152602090819020604080516060810182526003860290920180546001600160a01b031683526001808201548486015260029091015491830191909152908352909201910162000695565b505050509050919050565b336000908152606d6020526040902054808210620007585760405162461bcd60e51b815260206004820152601a60248201527f44414f466163746f72793a20696e76616c696420696e6465782e00000000000060448201526064016200055b565b336000908152606d602052604081208054849081106200077c576200077c62002477565b600091825260209182902060408051606081018252600390930290910180546001600160a01b031683526001810154938301939093526002909201549181018290529150421015620008115760405162461bcd60e51b815260206004820152601360248201527f44414f466163746f72793a206c6f636b65642e0000000000000000000000000060448201526064016200055b565b6200081e600183620024a3565b831015620008df57336000908152606d6020526040902062000842600184620024a3565b8154811062000855576200085562002477565b9060005260206000209060030201606d6000336001600160a01b03166001600160a01b0316815260200190815260200160002084815481106200089c576200089c62002477565b60009182526020909120825460039092020180546001600160a01b0319166001600160a01b03909216919091178155600180830154908201556002918201549101555b336000908152606d60205260409020805480620009005762000900620024bd565b6000828152602080822060036000199094019384020180546001600160a01b031916815560018101839055600201919091559155810151815162000953916001600160a01b0391909116903390620017a0565b80600001516001600160a01b0316336001600160a01b03167f8c2348eef2ad1de705c3b471bf6d7e42e7837ece8c18423a9364241bdc2b53a58360200151604051620009a191815260200190565b60405180910390a3505050565b620009b8620016cd565b620009c4600062001809565b565b60655460408051638da5cb5b60e01b815290516001600160a01b0392831692339290851691638da5cb5b91600480820192602092909190829003018186803b15801562000a1257600080fd5b505afa15801562000a27573d6000803e3d6000fd5b505050506040513d601f19601f8201168201806040525081019062000a4d9190620024d3565b6001600160a01b03161462000acb5760405162461bcd60e51b815260206004820152602960248201527f44414f466163746f72793a2063616e6e6f74206f6e6c7920757067726164652060448201527f6279206f776e65722e000000000000000000000000000000000000000000000060648201526084016200055b565b60405163f3b7dead60e01b81526001600160a01b038381166004830152821690819063f3b7dead9060240160206040518083038186803b15801562000b0f57600080fd5b505afa15801562000b24573d6000803e3d6000fd5b505050506040513d601f19601f8201168201806040525081019062000b4a9190620024d3565b6001600160a01b03161462000bae5760405162461bcd60e51b8152602060048201526024808201527f44414f466163746f72793a206e6f7420612076616c69642064616f206164647260448201526332b9b99760e11b60648201526084016200055b565b6066546040516310270e3d60e11b81526001600160a01b0384811660048301529182169183169063204e1c7a9060240160206040518083038186803b15801562000bf757600080fd5b505afa15801562000c0c573d6000803e3d6000fd5b505050506040513d601f19601f8201168201806040525081019062000c329190620024d3565b6001600160a01b0316141562000c8b5760405162461bcd60e51b815260206004820152601f60248201527f44414f466163746f72793a20616c72656164792075702d746f2d646174652e0060448201526064016200055b565b60665460405163266a23b160e21b81526001600160a01b0384811660048301529182166024820152908216906399a88ec490604401600060405180830381600087803b15801562000cdb57600080fd5b505af115801562000cf0573d6000803e3d6000fd5b505050505050565b3360009081526069602052604081205460ff1662000d7f5760405162461bcd60e51b815260206004820152602560248201527f44414f466163746f72793a2063616c6c6572206e6f7420612064616f2061646460448201527f726573732e00000000000000000000000000000000000000000000000000000060648201526084016200055b565b506001600160a01b0381166000908152606a6020526040812080549182919062000da983620024f3565b9190505550919050565b62000dbd620016cd565b606680546001600160a01b0319166001600160a01b0392909216919091179055565b606c602052600090815260409020805462000dfa9062002511565b80601f016020809104026020016040519081016040528092919081815260200182805462000e289062002511565b801562000e795780601f1062000e4d5761010080835404028352916020019162000e79565b820191906000526020600020905b81548152906001019060200180831162000e5b57829003601f168201915b505050505081565b606b5460009062000e9b906001600160a01b03166200185b565b60405163253279ad60e01b81529091506001600160a01b0382169063253279ad9062000ed2908b908b908a908a906004016200254e565b600060405180830381600087803b15801562000eed57600080fd5b505af115801562000f02573d6000803e3d6000fd5b505050506001600160a01b0381166000908152606c60209081526040909120875162000f319289019062001ec3565b50336000908152606e60209081526040822080546001810182559083529082200180546001600160a01b0319166001600160a01b038416179055805b838110156200104e573685858381811062000f8c5762000f8c62002477565b606002919091019150606d9050600062000faa60208401846200200d565b6001600160a01b03908116825260208083019390935260409182016000908120835160608101855289841681528686013581870181815288870135968301968752835460018082018655948652979094209151600390970290910180546001600160a01b0319169690941695909517835590519082015590516002909101556200103590846200258e565b92505080806200104590620024f3565b91505062000f6d565b508085111562001081576200107b33620010698388620024a3565b6001600160a01b0385169190620017a0565b620010f8565b808514620010f85760405162461bcd60e51b815260206004820152603160248201527f44414f466163746f72793a20646973747269627574656420616d6f756e74206560448201527f786365656420746f74616c537570706c7900000000000000000000000000000060648201526084016200055b565b6040516001600160a01b038316815233907fb0f993ab8543f13aa84bdeb5c87bd3ff7d528bada24f4c373c452c6b85bb33b89060200160405180910390a2505050505050505050565b606e60205281600052604060002081815481106200115e57600080fd5b6000918252602090912001546001600160a01b03169150829050565b43831015620011d75760405162461bcd60e51b815260206004820152602260248201527f44414f466163746f72793a207369676e61747572652077617320657870697265604482015261321760f11b60648201526084016200055b565b6067620011e86020880188620025a9565b604051620011f8929190620025f3565b9081526040519081900360200190205460ff1615620012665760405162461bcd60e51b8152602060048201526024808201527f44414f466163746f72793a2068616e646c6520697320616c726561647920746160448201526335b2b71760e11b60648201526084016200055b565b6000620012776020880188620025a9565b6040516020016200128a929190620025f3565b60408051808303601f1901815282825280516020918201203360601b6bffffffffffffffffffffffff191682850152466034850152605484018890526074808501829052835180860390910181526094850184528051908301207f19457468657265756d205369676e6564204d6573736167653a0a33320000000060b486015260d0808601919091528351808603909101815260f09094019092528251920191909120909150620013766200028a8286868080601f016020809104026020016040519081016040528093929190818152602001838380828437600092019190915250620018fe92505050565b620013c45760405162461bcd60e51b815260206004820152601b60248201527f44414f466163746f72793a20696e76616c6964207369676e65722e000000000060448201526064016200055b565b6066546065546040516000926001600160a01b03908116921690620013e99062001f52565b6001600160a01b03928316815291166020820152606060408201819052600090820152608001604051809103906000f0801580156200142c573d6000803e3d6000fd5b50604051630ecf3d1360e11b81529091506001600160a01b03821690631d9e7a269062001462908c908c908c90600401620026e9565b600060405180830381600087803b1580156200147d57600080fd5b505af115801562001492573d6000803e3d6000fd5b505060405163f2fde38b60e01b81523360048201526001600160a01b038416925063f2fde38b9150602401600060405180830381600087803b158015620014d857600080fd5b505af1158015620014ed573d6000803e3d6000fd5b50505050600160678a8060200190620015079190620025a9565b60405162001517929190620025f3565b90815260408051918290036020908101909220805493151560ff199485161790556001600160a01b0384166000818152606984528290208054909416600117909355339186917ff79df5de0ebf3efc8701dcd65b1036156fa8e26c1070165aabad66806806445a918d35916200159391908f01908f016200200d565b604080519283526001600160a01b0390911660208301520160405180910390a4505050505050505050565b606d6020528160005260406000208181548110620015db57600080fd5b60009182526020909120600390910201805460018201546002909201546001600160a01b03909116935090915083565b62001615620016cd565b606b80546001600160a01b0319166001600160a01b0392909216919091179055565b62001641620016cd565b6001600160a01b038116620016bf5760405162461bcd60e51b815260206004820152602660248201527f4f776e61626c653a206e6577206f776e657220697320746865207a65726f206160448201527f646472657373000000000000000000000000000000000000000000000000000060648201526084016200055b565b620016ca8162001809565b50565b6033546001600160a01b03163314620009c45760405162461bcd60e51b815260206004820181905260248201527f4f776e61626c653a2063616c6c6572206973206e6f7420746865206f776e657260448201526064016200055b565b600054610100900460ff16620017965760405162461bcd60e51b815260206004820152602b60248201527f496e697469616c697a61626c653a20636f6e7472616374206973206e6f74206960448201526a6e697469616c697a696e6760a81b60648201526084016200055b565b620009c462001926565b604080516001600160a01b038416602482015260448082018490528251808303909101815260649091019091526020810180517bffffffffffffffffffffffffffffffffffffffffffffffffffffffff1663a9059cbb60e01b179052620006589084906200199e565b603380546001600160a01b038381166001600160a01b0319831681179093556040519116919082907f8be0079c531659141344cd1fd0a4f28419497f9722a3daafe3b4186f6b6457e090600090a35050565b6000763d602d80600a3d3981f3363d3d373d3d3d363d730000008260601b60e81c176000526e5af43d82803e903d91602b57fd5bf38260781b17602052603760096000f090506001600160a01b038116620018f95760405162461bcd60e51b815260206004820152601660248201527f455243313136373a20637265617465206661696c65640000000000000000000060448201526064016200055b565b919050565b60008060006200190f858562001a8a565b915091506200191e8162001ad4565b509392505050565b600054610100900460ff16620019935760405162461bcd60e51b815260206004820152602b60248201527f496e697469616c697a61626c653a20636f6e7472616374206973206e6f74206960448201526a6e697469616c697a696e6760a81b60648201526084016200055b565b620009c43362001809565b6000620019f5826040518060400160405280602081526020017f5361666545524332303a206c6f772d6c6576656c2063616c6c206661696c6564815250856001600160a01b031662001c359092919063ffffffff16565b80519091501562000658578080602001905181019062001a169190620028a2565b620006585760405162461bcd60e51b815260206004820152602a60248201527f5361666545524332303a204552433230206f7065726174696f6e20646964206e60448201527f6f7420737563636565640000000000000000000000000000000000000000000060648201526084016200055b565b60008082516041141562001ac55760208301516040840151606085015160001a62001ab88782858562001c4e565b9450945050505062001acd565b506000905060025b9250929050565b600081600481111562001aeb5762001aeb6200269d565b141562001af55750565b600181600481111562001b0c5762001b0c6200269d565b141562001b5c5760405162461bcd60e51b815260206004820152601860248201527f45434453413a20696e76616c6964207369676e6174757265000000000000000060448201526064016200055b565b600281600481111562001b735762001b736200269d565b141562001bc35760405162461bcd60e51b815260206004820152601f60248201527f45434453413a20696e76616c6964207369676e6174757265206c656e6774680060448201526064016200055b565b600381600481111562001bda5762001bda6200269d565b1415620016ca5760405162461bcd60e51b815260206004820152602260248201527f45434453413a20696e76616c6964207369676e6174757265202773272076616c604482015261756560f01b60648201526084016200055b565b606062001c46848460008562001d17565b949350505050565b6000807f7fffffffffffffffffffffffffffffff5d576e7357a4501ddfe92f46681b20a083111562001c87575060009050600362001d0e565b6040805160008082526020820180845289905260ff881692820192909252606081018690526080810185905260019060a0016020604051602081039080840390855afa15801562001cdc573d6000803e3d6000fd5b5050604051601f1901519150506001600160a01b03811662001d075760006001925092505062001d0e565b9150600090505b94509492505050565b60608247101562001d915760405162461bcd60e51b815260206004820152602660248201527f416464726573733a20696e73756666696369656e742062616c616e636520666f60448201527f722063616c6c000000000000000000000000000000000000000000000000000060648201526084016200055b565b600080866001600160a01b0316858760405162001daf9190620028c2565b60006040518083038185875af1925050503d806000811462001dee576040519150601f19603f3d011682016040523d82523d6000602084013e62001df3565b606091505b509150915062001e068783838762001e11565b979650505050505050565b6060831562001e8257825162001e7a576001600160a01b0385163b62001e7a5760405162461bcd60e51b815260206004820152601d60248201527f416464726573733a2063616c6c20746f206e6f6e2d636f6e747261637400000060448201526064016200055b565b508162001c46565b62001c46838381511562001e995781518083602001fd5b8060405162461bcd60e51b81526004016200055b919062002113565b61074880620028e183390190565b82805462001ed19062002511565b90600052602060002090601f01602090048101928262001ef5576000855562001f40565b82601f1062001f1057805160ff191683800117855562001f40565b8280016001018555821562001f40579182015b8281111562001f4057825182559160200191906001019062001f23565b5062001f4e92915062001f60565b5090565b610ee7806200302983390190565b5b8082111562001f4e576000815560010162001f61565b6001600160a01b0381168114620016ca57600080fd5b8015158114620016ca57600080fd5b6000806040838503121562001fb057600080fd5b823562001fbd8162001f77565b9150602083013562001fcf8162001f8d565b809150509250929050565b6000806040838503121562001fee57600080fd5b823562001ffb8162001f77565b9150602083013562001fcf8162001f77565b6000602082840312156200202057600080fd5b81356200202d8162001f77565b9392505050565b602080825282518282018190526000919060409081850190868401855b828110156200208b57815180516001600160a01b031685528681015187860152850151858501526060909301929085019060010162002051565b5091979650505050505050565b600060208284031215620020ab57600080fd5b5035919050565b60005b83811015620020cf578181015183820152602001620020b5565b83811115620020df576000848401525b50505050565b60008151808452620020ff816020860160208601620020b2565b601f01601f19169290920160200192915050565b6020815260006200202d6020830184620020e5565b634e487b7160e01b600052604160045260246000fd5b600082601f8301126200215057600080fd5b813567ffffffffffffffff808211156200216e576200216e62002128565b604051601f8301601f19908116603f0116810190828211818310171562002199576200219962002128565b81604052838152866020858801011115620021b357600080fd5b836020870160208301376000602085830101528094505050505092915050565b803560ff81168114620018f957600080fd5b60008083601f840112620021f857600080fd5b50813567ffffffffffffffff8111156200221157600080fd5b60208301915083602060608302850101111562001acd57600080fd5b600080600080600080600060c0888a0312156200224957600080fd5b873567ffffffffffffffff808211156200226257600080fd5b620022708b838c016200213e565b985060208a01359150808211156200228757600080fd5b620022958b838c016200213e565b975060408a0135915080821115620022ac57600080fd5b620022ba8b838c016200213e565b9650620022ca60608b01620021d3565b955060808a0135945060a08a0135915080821115620022e857600080fd5b50620022f78a828b01620021e5565b989b979a50959850939692959293505050565b600080604083850312156200231e57600080fd5b82356200232b8162001f77565b946020939093013593505050565b60008083601f8401126200234c57600080fd5b50813567ffffffffffffffff8111156200236557600080fd5b60208301915083602082850101111562001acd57600080fd5b600080600080600080868803610120808212156200239b57600080fd5b883567ffffffffffffffff80821115620023b457600080fd5b818b01915082828d031215620023c957600080fd5b8199506040601f1985011215620023df57600080fd5b60208b0198506080605f1985011215620023f857600080fd5b60608b01975060e08b013596506101008b01359350808411156200241b57600080fd5b5050506200242c89828a0162002339565b979a9699509497509295939492505050565b6000602082840312156200245157600080fd5b813567ffffffffffffffff8111156200246957600080fd5b62001c46848285016200213e565b634e487b7160e01b600052603260045260246000fd5b634e487b7160e01b600052601160045260246000fd5b600082821015620024b857620024b86200248d565b500390565b634e487b7160e01b600052603160045260246000fd5b600060208284031215620024e657600080fd5b81516200202d8162001f77565b60006000198214156200250a576200250a6200248d565b5060010190565b600181811c908216806200252657607f821691505b602082108114156200254857634e487b7160e01b600052602260045260246000fd5b50919050565b608081526000620025636080830187620020e5565b8281036020840152620025778187620020e5565b60ff95909516604084015250506060015292915050565b60008219821115620025a457620025a46200248d565b500190565b6000808335601e19843603018112620025c157600080fd5b83018035915067ffffffffffffffff821115620025dd57600080fd5b60200191503681900382131562001acd57600080fd5b8183823760009101908152919050565b6000808335601e198436030181126200261b57600080fd5b830160208101925035905067ffffffffffffffff8111156200263c57600080fd5b80360383131562001acd57600080fd5b81835281816020850137506000828201602090810191909152601f909101601f19169091010190565b803582526020810135620026898162001f77565b6001600160a01b0381166020840152505050565b634e487b7160e01b600052602160045260246000fd5b803582526020810135602083015260408101356040830152606081013560038110620026de57600080fd5b806060840152505050565b60e081526000620026fb858662002603565b6101208060e086015262002715610200860183856200264c565b925062002726602089018962002603565b925060df19610100818887030181890152620027448686856200264c565b95506200275560408c018c62002603565b955092508188870301848901526200276f8686856200264c565b95506200278060608c018c62002603565b9550935081888703016101408901526200279c8686866200264c565b9550620027ad60808c018c62002603565b955093508188870301610160890152620027c98686866200264c565b9550620027da60a08c018c62002603565b955093508188870301610180890152620027f68686866200264c565b95506200280760c08c018c62002603565b9550935081888703016101a0890152620028238686866200264c565b95506200283460e08c018c62002603565b9550935081888703016101c0890152620028508686866200264c565b955062002860818c018c62002603565b955093505080878603016101e088015250506200287f8383836200264c565b935050505062002893602083018562002675565b62001c466060830184620026b3565b600060208284031215620028b557600080fd5b81516200202d8162001f8d565b60008251620028d6818460208701620020b2565b919091019291505056fe608060405234801561001057600080fd5b5061001a3361001f565b61006f565b600080546001600160a01b038381166001600160a01b0319831681178455604051919092169283917f8be0079c531659141344cd1fd0a4f28419497f9722a3daafe3b4186f6b6457e09190a35050565b6106ca8061007e6000396000f3fe60806040526004361061007b5760003560e01c80639623609d1161004e5780639623609d1461011157806399a88ec414610124578063f2fde38b14610144578063f3b7dead1461016457600080fd5b8063204e1c7a14610080578063715018a6146100bc5780637eff275e146100d35780638da5cb5b146100f3575b600080fd5b34801561008c57600080fd5b506100a061009b3660046104c8565b610184565b6040516001600160a01b03909116815260200160405180910390f35b3480156100c857600080fd5b506100d1610215565b005b3480156100df57600080fd5b506100d16100ee3660046104ec565b610229565b3480156100ff57600080fd5b506000546001600160a01b03166100a0565b6100d161011f36600461053b565b610291565b34801561013057600080fd5b506100d161013f3660046104ec565b610300565b34801561015057600080fd5b506100d161015f3660046104c8565b610336565b34801561017057600080fd5b506100a061017f3660046104c8565b6103cb565b6000806000836001600160a01b03166040516101aa90635c60da1b60e01b815260040190565b600060405180830381855afa9150503d80600081146101e5576040519150601f19603f3d011682016040523d82523d6000602084013e6101ea565b606091505b5091509150816101f957600080fd5b8080602001905181019061020d9190610611565b949350505050565b61021d6103f1565b610227600061044b565b565b6102316103f1565b6040516308f2839760e41b81526001600160a01b038281166004830152831690638f283970906024015b600060405180830381600087803b15801561027557600080fd5b505af1158015610289573d6000803e3d6000fd5b505050505050565b6102996103f1565b60405163278f794360e11b81526001600160a01b03841690634f1ef2869034906102c9908690869060040161062e565b6000604051808303818588803b1580156102e257600080fd5b505af11580156102f6573d6000803e3d6000fd5b5050505050505050565b6103086103f1565b604051631b2ce7f360e11b81526001600160a01b038281166004830152831690633659cfe69060240161025b565b61033e6103f1565b6001600160a01b0381166103bf5760405162461bcd60e51b815260206004820152602660248201527f4f776e61626c653a206e6577206f776e657220697320746865207a65726f206160448201527f646472657373000000000000000000000000000000000000000000000000000060648201526084015b60405180910390fd5b6103c88161044b565b50565b6000806000836001600160a01b03166040516101aa906303e1469160e61b815260040190565b6000546001600160a01b031633146102275760405162461bcd60e51b815260206004820181905260248201527f4f776e61626c653a2063616c6c6572206973206e6f7420746865206f776e657260448201526064016103b6565b600080546001600160a01b038381167fffffffffffffffffffffffff0000000000000000000000000000000000000000831681178455604051919092169283917f8be0079c531659141344cd1fd0a4f28419497f9722a3daafe3b4186f6b6457e09190a35050565b6001600160a01b03811681146103c857600080fd5b6000602082840312156104da57600080fd5b81356104e5816104b3565b9392505050565b600080604083850312156104ff57600080fd5b823561050a816104b3565b9150602083013561051a816104b3565b809150509250929050565b634e487b7160e01b600052604160045260246000fd5b60008060006060848603121561055057600080fd5b833561055b816104b3565b9250602084013561056b816104b3565b9150604084013567ffffffffffffffff8082111561058857600080fd5b818601915086601f83011261059c57600080fd5b8135818111156105ae576105ae610525565b604051601f8201601f19908116603f011681019083821181831017156105d6576105d6610525565b816040528281528960208487010111156105ef57600080fd5b8260208601602083013760006020848301015280955050505050509250925092565b60006020828403121561062357600080fd5b81516104e5816104b3565b6001600160a01b038316815260006020604081840152835180604085015260005b8181101561066b5785810183015185820160600152820161064f565b8181111561067d576000606083870101525b50601f01601f19169290920160600194935050505056fea2646970667358221220361a354b1dd3689bd2008dcd5d06161abba410e6d89b01824bc218af0252327564736f6c63430008090033608060405260405162000ee738038062000ee783398101604081905262000026916200049d565b828162000036828260006200004d565b50620000449050826200008a565b505050620005d0565b6200005883620000e5565b600082511180620000665750805b1562000085576200008383836200012760201b620002701760201c565b505b505050565b7f7e644d79422f17c01e4894b5f4f588d331ebfa28653d42ae832dc59e38c9798f620000b562000156565b604080516001600160a01b03928316815291841660208301520160405180910390a1620000e2816200018f565b50565b620000f08162000244565b6040516001600160a01b038216907fbc7cd75a20ee27fd9adebab32041f755214dbc6bffa90cc0225b39da2e5c2d3b90600090a250565b60606200014f838360405180606001604052806027815260200162000ec060279139620002f8565b9392505050565b60006200018060008051602062000ea083398151915260001b6200037760201b620002181760201c565b546001600160a01b0316919050565b6001600160a01b038116620001fa5760405162461bcd60e51b815260206004820152602660248201527f455243313936373a206e65772061646d696e20697320746865207a65726f206160448201526564647265737360d01b60648201526084015b60405180910390fd5b806200022360008051602062000ea083398151915260001b6200037760201b620002181760201c565b80546001600160a01b0319166001600160a01b039290921691909117905550565b6200025a816200037a60201b6200029c1760201c565b620002be5760405162461bcd60e51b815260206004820152602d60248201527f455243313936373a206e657720696d706c656d656e746174696f6e206973206e60448201526c1bdd08184818dbdb9d1c9858dd609a1b6064820152608401620001f1565b80620002237f360894a13ba1a3210667c828492db98dca3e2076cc3735a920a3ca505d382bbc60001b6200037760201b620002181760201c565b6060600080856001600160a01b0316856040516200031791906200057d565b600060405180830381855af49150503d806000811462000354576040519150601f19603f3d011682016040523d82523d6000602084013e62000359565b606091505b5090925090506200036d8683838762000389565b9695505050505050565b90565b6001600160a01b03163b151590565b60608315620003fa578251620003f2576001600160a01b0385163b620003f25760405162461bcd60e51b815260206004820152601d60248201527f416464726573733a2063616c6c20746f206e6f6e2d636f6e74726163740000006044820152606401620001f1565b508162000406565b6200040683836200040e565b949350505050565b8151156200041f5781518083602001fd5b8060405162461bcd60e51b8152600401620001f191906200059b565b80516001600160a01b03811681146200045357600080fd5b919050565b634e487b7160e01b600052604160045260246000fd5b60005b838110156200048b57818101518382015260200162000471565b83811115620000835750506000910152565b600080600060608486031215620004b357600080fd5b620004be846200043b565b9250620004ce602085016200043b565b60408501519092506001600160401b0380821115620004ec57600080fd5b818601915086601f8301126200050157600080fd5b81518181111562000516576200051662000458565b604051601f8201601f19908116603f0116810190838211818310171562000541576200054162000458565b816040528281528960208487010111156200055b57600080fd5b6200056e8360208301602088016200046e565b80955050505050509250925092565b60008251620005918184602087016200046e565b9190910192915050565b6020815260008251806020840152620005bc8160408501602087016200046e565b601f01601f19169190910160400192915050565b6108c080620005e06000396000f3fe60806040526004361061005e5760003560e01c80635c60da1b116100435780635c60da1b146100a85780638f283970146100d9578063f851a440146100f95761006d565b80633659cfe6146100755780634f1ef286146100955761006d565b3661006d5761006b61010e565b005b61006b61010e565b34801561008157600080fd5b5061006b61009036600461074a565b610128565b61006b6100a3366004610765565b61016f565b3480156100b457600080fd5b506100bd6101e0565b6040516001600160a01b03909116815260200160405180910390f35b3480156100e557600080fd5b5061006b6100f436600461074a565b61021b565b34801561010557600080fd5b506100bd610245565b6101166102ab565b61012661012161034a565b610354565b565b610130610378565b6001600160a01b0316336001600160a01b0316141561016757610164816040518060200160405280600081525060006103ab565b50565b61016461010e565b610177610378565b6001600160a01b0316336001600160a01b031614156101d8576101d38383838080601f016020809104026020016040519081016040528093929190818152602001838380828437600092019190915250600192506103ab915050565b505050565b6101d361010e565b60006101ea610378565b6001600160a01b0316336001600160a01b031614156102105761020b61034a565b905090565b61021861010e565b90565b610223610378565b6001600160a01b0316336001600160a01b0316141561016757610164816103d6565b600061024f610378565b6001600160a01b0316336001600160a01b031614156102105761020b610378565b606061029583836040518060600160405280602781526020016108646027913961042a565b9392505050565b6001600160a01b03163b151590565b6102b3610378565b6001600160a01b0316336001600160a01b031614156101265760405162461bcd60e51b815260206004820152604260248201527f5472616e73706172656e745570677261646561626c6550726f78793a2061646d60448201527f696e2063616e6e6f742066616c6c6261636b20746f2070726f78792074617267606482015261195d60f21b608482015260a4015b60405180910390fd5b600061020b6104a2565b3660008037600080366000845af43d6000803e808015610373573d6000f35b3d6000fd5b60007fb53127684a568b3173ae13b9f8a6016e243e63b6e8ee1178d6a717850b5d61035b546001600160a01b0316919050565b6103b4836104ca565b6000825111806103c15750805b156101d3576103d08383610270565b50505050565b7f7e644d79422f17c01e4894b5f4f588d331ebfa28653d42ae832dc59e38c9798f6103ff610378565b604080516001600160a01b03928316815291841660208301520160405180910390a16101648161050a565b6060600080856001600160a01b0316856040516104479190610814565b600060405180830381855af49150503d8060008114610482576040519150601f19603f3d011682016040523d82523d6000602084013e610487565b606091505b5091509150610498868383876105e2565b9695505050505050565b60007f360894a13ba1a3210667c828492db98dca3e2076cc3735a920a3ca505d382bbc61039c565b6104d381610660565b6040516001600160a01b038216907fbc7cd75a20ee27fd9adebab32041f755214dbc6bffa90cc0225b39da2e5c2d3b90600090a250565b6001600160a01b0381166105865760405162461bcd60e51b815260206004820152602660248201527f455243313936373a206e65772061646d696e20697320746865207a65726f206160448201527f64647265737300000000000000000000000000000000000000000000000000006064820152608401610341565b807fb53127684a568b3173ae13b9f8a6016e243e63b6e8ee1178d6a717850b5d61035b80547fffffffffffffffffffffffff0000000000000000000000000000000000000000166001600160a01b039290921691909117905550565b6060831561064e578251610647576001600160a01b0385163b6106475760405162461bcd60e51b815260206004820152601d60248201527f416464726573733a2063616c6c20746f206e6f6e2d636f6e74726163740000006044820152606401610341565b5081610658565b6106588383610704565b949350505050565b6001600160a01b0381163b6106dd5760405162461bcd60e51b815260206004820152602d60248201527f455243313936373a206e657720696d706c656d656e746174696f6e206973206e60448201527f6f74206120636f6e7472616374000000000000000000000000000000000000006064820152608401610341565b807f360894a13ba1a3210667c828492db98dca3e2076cc3735a920a3ca505d382bbc6105a9565b8151156107145781518083602001fd5b8060405162461bcd60e51b81526004016103419190610830565b80356001600160a01b038116811461074557600080fd5b919050565b60006020828403121561075c57600080fd5b6102958261072e565b60008060006040848603121561077a57600080fd5b6107838461072e565b9250602084013567ffffffffffffffff808211156107a057600080fd5b818601915086601f8301126107b457600080fd5b8135818111156107c357600080fd5b8760208285010111156107d557600080fd5b6020830194508093505050509250925092565b60005b838110156108035781810151838201526020016107eb565b838111156103d05750506000910152565b600082516108268184602087016107e8565b9190910192915050565b602081526000825180602084015261084f8160408501602087016107e8565b601f01601f1916919091016040019291505056fe416464726573733a206c6f772d6c6576656c2064656c65676174652063616c6c206661696c6564a2646970667358221220457aedc01a7191a6078f83fee5d6ed963da4f6f556a0b9d97a05943c63139a5964736f6c63430008090033b53127684a568b3173ae13b9f8a6016e243e63b6e8ee1178d6a717850b5d6103416464726573733a206c6f772d6c6576656c2064656c65676174652063616c6c206661696c6564a2646970667358221220126f05b64d8c0316a41472269761a700c465aad980e2e705de5af1e48eff204364736f6c63430008090033",
  "devdoc": {
    "kind": "dev",
    "methods": {
      "owner()": {
        "details": "Returns the address of the current owner."
      },
      "renounceOwnership()": {
        "details": "Leaves the contract without owner. It will not be possible to call `onlyOwner` functions anymore. Can only be called by the current owner. NOTE: Renouncing ownership will leave the contract without an owner, thereby removing any functionality that is only available to the owner."
      },
      "transferOwnership(address)": {
        "details": "Transfers ownership of the contract to a new account (`newOwner`). Can only be called by the current owner."
      }
    },
    "version": 1
  },
  "userdoc": {
    "kind": "user",
    "methods": {
      "getReserved(address)": {
        "notice": "---------- public getting ---------- *"
      }
    },
    "version": 1
  },
  "storageLayout": {
    "storage": [
      {
        "astId": 324,
        "contract": "contracts/DAOFactory.sol:DAOFactory",
        "label": "_initialized",
        "offset": 0,
        "slot": "0",
        "type": "t_uint8"
      },
      {
        "astId": 327,
        "contract": "contracts/DAOFactory.sol:DAOFactory",
        "label": "_initializing",
        "offset": 1,
        "slot": "0",
        "type": "t_bool"
      },
      {
        "astId": 1304,
        "contract": "contracts/DAOFactory.sol:DAOFactory",
        "label": "__gap",
        "offset": 0,
        "slot": "1",
        "type": "t_array(t_uint256)50_storage"
      },
      {
        "astId": 116,
        "contract": "contracts/DAOFactory.sol:DAOFactory",
        "label": "_owner",
        "offset": 0,
        "slot": "51",
        "type": "t_address"
      },
      {
        "astId": 236,
        "contract": "contracts/DAOFactory.sol:DAOFactory",
        "label": "__gap",
        "offset": 0,
        "slot": "52",
        "type": "t_array(t_uint256)49_storage"
      },
      {
        "astId": 7167,
        "contract": "contracts/DAOFactory.sol:DAOFactory",
        "label": "proxyAdminAddress",
        "offset": 0,
        "slot": "101",
        "type": "t_address"
      },
      {
        "astId": 7169,
        "contract": "contracts/DAOFactory.sol:DAOFactory",
        "label": "daoImpl",
        "offset": 0,
        "slot": "102",
        "type": "t_address"
      },
      {
        "astId": 7173,
        "contract": "contracts/DAOFactory.sol:DAOFactory",
        "label": "handles",
        "offset": 0,
        "slot": "103",
        "type": "t_mapping(t_string_memory_ptr,t_bool)"
      },
      {
        "astId": 7177,
        "contract": "contracts/DAOFactory.sol:DAOFactory",
        "label": "_signers",
        "offset": 0,
        "slot": "104",
        "type": "t_mapping(t_address,t_bool)"
      },
      {
        "astId": 7181,
        "contract": "contracts/DAOFactory.sol:DAOFactory",
        "label": "_daoAddresses",
        "offset": 0,
        "slot": "105",
        "type": "t_mapping(t_address,t_bool)"
      },
      {
        "astId": 7185,
        "contract": "contracts/DAOFactory.sol:DAOFactory",
        "label": "nonces",
        "offset": 0,
        "slot": "106",
        "type": "t_mapping(t_address,t_uint256)"
      },
      {
        "astId": 7187,
        "contract": "contracts/DAOFactory.sol:DAOFactory",
        "label": "tokenImpl",
        "offset": 0,
        "slot": "107",
        "type": "t_address"
      },
      {
        "astId": 7191,
        "contract": "contracts/DAOFactory.sol:DAOFactory",
        "label": "logoURLs",
        "offset": 0,
        "slot": "108",
        "type": "t_mapping(t_address,t_string_storage)"
      },
      {
        "astId": 7197,
        "contract": "contracts/DAOFactory.sol:DAOFactory",
        "label": "reserves",
        "offset": 0,
        "slot": "109",
        "type": "t_mapping(t_address,t_array(t_struct(Reserve)9362_storage)dyn_storage)"
      },
      {
        "astId": 7202,
        "contract": "contracts/DAOFactory.sol:DAOFactory",
        "label": "tokensByAccount",
        "offset": 0,
        "slot": "110",
        "type": "t_mapping(t_address,t_array(t_address)dyn_storage)"
      }
    ],
    "types": {
      "t_address": {
        "encoding": "inplace",
        "label": "address",
        "numberOfBytes": "20"
      },
      "t_array(t_address)dyn_storage": {
        "base": "t_address",
        "encoding": "dynamic_array",
        "label": "address[]",
        "numberOfBytes": "32"
      },
      "t_array(t_struct(Reserve)9362_storage)dyn_storage": {
        "base": "t_struct(Reserve)9362_storage",
        "encoding": "dynamic_array",
        "label": "struct IDAOFactory.Reserve[]",
        "numberOfBytes": "32"
      },
      "t_array(t_uint256)49_storage": {
        "base": "t_uint256",
        "encoding": "inplace",
        "label": "uint256[49]",
        "numberOfBytes": "1568"
      },
      "t_array(t_uint256)50_storage": {
        "base": "t_uint256",
        "encoding": "inplace",
        "label": "uint256[50]",
        "numberOfBytes": "1600"
      },
      "t_bool": {
        "encoding": "inplace",
        "label": "bool",
        "numberOfBytes": "1"
      },
      "t_mapping(t_address,t_array(t_address)dyn_storage)": {
        "encoding": "mapping",
        "key": "t_address",
        "label": "mapping(address => address[])",
        "numberOfBytes": "32",
        "value": "t_array(t_address)dyn_storage"
      },
      "t_mapping(t_address,t_array(t_struct(Reserve)9362_storage)dyn_storage)": {
        "encoding": "mapping",
        "key": "t_address",
        "label": "mapping(address => struct IDAOFactory.Reserve[])",
        "numberOfBytes": "32",
        "value": "t_array(t_struct(Reserve)9362_storage)dyn_storage"
      },
      "t_mapping(t_address,t_bool)": {
        "encoding": "mapping",
        "key": "t_address",
        "label": "mapping(address => bool)",
        "numberOfBytes": "32",
        "value": "t_bool"
      },
      "t_mapping(t_address,t_string_storage)": {
        "encoding": "mapping",
        "key": "t_address",
        "label": "mapping(address => string)",
        "numberOfBytes": "32",
        "value": "t_string_storage"
      },
      "t_mapping(t_address,t_uint256)": {
        "encoding": "mapping",
        "key": "t_address",
        "label": "mapping(address => uint256)",
        "numberOfBytes": "32",
        "value": "t_uint256"
      },
      "t_mapping(t_string_memory_ptr,t_bool)": {
        "encoding": "mapping",
        "key": "t_string_memory_ptr",
        "label": "mapping(string => bool)",
        "numberOfBytes": "32",
        "value": "t_bool"
      },
      "t_string_memory_ptr": {
        "encoding": "bytes",
        "label": "string",
        "numberOfBytes": "32"
      },
      "t_string_storage": {
        "encoding": "bytes",
        "label": "string",
        "numberOfBytes": "32"
      },
      "t_struct(Reserve)9362_storage": {
        "encoding": "inplace",
        "label": "struct IDAOFactory.Reserve",
        "members": [
          {
            "astId": 9357,
            "contract": "contracts/DAOFactory.sol:DAOFactory",
            "label": "token",
            "offset": 0,
            "slot": "0",
            "type": "t_address"
          },
          {
            "astId": 9359,
            "contract": "contracts/DAOFactory.sol:DAOFactory",
            "label": "amount",
            "offset": 0,
            "slot": "1",
            "type": "t_uint256"
          },
          {
            "astId": 9361,
            "contract": "contracts/DAOFactory.sol:DAOFactory",
            "label": "lockDate",
            "offset": 0,
            "slot": "2",
            "type": "t_uint256"
          }
        ],
        "numberOfBytes": "96"
      },
      "t_uint256": {
        "encoding": "inplace",
        "label": "uint256",
        "numberOfBytes": "32"
      },
      "t_uint8": {
        "encoding": "inplace",
        "label": "uint8",
        "numberOfBytes": "1"
      }
    }
  }
}