{
  "address": "0x22B9663C6E4c11bbc8E10f5e40a0316C940F8524",
  "abi": [
    {
      "inputs": [
        {
          "internalType": "address",
          "name": "factoryAddress_",
          "type": "address"
        }
      ],
      "stateMutability": "nonpayable",
      "type": "constructor"
    },
    {
      "anonymous": false,
      "inputs": [
        {
          "indexed": true,
          "internalType": "uint256",
          "name": "saleId",
          "type": "uint256"
        }
      ],
      "name": "CancelSale",
      "type": "event"
    },
    {
      "anonymous": false,
      "inputs": [
        {
          "indexed": true,
          "internalType": "uint256",
          "name": "saleId",
          "type": "uint256"
        },
        {
          "indexed": true,
          "internalType": "address",
          "name": "saleToken",
          "type": "address"
        },
        {
          "indexed": true,
          "internalType": "address",
          "name": "receiveToken",
          "type": "address"
        },
        {
          "indexed": false,
          "internalType": "uint256",
          "name": "saleAmount",
          "type": "uint256"
        },
        {
          "indexed": false,
          "internalType": "uint256",
          "name": "pricePer",
          "type": "uint256"
        },
        {
          "indexed": false,
          "internalType": "uint256",
          "name": "limitMin",
          "type": "uint256"
        },
        {
          "indexed": false,
          "internalType": "uint256",
          "name": "limitMax",
          "type": "uint256"
        },
        {
          "indexed": false,
          "internalType": "uint256",
          "name": "startTime",
          "type": "uint256"
        },
        {
          "indexed": false,
          "internalType": "uint256",
          "name": "endTime",
          "type": "uint256"
        }
      ],
      "name": "CreatedSale",
      "type": "event"
    },
    {
      "anonymous": false,
      "inputs": [
        {
          "indexed": false,
          "internalType": "uint8",
          "name": "version",
          "type": "uint8"
        }
      ],
      "name": "Initialized",
      "type": "event"
    },
    {
      "anonymous": false,
      "inputs": [
        {
          "indexed": true,
          "internalType": "address",
          "name": "previousOwner",
          "type": "address"
        },
        {
          "indexed": true,
          "internalType": "address",
          "name": "newOwner",
          "type": "address"
        }
      ],
      "name": "OwnershipTransferStarted",
      "type": "event"
    },
    {
      "anonymous": false,
      "inputs": [
        {
          "indexed": true,
          "internalType": "address",
          "name": "previousOwner",
          "type": "address"
        },
        {
          "indexed": true,
          "internalType": "address",
          "name": "newOwner",
          "type": "address"
        }
      ],
      "name": "OwnershipTransferred",
      "type": "event"
    },
    {
      "anonymous": false,
      "inputs": [
        {
          "indexed": true,
          "internalType": "uint256",
          "name": "saleId",
          "type": "uint256"
        },
        {
          "indexed": true,
          "internalType": "uint256",
          "name": "buyAmount",
          "type": "uint256"
        },
        {
          "indexed": true,
          "internalType": "uint256",
          "name": "payAmount",
          "type": "uint256"
        }
      ],
      "name": "Purchased",
      "type": "event"
    },
    {
      "inputs": [
        {
          "internalType": "uint256",
          "name": "_saleId",
          "type": "uint256"
        }
      ],
      "name": "Cancel",
      "outputs": [],
      "stateMutability": "nonpayable",
      "type": "function"
    },
    {
      "inputs": [
        {
          "internalType": "uint256",
          "name": "_saleId",
          "type": "uint256"
        },
        {
          "internalType": "address",
          "name": "_saleToken",
          "type": "address"
        },
        {
          "internalType": "uint256",
          "name": "_saleAmount",
          "type": "uint256"
        },
        {
          "internalType": "address",
          "name": "_receiveToken",
          "type": "address"
        },
        {
          "internalType": "uint256",
          "name": "_pricePer",
          "type": "uint256"
        },
        {
          "internalType": "uint256",
          "name": "_limitMin",
          "type": "uint256"
        },
        {
          "internalType": "uint256",
          "name": "_limitMax",
          "type": "uint256"
        },
        {
          "internalType": "uint256",
          "name": "_startTime",
          "type": "uint256"
        },
        {
          "internalType": "uint256",
          "name": "_endTime",
          "type": "uint256"
        },
        {
          "internalType": "bytes",
          "name": "_signature",
          "type": "bytes"
        }
      ],
      "name": "CreateSale",
      "outputs": [],
      "stateMutability": "nonpayable",
      "type": "function"
    },
    {
      "inputs": [
        {
          "internalType": "uint256",
          "name": "_saleId",
          "type": "uint256"
        },
        {
          "internalType": "uint256",
          "name": "_buyAmount",
          "type": "uint256"
        },
        {
          "internalType": "bytes",
          "name": "_signature",
          "type": "bytes"
        }
      ],
      "name": "Purchase",
      "outputs": [],
      "stateMutability": "payable",
      "type": "function"
    },
    {
      "inputs": [],
      "name": "acceptOwnership",
      "outputs": [],
      "stateMutability": "nonpayable",
      "type": "function"
    },
    {
      "inputs": [],
      "name": "factoryAddress",
      "outputs": [
        {
          "internalType": "address",
          "name": "",
          "type": "address"
        }
      ],
      "stateMutability": "view",
      "type": "function"
    },
    {
      "inputs": [],
      "name": "owner",
      "outputs": [
        {
          "internalType": "address",
          "name": "",
          "type": "address"
        }
      ],
      "stateMutability": "view",
      "type": "function"
    },
    {
      "inputs": [],
      "name": "pendingOwner",
      "outputs": [
        {
          "internalType": "address",
          "name": "",
          "type": "address"
        }
      ],
      "stateMutability": "view",
      "type": "function"
    },
    {
      "inputs": [],
      "name": "renounceOwnership",
      "outputs": [],
      "stateMutability": "nonpayable",
      "type": "function"
    },
    {
      "inputs": [
        {
          "internalType": "uint256",
          "name": "",
          "type": "uint256"
        }
      ],
      "name": "sales",
      "outputs": [
        {
          "internalType": "address",
          "name": "creator",
          "type": "address"
        },
        {
          "internalType": "address",
          "name": "saleToken",
          "type": "address"
        },
        {
          "internalType": "uint256",
          "name": "saleAmount",
          "type": "uint256"
        },
        {
          "internalType": "address",
          "name": "receiveToken",
          "type": "address"
        },
        {
          "internalType": "uint256",
          "name": "pricePer",
          "type": "uint256"
        },
        {
          "internalType": "uint256",
          "name": "limitMin",
          "type": "uint256"
        },
        {
          "internalType": "uint256",
          "name": "limitMax",
          "type": "uint256"
        },
        {
          "internalType": "uint256",
          "name": "startTime",
          "type": "uint256"
        },
        {
          "internalType": "uint256",
          "name": "endTime",
          "type": "uint256"
        },
        {
          "internalType": "uint256",
          "name": "soldAmount",
          "type": "uint256"
        },
        {
          "internalType": "bool",
          "name": "isCancel",
          "type": "bool"
        }
      ],
      "stateMutability": "view",
      "type": "function"
    },
    {
      "inputs": [
        {
          "internalType": "address",
          "name": "newOwner",
          "type": "address"
        }
      ],
      "name": "transferOwnership",
      "outputs": [],
      "stateMutability": "nonpayable",
      "type": "function"
    }
  ],
  "transactionHash": "0x5096efc7b57ec054a243e9bc62cc7c8c73f4889424b6cfdde04d793114de1723",
  "args": [
    "0x93e7A03239d62CC24D84A7A216E81FB2aDbC7D9b"
  ],
  "solcInputHash": "0d25ba875ec499b5ec56813f61c65dbc",
  "bytecode": "0x60a060405234801561001057600080fd5b50604051611c62380380611c6283398101604081905261002f91610040565b6001600160a01b0316608052610070565b60006020828403121561005257600080fd5b81516001600160a01b038116811461006957600080fd5b9392505050565b608051611bc96100996000396000818161014b015281816107d70152610c4d0152611bc96000f3fe6080604052600436106100b15760003560e01c8063b5f522f711610069578063d9afcc2d1161004e578063d9afcc2d14610275578063e30c397814610288578063f2fde38b146102a657600080fd5b8063b5f522f71461016d578063b941f5d31461025557600080fd5b80638bf30e7f1161009a5780638bf30e7f146100e25780638da5cb5b14610102578063966dae0e1461013957600080fd5b8063715018a6146100b657806379ba5097146100cd575b600080fd5b3480156100c257600080fd5b506100cb6102c6565b005b3480156100d957600080fd5b506100cb6102da565b3480156100ee57600080fd5b506100cb6100fd3660046117aa565b61036d565b34801561010e57600080fd5b506033546001600160a01b03165b6040516001600160a01b0390911681526020015b60405180910390f35b34801561014557600080fd5b5061011c7f000000000000000000000000000000000000000000000000000000000000000081565b34801561017957600080fd5b506101f26101883660046117aa565b60c960205260009081526040902080546001820154600283015460038401546004850154600586015460068701546007880154600889015460098a0154600a909a01546001600160a01b03998a169a988a1699979897909616969495939492939192909160ff168b565b604080516001600160a01b039c8d1681529a8c1660208c01528a0198909852989095166060880152608087019390935260a086019190915260c085015260e084015261010083015261012082019290925290151561014082015261016001610130565b34801561026157600080fd5b506100cb610270366004611821565b6104f2565b6100cb6102833660046118cf565b6109f1565b34801561029457600080fd5b506065546001600160a01b031661011c565b3480156102b257600080fd5b506100cb6102c1366004611922565b610f45565b6102ce610fb6565b6102d86000611010565b565b60655433906001600160a01b031681146103615760405162461bcd60e51b815260206004820152602960248201527f4f776e61626c6532537465703a2063616c6c6572206973206e6f74207468652060448201527f6e6577206f776e6572000000000000000000000000000000000000000000000060648201526084015b60405180910390fd5b61036a81611010565b50565b600081815260c96020526040812060098101546002820154919291610392919061195a565b82549091506001600160a01b031633146103ee5760405162461bcd60e51b815260206004820152601c60248201527f5075626c696353616c653a20696e76616c6964206163636f756e742e000000006044820152606401610358565b6000811161043e5760405162461bcd60e51b815260206004820152601c60248201527f5075626c696353616c653a20696e76616c69642062616c616e63652e000000006044820152606401610358565b600a82015460ff16156104935760405162461bcd60e51b815260206004820152601660248201527f5075626c696353616c653a2063616e63656c6c65642e000000000000000000006044820152606401610358565b600a8201805460ff191660019081179091558201546104c2906001600160a01b03166104bc3390565b83611029565b60405183907f6ecd7b702bc398299b70a9c417b14d16835121b9df1f7b3036ccf42ee990f6d490600090a2505050565b60008b815260c96020526040902080546001600160a01b0316156105585760405162461bcd60e51b815260206004820152601b60248201527f5075626c696353616c653a20696e76616c69642073616c6549642e00000000006044820152606401610358565b838510801561056657504284115b6105b25760405162461bcd60e51b815260206004820152601d60248201527f5075626c696353616c653a20696e76616c6964206475726174696f6e2e0000006044820152606401610358565b60008a116106025760405162461bcd60e51b815260206004820181905260248201527f5075626c696353616c653a20696e76616c69642073616c6520616d6f756e742e6044820152606401610358565b600088116106525760405162461bcd60e51b815260206004820152601a60248201527f5075626c696353616c653a20696e76616c69642070726963652e0000000000006044820152606401610358565b6000861180156106625750868610155b6106ae5760405162461bcd60e51b815260206004820152601d60248201527f5075626c696353616c653a20696e76616c69642070757263686173652e0000006044820152606401610358565b6001600160a01b038b166107045760405162461bcd60e51b815260206004820152601a60248201527f5075626c696353616c653a20696e76616c696420746f6b656e2e0000000000006044820152606401610358565b6040516bffffffffffffffffffffffff1933606090811b82166020840152603483018f90528d811b82166054840152606883018d90528b901b166088820152609c810189905260bc810188905260dc810187905260fc810186905261011c81018590526000906107d39061013c015b60408051601f1981840301815282825280516020918201207f19457468657265756d205369676e6564204d6573736167653a0a33320000000084830152603c8085019190915282518085039091018152605c909301909152815191012090565b90507f00000000000000000000000000000000000000000000000000000000000000006001600160a01b0316637df73e276108448387878080601f0160208091040260200160405190810160405280939291908181526020018383808284376000920191909152506110a692505050565b6040516001600160e01b031960e084901b1681526001600160a01b03909116600482015260240160206040518083038186803b15801561088357600080fd5b505afa158015610897573d6000803e3d6000fd5b505050506040513d601f19601f820116820180604052508101906108bb9190611971565b6109075760405162461bcd60e51b815260206004820152601b60248201527f5075626c696353616c653a20696e76616c6964207369676e65722e00000000006044820152606401610358565b3382546001600160a01b03199081166001600160a01b0392831617845560018401805482168f8416179055600284018d9055600384018054909116918c16919091179055600482018990556005820188905560068201879055600782018690556008820185905561097a8c33308e6110cc565b604080518c8152602081018b9052908101899052606081018890526080810187905260a081018690526001600160a01b03808c1691908e16908f907f9d53948ce6bad675fd2148922bc61a51d4e9f75a749d894d3decfdefd895d6649060c00160405180910390a450505050505050505050505050565b6109f9611104565b600084815260c96020526040902080546001600160a01b031615801590610a255750600a81015460ff16155b610a715760405162461bcd60e51b815260206004820152601960248201527f5075626c696353616c653a20696e76616c69642073616c652e000000000000006044820152606401610358565b42816007015411158015610a885750428160080154115b610ad45760405162461bcd60e51b815260206004820152601960248201527f5075626c696353616c653a20696e76616c69642073616c652e000000000000006044820152606401610358565b600084118015610ae8575080600501548410155b610b345760405162461bcd60e51b815260206004820152601b60248201527f5075626c696353616c653a20696e76616c696420616d6f756e742e00000000006044820152606401610358565b6000848260090154610b469190611993565b336000908152600b8401602052604081205491925090610b67908790611993565b90508260020154821115610bbd5760405162461bcd60e51b815260206004820152601b60248201527f5075626c696353616c653a20696e76616c696420616d6f756e742e00000000006044820152606401610358565b8260060154811115610c115760405162461bcd60e51b815260206004820152601b60248201527f5075626c696353616c653a20696e76616c696420616d6f756e742e00000000006044820152606401610358565b6040516bffffffffffffffffffffffff193360601b1660208201526034810188905260548101879052600090610c4990607401610773565b90507f00000000000000000000000000000000000000000000000000000000000000006001600160a01b0316637df73e27610cba8389898080601f0160208091040260200160405190810160405280939291908181526020018383808284376000920191909152506110a692505050565b6040516001600160e01b031960e084901b1681526001600160a01b03909116600482015260240160206040518083038186803b158015610cf957600080fd5b505afa158015610d0d573d6000803e3d6000fd5b505050506040513d601f19601f82011682018060405250810190610d319190611971565b610d7d5760405162461bcd60e51b815260206004820152601b60248201527f5075626c696353616c653a20696e76616c6964207369676e65722e00000000006044820152606401610358565b60098401839055336000908152600b85016020526040812083905560038501546001600160a01b031680610e3957670de0b6b3a7640000898760040154610dc491906119ab565b610dce91906119ca565b9150348214610e1f5760405162461bcd60e51b815260206004820152601f60248201527f5075626c696353616c653a20696e73756666696369656e742076616c75652e006044820152606401610358565b8554610e34906001600160a01b03168361115e565b610ee7565b806001600160a01b031663313ce5676040518163ffffffff1660e01b815260040160206040518083038186803b158015610e7257600080fd5b505afa158015610e86573d6000803e3d6000fd5b505050506040513d601f19601f82011682018060405250810190610eaa91906119ec565b610eb590600a611af3565b898760040154610ec591906119ab565b610ecf91906119ca565b9150610ee7813388546001600160a01b0316856110cc565b6001860154610f00906001600160a01b0316338b611029565b81898b7fad29626521d76edaa4a50d4b77bb01050659c6cdb55765634518501f22c6010860405160405180910390a4505050505050610f3f6001609755565b50505050565b610f4d610fb6565b606580546001600160a01b0383166001600160a01b03199091168117909155610f7e6033546001600160a01b031690565b6001600160a01b03167f38d16b8cac22d99fc7c124b9cd0de2d3fa1faef420bfe791d8c362d765e2270060405160405180910390a350565b6033546001600160a01b031633146102d85760405162461bcd60e51b815260206004820181905260248201527f4f776e61626c653a2063616c6c6572206973206e6f7420746865206f776e65726044820152606401610358565b606580546001600160a01b031916905561036a81611277565b6040516001600160a01b0383166024820152604481018290526110a190849063a9059cbb60e01b906064015b60408051601f198184030181529190526020810180517bffffffffffffffffffffffffffffffffffffffffffffffffffffffff166001600160e01b0319909316929092179091526112c9565b505050565b60008060006110b585856113ae565b915091506110c2816113f4565b5090505b92915050565b6040516001600160a01b0380851660248301528316604482015260648101829052610f3f9085906323b872dd60e01b90608401611055565b600260975414156111575760405162461bcd60e51b815260206004820152601f60248201527f5265656e7472616e637947756172643a207265656e7472616e742063616c6c006044820152606401610358565b6002609755565b804710156111ae5760405162461bcd60e51b815260206004820152601d60248201527f416464726573733a20696e73756666696369656e742062616c616e63650000006044820152606401610358565b6000826001600160a01b03168260405160006040518083038185875af1925050503d80600081146111fb576040519150601f19603f3d011682016040523d82523d6000602084013e611200565b606091505b50509050806110a15760405162461bcd60e51b815260206004820152603a60248201527f416464726573733a20756e61626c6520746f2073656e642076616c75652c207260448201527f6563697069656e74206d617920686176652072657665727465640000000000006064820152608401610358565b603380546001600160a01b038381166001600160a01b0319831681179093556040519116919082907f8be0079c531659141344cd1fd0a4f28419497f9722a3daafe3b4186f6b6457e090600090a35050565b600061131e826040518060400160405280602081526020017f5361666545524332303a206c6f772d6c6576656c2063616c6c206661696c6564815250856001600160a01b03166115429092919063ffffffff16565b8051909150156110a1578080602001905181019061133c9190611971565b6110a15760405162461bcd60e51b815260206004820152602a60248201527f5361666545524332303a204552433230206f7065726174696f6e20646964206e60448201527f6f742073756363656564000000000000000000000000000000000000000000006064820152608401610358565b6000808251604114156113e55760208301516040840151606085015160001a6113d987828585611559565b945094505050506113ed565b506000905060025b9250929050565b600081600481111561140857611408611b02565b14156114115750565b600181600481111561142557611425611b02565b14156114735760405162461bcd60e51b815260206004820152601860248201527f45434453413a20696e76616c6964207369676e617475726500000000000000006044820152606401610358565b600281600481111561148757611487611b02565b14156114d55760405162461bcd60e51b815260206004820152601f60248201527f45434453413a20696e76616c6964207369676e6174757265206c656e677468006044820152606401610358565b60038160048111156114e9576114e9611b02565b141561036a5760405162461bcd60e51b815260206004820152602260248201527f45434453413a20696e76616c6964207369676e6174757265202773272076616c604482015261756560f01b6064820152608401610358565b6060611551848460008561161d565b949350505050565b6000807f7fffffffffffffffffffffffffffffff5d576e7357a4501ddfe92f46681b20a08311156115905750600090506003611614565b6040805160008082526020820180845289905260ff881692820192909252606081018690526080810185905260019060a0016020604051602081039080840390855afa1580156115e4573d6000803e3d6000fd5b5050604051601f1901519150506001600160a01b03811661160d57600060019250925050611614565b9150600090505b94509492505050565b6060824710156116955760405162461bcd60e51b815260206004820152602660248201527f416464726573733a20696e73756666696369656e742062616c616e636520666f60448201527f722063616c6c00000000000000000000000000000000000000000000000000006064820152608401610358565b600080866001600160a01b031685876040516116b19190611b44565b60006040518083038185875af1925050503d80600081146116ee576040519150601f19603f3d011682016040523d82523d6000602084013e6116f3565b606091505b50915091506117048783838761170f565b979650505050505050565b6060831561177b578251611774576001600160a01b0385163b6117745760405162461bcd60e51b815260206004820152601d60248201527f416464726573733a2063616c6c20746f206e6f6e2d636f6e74726163740000006044820152606401610358565b5081611551565b61155183838151156117905781518083602001fd5b8060405162461bcd60e51b81526004016103589190611b60565b6000602082840312156117bc57600080fd5b5035919050565b80356001600160a01b03811681146117da57600080fd5b919050565b60008083601f8401126117f157600080fd5b50813567ffffffffffffffff81111561180957600080fd5b6020830191508360208285010111156113ed57600080fd5b60008060008060008060008060008060006101408c8e03121561184357600080fd5b8b359a5061185360208d016117c3565b995060408c0135985061186860608d016117c3565b975060808c0135965060a08c0135955060c08c0135945060e08c013593506101008c013592506101208c013567ffffffffffffffff8111156118a957600080fd5b6118b58e828f016117df565b915080935050809150509295989b509295989b9093969950565b600080600080606085870312156118e557600080fd5b8435935060208501359250604085013567ffffffffffffffff81111561190a57600080fd5b611916878288016117df565b95989497509550505050565b60006020828403121561193457600080fd5b61193d826117c3565b9392505050565b634e487b7160e01b600052601160045260246000fd5b60008282101561196c5761196c611944565b500390565b60006020828403121561198357600080fd5b8151801515811461193d57600080fd5b600082198211156119a6576119a6611944565b500190565b60008160001904831182151516156119c5576119c5611944565b500290565b6000826119e757634e487b7160e01b600052601260045260246000fd5b500490565b6000602082840312156119fe57600080fd5b815160ff8116811461193d57600080fd5b600181815b80851115611a4a578160001904821115611a3057611a30611944565b80851615611a3d57918102915b93841c9390800290611a14565b509250929050565b600082611a61575060016110c6565b81611a6e575060006110c6565b8160018114611a845760028114611a8e57611aaa565b60019150506110c6565b60ff841115611a9f57611a9f611944565b50506001821b6110c6565b5060208310610133831016604e8410600b8410161715611acd575081810a6110c6565b611ad78383611a0f565b8060001904821115611aeb57611aeb611944565b029392505050565b600061193d60ff841683611a52565b634e487b7160e01b600052602160045260246000fd5b60005b83811015611b33578181015183820152602001611b1b565b83811115610f3f5750506000910152565b60008251611b56818460208701611b18565b9190910192915050565b6020815260008251806020840152611b7f816040850160208701611b18565b601f01601f1916919091016040019291505056fea2646970667358221220f528c95ccc545dd8843e4927cf7a1f967d9b938d669b2da1eec96a926cdeaa8364736f6c63430008090033",
  "devdoc": {
    "kind": "dev",
    "methods": {
      "acceptOwnership()": {
        "details": "The new owner accepts the ownership transfer."
      },
      "owner()": {
        "details": "Returns the address of the current owner."
      },
      "pendingOwner()": {
        "details": "Returns the address of the pending owner."
      },
      "renounceOwnership()": {
        "details": "Leaves the contract without owner. It will not be possible to call `onlyOwner` functions anymore. Can only be called by the current owner. NOTE: Renouncing ownership will leave the contract without an owner, thereby removing any functionality that is only available to the owner."
      },
      "transferOwnership(address)": {
        "details": "Starts the ownership transfer of the contract to a new account. Replaces the pending transfer if there is one. Can only be called by the current owner."
      }
    },
    "version": 1
  },
  "userdoc": {
    "kind": "user",
    "methods": {},
    "version": 1
  },
  "storageLayout": {
    "storage": [
      {
        "astId": 244,
        "contract": "contracts/PublicSale.sol:PublicSale",
        "label": "_initialized",
        "offset": 0,
        "slot": "0",
        "type": "t_uint8"
      },
      {
        "astId": 247,
        "contract": "contracts/PublicSale.sol:PublicSale",
        "label": "_initializing",
        "offset": 1,
        "slot": "0",
        "type": "t_bool"
      },
      {
        "astId": 1224,
        "contract": "contracts/PublicSale.sol:PublicSale",
        "label": "__gap",
        "offset": 0,
        "slot": "1",
        "type": "t_array(t_uint256)50_storage"
      },
      {
        "astId": 116,
        "contract": "contracts/PublicSale.sol:PublicSale",
        "label": "_owner",
        "offset": 0,
        "slot": "51",
        "type": "t_address"
      },
      {
        "astId": 236,
        "contract": "contracts/PublicSale.sol:PublicSale",
        "label": "__gap",
        "offset": 0,
        "slot": "52",
        "type": "t_array(t_uint256)49_storage"
      },
      {
        "astId": 25,
        "contract": "contracts/PublicSale.sol:PublicSale",
        "label": "_pendingOwner",
        "offset": 0,
        "slot": "101",
        "type": "t_address"
      },
      {
        "astId": 104,
        "contract": "contracts/PublicSale.sol:PublicSale",
        "label": "__gap",
        "offset": 0,
        "slot": "102",
        "type": "t_array(t_uint256)49_storage"
      },
      {
        "astId": 420,
        "contract": "contracts/PublicSale.sol:PublicSale",
        "label": "_status",
        "offset": 0,
        "slot": "151",
        "type": "t_uint256"
      },
      {
        "astId": 478,
        "contract": "contracts/PublicSale.sol:PublicSale",
        "label": "__gap",
        "offset": 0,
        "slot": "152",
        "type": "t_array(t_uint256)49_storage"
      },
      {
        "astId": 2647,
        "contract": "contracts/PublicSale.sol:PublicSale",
        "label": "sales",
        "offset": 0,
        "slot": "201",
        "type": "t_mapping(t_uint256,t_struct(Sale)2684_storage)"
      }
    ],
    "types": {
      "t_address": {
        "encoding": "inplace",
        "label": "address",
        "numberOfBytes": "20"
      },
      "t_array(t_uint256)49_storage": {
        "base": "t_uint256",
        "encoding": "inplace",
        "label": "uint256[49]",
        "numberOfBytes": "1568"
      },
      "t_array(t_uint256)50_storage": {
        "base": "t_uint256",
        "encoding": "inplace",
        "label": "uint256[50]",
        "numberOfBytes": "1600"
      },
      "t_bool": {
        "encoding": "inplace",
        "label": "bool",
        "numberOfBytes": "1"
      },
      "t_mapping(t_address,t_uint256)": {
        "encoding": "mapping",
        "key": "t_address",
        "label": "mapping(address => uint256)",
        "numberOfBytes": "32",
        "value": "t_uint256"
      },
      "t_mapping(t_uint256,t_struct(Sale)2684_storage)": {
        "encoding": "mapping",
        "key": "t_uint256",
        "label": "mapping(uint256 => struct PublicSale.Sale)",
        "numberOfBytes": "32",
        "value": "t_struct(Sale)2684_storage"
      },
      "t_struct(Sale)2684_storage": {
        "encoding": "inplace",
        "label": "struct PublicSale.Sale",
        "members": [
          {
            "astId": 2659,
            "contract": "contracts/PublicSale.sol:PublicSale",
            "label": "creator",
            "offset": 0,
            "slot": "0",
            "type": "t_address"
          },
          {
            "astId": 2661,
            "contract": "contracts/PublicSale.sol:PublicSale",
            "label": "saleToken",
            "offset": 0,
            "slot": "1",
            "type": "t_address"
          },
          {
            "astId": 2663,
            "contract": "contracts/PublicSale.sol:PublicSale",
            "label": "saleAmount",
            "offset": 0,
            "slot": "2",
            "type": "t_uint256"
          },
          {
            "astId": 2665,
            "contract": "contracts/PublicSale.sol:PublicSale",
            "label": "receiveToken",
            "offset": 0,
            "slot": "3",
            "type": "t_address"
          },
          {
            "astId": 2667,
            "contract": "contracts/PublicSale.sol:PublicSale",
            "label": "pricePer",
            "offset": 0,
            "slot": "4",
            "type": "t_uint256"
          },
          {
            "astId": 2669,
            "contract": "contracts/PublicSale.sol:PublicSale",
            "label": "limitMin",
            "offset": 0,
            "slot": "5",
            "type": "t_uint256"
          },
          {
            "astId": 2671,
            "contract": "contracts/PublicSale.sol:PublicSale",
            "label": "limitMax",
            "offset": 0,
            "slot": "6",
            "type": "t_uint256"
          },
          {
            "astId": 2673,
            "contract": "contracts/PublicSale.sol:PublicSale",
            "label": "startTime",
            "offset": 0,
            "slot": "7",
            "type": "t_uint256"
          },
          {
            "astId": 2675,
            "contract": "contracts/PublicSale.sol:PublicSale",
            "label": "endTime",
            "offset": 0,
            "slot": "8",
            "type": "t_uint256"
          },
          {
            "astId": 2677,
            "contract": "contracts/PublicSale.sol:PublicSale",
            "label": "soldAmount",
            "offset": 0,
            "slot": "9",
            "type": "t_uint256"
          },
          {
            "astId": 2679,
            "contract": "contracts/PublicSale.sol:PublicSale",
            "label": "isCancel",
            "offset": 0,
            "slot": "10",
            "type": "t_bool"
          },
          {
            "astId": 2683,
            "contract": "contracts/PublicSale.sol:PublicSale",
            "label": "boughtAmounts",
            "offset": 0,
            "slot": "11",
            "type": "t_mapping(t_address,t_uint256)"
          }
        ],
        "numberOfBytes": "384"
      },
      "t_uint256": {
        "encoding": "inplace",
        "label": "uint256",
        "numberOfBytes": "32"
      },
      "t_uint8": {
        "encoding": "inplace",
        "label": "uint8",
        "numberOfBytes": "1"
      }
    }
  }
}